{
  "contracts/USDCRewardContract.sol": {
    "USDCRewardContract": {
      "abi": [
        {
          "inputs": [
            {
              "internalType": "address",
              "name": "_usdcToken",
              "type": "address"
            }
          ],
          "stateMutability": "nonpayable",
          "type": "constructor"
        },
        {
          "inputs": [],
          "name": "ContractIsPaused",
          "type": "error"
        },
        {
          "inputs": [],
          "name": "EnforcedPause",
          "type": "error"
        },
        {
          "inputs": [],
          "name": "ExchangeRateNotSet",
          "type": "error"
        },
        {
          "inputs": [],
          "name": "ExpectedPause",
          "type": "error"
        },
        {
          "inputs": [
            {
              "internalType": "uint256",
              "name": "required",
              "type": "uint256"
            },
            {
              "internalType": "uint256",
              "name": "available",
              "type": "uint256"
            }
          ],
          "name": "InsufficientPoints",
          "type": "error"
        },
        {
          "inputs": [
            {
              "internalType": "uint256",
              "name": "required",
              "type": "uint256"
            },
            {
              "internalType": "uint256",
              "name": "available",
              "type": "uint256"
            }
          ],
          "name": "InsufficientUSDCBalance",
          "type": "error"
        },
        {
          "inputs": [],
          "name": "InvalidAddress",
          "type": "error"
        },
        {
          "inputs": [],
          "name": "InvalidAmount",
          "type": "error"
        },
        {
          "inputs": [
            {
              "internalType": "address",
              "name": "owner",
              "type": "address"
            }
          ],
          "name": "OwnableInvalidOwner",
          "type": "error"
        },
        {
          "inputs": [
            {
              "internalType": "address",
              "name": "account",
              "type": "address"
            }
          ],
          "name": "OwnableUnauthorizedAccount",
          "type": "error"
        },
        {
          "inputs": [],
          "name": "ReentrancyGuardReentrantCall",
          "type": "error"
        },
        {
          "inputs": [],
          "name": "Unauthorized",
          "type": "error"
        },
        {
          "anonymous": false,
          "inputs": [],
          "name": "ContractPaused",
          "type": "event"
        },
        {
          "anonymous": false,
          "inputs": [],
          "name": "ContractUnpaused",
          "type": "event"
        },
        {
          "anonymous": false,
          "inputs": [
            {
              "indexed": false,
              "internalType": "uint256",
              "name": "newRate",
              "type": "uint256"
            }
          ],
          "name": "ExchangeRateSet",
          "type": "event"
        },
        {
          "anonymous": false,
          "inputs": [
            {
              "indexed": true,
              "internalType": "address",
              "name": "previousOwner",
              "type": "address"
            },
            {
              "indexed": true,
              "internalType": "address",
              "name": "newOwner",
              "type": "address"
            }
          ],
          "name": "OwnershipTransferred",
          "type": "event"
        },
        {
          "anonymous": false,
          "inputs": [
            {
              "indexed": false,
              "internalType": "address",
              "name": "account",
              "type": "address"
            }
          ],
          "name": "Paused",
          "type": "event"
        },
        {
          "anonymous": false,
          "inputs": [
            {
              "indexed": true,
              "internalType": "address",
              "name": "user",
              "type": "address"
            },
            {
              "indexed": false,
              "internalType": "uint256",
              "name": "amount",
              "type": "uint256"
            }
          ],
          "name": "PointsAdded",
          "type": "event"
        },
        {
          "anonymous": false,
          "inputs": [
            {
              "indexed": true,
              "internalType": "address",
              "name": "user",
              "type": "address"
            },
            {
              "indexed": false,
              "internalType": "uint256",
              "name": "amount",
              "type": "uint256"
            }
          ],
          "name": "PointsRemoved",
          "type": "event"
        },
        {
          "anonymous": false,
          "inputs": [
            {
              "indexed": true,
              "internalType": "address",
              "name": "user",
              "type": "address"
            },
            {
              "indexed": false,
              "internalType": "uint256",
              "name": "pointsUsed",
              "type": "uint256"
            },
            {
              "indexed": false,
              "internalType": "uint256",
              "name": "usdcAmount",
              "type": "uint256"
            }
          ],
          "name": "USDCClaimed",
          "type": "event"
        },
        {
          "anonymous": false,
          "inputs": [
            {
              "indexed": false,
              "internalType": "uint256",
              "name": "amount",
              "type": "uint256"
            }
          ],
          "name": "USDCDeposited",
          "type": "event"
        },
        {
          "anonymous": false,
          "inputs": [
            {
              "indexed": false,
              "internalType": "uint256",
              "name": "amount",
              "type": "uint256"
            }
          ],
          "name": "USDCWithdrawn",
          "type": "event"
        },
        {
          "anonymous": false,
          "inputs": [
            {
              "indexed": false,
              "internalType": "address",
              "name": "account",
              "type": "address"
            }
          ],
          "name": "Unpaused",
          "type": "event"
        },
        {
          "inputs": [
            {
              "internalType": "address",
              "name": "user",
              "type": "address"
            },
            {
              "internalType": "uint256",
              "name": "amount",
              "type": "uint256"
            }
          ],
          "name": "addPoints",
          "outputs": [],
          "stateMutability": "nonpayable",
          "type": "function"
        },
        {
          "inputs": [
            {
              "internalType": "uint256",
              "name": "pointAmount",
              "type": "uint256"
            }
          ],
          "name": "calculateUSDCAmount",
          "outputs": [
            {
              "internalType": "uint256",
              "name": "",
              "type": "uint256"
            }
          ],
          "stateMutability": "view",
          "type": "function"
        },
        {
          "inputs": [
            {
              "internalType": "uint256",
              "name": "pointAmount",
              "type": "uint256"
            }
          ],
          "name": "claimUSDC",
          "outputs": [],
          "stateMutability": "nonpayable",
          "type": "function"
        },
        {
          "inputs": [
            {
              "internalType": "uint256",
              "name": "amount",
              "type": "uint256"
            }
          ],
          "name": "depositUSDC",
          "outputs": [],
          "stateMutability": "nonpayable",
          "type": "function"
        },
        {
          "inputs": [
            {
              "internalType": "address",
              "name": "user",
              "type": "address"
            }
          ],
          "name": "getPointBalance",
          "outputs": [
            {
              "internalType": "uint256",
              "name": "",
              "type": "uint256"
            }
          ],
          "stateMutability": "view",
          "type": "function"
        },
        {
          "inputs": [
            {
              "internalType": "address",
              "name": "user",
              "type": "address"
            }
          ],
          "name": "getTotalClaimedPoints",
          "outputs": [
            {
              "internalType": "uint256",
              "name": "",
              "type": "uint256"
            }
          ],
          "stateMutability": "view",
          "type": "function"
        },
        {
          "inputs": [],
          "name": "owner",
          "outputs": [
            {
              "internalType": "address",
              "name": "",
              "type": "address"
            }
          ],
          "stateMutability": "view",
          "type": "function"
        },
        {
          "inputs": [],
          "name": "pause",
          "outputs": [],
          "stateMutability": "nonpayable",
          "type": "function"
        },
        {
          "inputs": [],
          "name": "paused",
          "outputs": [
            {
              "internalType": "bool",
              "name": "",
              "type": "bool"
            }
          ],
          "stateMutability": "view",
          "type": "function"
        },
        {
          "inputs": [],
          "name": "renounceOwnership",
          "outputs": [],
          "stateMutability": "nonpayable",
          "type": "function"
        },
        {
          "inputs": [
            {
              "internalType": "uint256",
              "name": "rate",
              "type": "uint256"
            }
          ],
          "name": "setExchangeRate",
          "outputs": [],
          "stateMutability": "nonpayable",
          "type": "function"
        },
        {
          "inputs": [
            {
              "internalType": "address",
              "name": "user",
              "type": "address"
            },
            {
              "internalType": "uint256",
              "name": "amount",
              "type": "uint256"
            }
          ],
          "name": "subtractPoints",
          "outputs": [],
          "stateMutability": "nonpayable",
          "type": "function"
        },
        {
          "inputs": [
            {
              "internalType": "address",
              "name": "newOwner",
              "type": "address"
            }
          ],
          "name": "transferOwnership",
          "outputs": [],
          "stateMutability": "nonpayable",
          "type": "function"
        },
        {
          "inputs": [],
          "name": "unpause",
          "outputs": [],
          "stateMutability": "nonpayable",
          "type": "function"
        },
        {
          "inputs": [
            {
              "internalType": "uint256",
              "name": "amount",
              "type": "uint256"
            }
          ],
          "name": "withdrawUSDC",
          "outputs": [],
          "stateMutability": "nonpayable",
          "type": "function"
        }
      ],
      "evm": {
        "bytecode": {
          "linkReferences": {},
          "object": "60806040523461002f576100196100146100fa565b610248565b610021610034565b6118fc61045382396118fc90f35b61003a565b60405190565b600080fd5b601f801991011690565b634e487b7160e01b600052604160045260246000fd5b906100699061003f565b810190811060018060401b0382111761008157604052565b610049565b90610099610092610034565b928361005f565b565b600080fd5b60018060a01b031690565b6100b4906100a0565b90565b6100c0816100ab565b036100c757565b600080fd5b905051906100d9826100b7565b565b906020828203126100f5576100f2916000016100cc565b90565b61009b565b610118611d4f8038038061010d81610086565b9283398101906100db565b90565b90565b90565b61013561013061013a9261011b565b61011e565b6100a0565b90565b61014690610121565b90565b60000190565b61016361015e610168926100a0565b61011e565b6100a0565b90565b6101749061014f565b90565b6101809061016b565b90565b60001b90565b9061019a60018060a01b0391610183565b9181191691161790565b6101ad9061016b565b90565b90565b906101c86101c36101cf926101a4565b6101b0565b8254610189565b9055565b90565b6101ea6101e56101ef9261011b565b61011e565b6101d3565b90565b906101ff60001991610183565b9181191691161790565b61021d610218610222926101d3565b61011e565b6101d3565b90565b90565b9061023d61023861024492610209565b610225565b82546101f2565b9055565b610251336102e4565b8061026d610267610262600061013d565b6100ab565b916100ab565b1461029b5761027e61028591610177565b60056101b3565b61029961029260006101d6565b6004610228565b565b600063e6c4247b60e01b8152806102b460048201610149565b0390fd5b90565b6102cf6102ca6102d4926102b8565b61011e565b6101d3565b90565b6102e160016102bb565b90565b6102ed90610301565b6102ff6102f86102d7565b6001610228565b565b61030a9061032f565b565b610315906100ab565b9052565b919061032d9060006020850194019061030c565b565b8061034b610345610340600061013d565b6100ab565b916100ab565b1461035b57610359906103f1565b565b610380610368600061013d565b6000918291631e4fbdf760e01b835260048301610319565b0390fd5b60001c90565b60018060a01b031690565b6103a16103a691610384565b61038a565b90565b6103b39054610395565b90565b6103bf9061014f565b90565b6103cb906103b6565b90565b90565b906103e66103e16103ed926103c2565b6103ce565b8254610189565b9055565b6103fb60006103a9565b6104068260006103d1565b9061043a6104347f8be0079c531659141344cd1fd0a4f28419497f9722a3daafe3b4186f6b6457e0936103c2565b916103c2565b91610443610034565b8061044d81610149565b0390a356fe60806040526004361015610013575b61057e565b61001e60003561010d565b80631e2393ea146101085780633f4ba83a146101035780634a222b35146100fe5780634cabb824146100f9578063507cd30f146100f45780635c975abb146100ef5780635f42513c146100ea5780636e5f4a89146100e5578063715018a6146100e05780638456cb59146100db5780638da5cb5b146100d6578063db068e0e146100d1578063db81f99b146100cc578063f2fde38b146100c75763f688bcfb0361000e5761054b565b610518565b6104e5565b6104b2565b61047d565b610427565b6103f4565b6103c1565b61038c565b610357565b6102fb565b6102c6565b610273565b6101ee565b6101a3565b60e01c90565b60405190565b600080fd5b600080fd5b60018060a01b031690565b61013790610123565b90565b6101438161012e565b0361014a57565b600080fd5b9050359061015c8261013a565b565b90602082820312610178576101759160000161014f565b90565b61011e565b90565b6101899061017d565b9052565b91906101a190600060208501940190610180565b565b346101d3576101cf6101be6101b936600461015e565b610601565b6101c6610113565b9182918261018d565b0390f35b610119565b60009103126101e357565b61011e565b60000190565b3461021c576101fe3660046101d8565b610206610672565b61020e610113565b80610218816101e8565b0390f35b610119565b61022a8161017d565b0361023157565b600080fd5b9050359061024382610221565b565b919060408382031261026e578061026261026b926000860161014f565b93602001610236565b90565b61011e565b346102a25761028c610286366004610245565b90610862565b610294610113565b8061029e816101e8565b0390f35b610119565b906020828203126102c1576102be91600001610236565b90565b61011e565b346102f6576102f26102e16102dc3660046102a7565b6108a3565b6102e9610113565b9182918261018d565b0390f35b610119565b3461032a5761031461030e366004610245565b906109d7565b61031c610113565b80610326816101e8565b0390f35b610119565b151590565b61033d9061032f565b9052565b919061035590600060208501940190610334565b565b34610387576103673660046101d8565b610383610372610a15565b61037a610113565b91829182610341565b0390f35b610119565b346103bc576103b86103a76103a236600461015e565b610a2b565b6103af610113565b9182918261018d565b0390f35b610119565b346103ef576103d96103d43660046102a7565b610d95565b6103e1610113565b806103eb816101e8565b0390f35b610119565b34610422576104043660046101d8565b61040c610dee565b610414610113565b8061041e816101e8565b0390f35b610119565b34610455576104373660046101d8565b61043f610e4a565b610447610113565b80610451816101e8565b0390f35b610119565b6104639061012e565b9052565b919061047b9060006020850194019061045a565b565b346104ad5761048d3660046101d8565b6104a9610498610e85565b6104a0610113565b91829182610467565b0390f35b610119565b346104e0576104ca6104c53660046102a7565b610ef4565b6104d2610113565b806104dc816101e8565b0390f35b610119565b34610513576104fd6104f83660046102a7565b61116c565b610505610113565b8061050f816101e8565b0390f35b610119565b346105465761053061052b36600461015e565b6111df565b610538610113565b80610542816101e8565b0390f35b610119565b346105795761056361055e3660046102a7565b6113ed565b61056b610113565b80610575816101e8565b0390f35b610119565b600080fd5b600090565b90565b61059f61059a6105a492610123565b610588565b610123565b90565b6105b09061058b565b90565b6105bc906105a7565b90565b906105c9906105b3565b600052602052604060002090565b60001c90565b90565b6105ec6105f1916105d7565b6105dd565b90565b6105fe90546105e0565b90565b61061861061d91610610610583565b5060036105bf565b6105f4565b90565b6106286113f8565b610630610632565b565b61063a6114f5565b7f0e5e3b3fb504c22cf5c42fa07d521225937514c654007e1f12646f89768d6f94610663610113565b8061066d816101e8565b0390a1565b61067a610620565b565b9061068e916106896113f8565b61076a565b565b90565b6106a76106a26106ac92610690565b610588565b61017d565b90565b9160206106d19294936106ca60408201966000830190610180565b0190610180565b565b634e487b7160e01b600052601160045260246000fd5b6106f86106fe9193929361017d565b9261017d565b820391821161070957565b6106d3565b60001b90565b906107216000199161070e565b9181191691161790565b61073f61073a6107449261017d565b610588565b61017d565b90565b90565b9061075f61075a6107669261072b565b610747565b8254610714565b9055565b610773816114ff565b816107876107816000610693565b9161017d565b14610845576107a061079b600283906105bf565b6105f4565b806107b36107ad8561017d565b9161017d565b1061082557506107e1826107db6107cc600285906105bf565b916107d6836105f4565b6106e9565b9061074a565b61082061080e7ff9352367bd3be481e8f66e7940f6ea5b57fea7504271b1f2863a535443fd2bab926105b3565b92610817610113565b9182918261018d565b0390a2565b826108416000928392638059c74760e01b8452600484016106af565b0390fd5b600063162908e360e11b81528061085e600482016101e8565b0390fd5b9061086c9161067c565b565b61087d6108839193929361017d565b9261017d565b9161088f83820261017d565b92818404149015171561089e57565b6106d3565b6108ab610583565b506108b660046105f4565b6108c96108c36000610693565b9161017d565b146108e5576108e2906108dc60046105f4565b9061086e565b90565b506108f06000610693565b90565b90610905916109006113f8565b61092c565b565b61091661091c9193929361017d565b9261017d565b820180921161092757565b6106d3565b610935816114ff565b816109496109436000610693565b9161017d565b146109ba5761097682610970610961600285906105bf565b9161096b836105f4565b610907565b9061074a565b6109b56109a37f0fe6fcb45adaaa54f7e3491f6a7964049817f1e437f33587e634a4629fbcf3a6926105b3565b926109ac610113565b9182918261018d565b0390a2565b600063162908e360e11b8152806109d3600482016101e8565b0390fd5b906109e1916108f3565b565b600090565b60a01c90565b60ff1690565b610a00610a05916109e8565b6109ee565b90565b610a1290546109f4565b90565b610a1d6109e3565b50610a286000610a08565b90565b610a42610a4791610a3a610583565b5060026105bf565b6105f4565b90565b610a5b90610a5661153e565b610a5d565b565b610a6e90610a69611595565b610b4a565b610a7661161a565b565b60018060a01b031690565b610a8f610a94916105d7565b610a78565b90565b610aa19054610a83565b90565b610aad906105a7565b90565b610ab9906105a7565b90565b601f801991011690565b634e487b7160e01b600052604160045260246000fd5b90610ae690610abc565b810190811067ffffffffffffffff821117610b0057604052565b610ac6565b60e01b90565b90505190610b1882610221565b565b90602082820312610b3457610b3191600001610b0b565b90565b61011e565b610b41610113565b3d6000823e3d90fd5b610b53336114ff565b80610b67610b616000610693565b9161017d565b14610d7857610b7660046105f4565b610b89610b836000610693565b9161017d565b14610d5b57610ba2610b9d600233906105bf565b6105f4565b80610bb5610baf8461017d565b9161017d565b10610d3b5750610bcf81610bc960046105f4565b9061086e565b90610c196020610be7610be26005610a97565b610aa4565b6370a0823190610c0e610bf930610ab0565b92610c02610113565b95869485938493610b05565b835260048301610467565b03915afa908115610d3657600091610d08575b5080610c40610c3a8561017d565b9161017d565b10610ce85750610c6e81610c68610c59600233906105bf565b91610c63836105f4565b6106e9565b9061074a565b610c9681610c90610c81600333906105bf565b91610c8b836105f4565b610907565b9061074a565b610ca133839061162e565b339091610cce7feb9a8c68a32bc6989217e69f932cf098ff5d0e2f11305800394c73b554d2ce9e926105b3565b92610ce3610cda610113565b928392836106af565b0390a2565b82610d046000928392630722f6b360e11b8452600484016106af565b0390fd5b610d29915060203d8111610d2f575b610d218183610adc565b810190610b1a565b38610c2c565b503d610d17565b610b39565b90610d576000928392638059c74760e01b8452600484016106af565b0390fd5b60006362f216e560e01b815280610d74600482016101e8565b0390fd5b600063162908e360e11b815280610d91600482016101e8565b0390fd5b610d9e90610a4a565b565b610da86113f8565b610db0610dda565b565b610dc6610dc1610dcb92610690565b610588565b610123565b90565b610dd790610db2565b90565b610dec610de76000610dce565b6117b9565b565b610df6610da0565b565b610e006113f8565b610e08610e0a565b565b610e1261187b565b7fab35696f06e428ebc5ceba8cd17f8fed287baf43440206d1943af1ee53e6d267610e3b610113565b80610e45816101e8565b0390a1565b610e52610df8565b565b600090565b60018060a01b031690565b610e70610e75916105d7565b610e59565b90565b610e829054610e64565b90565b610e8d610e54565b50610e986000610e78565b90565b610eac90610ea76113f8565b610eae565b565b610eb981600461074a565b610eef7f972aba470577c14606bbf4bbdec1fed4925f242fcef40b4a8d242983365d029191610ee6610113565b9182918261018d565b0390a1565b610efd90610e9b565b565b610f1090610f0b6113f8565b610f79565b565b610f1b8161032f565b03610f2257565b600080fd5b90505190610f3482610f12565b565b90602082820312610f5057610f4d91600001610f27565b90565b61011e565b916020610f77929493610f706040820196600083019061045a565b0190610180565b565b80610f8d610f876000610693565b9161017d565b1461114f57610fdb6020610fa9610fa46005610a97565b610aa4565b6370a0823190610fd0610fbb30610ab0565b92610fc4610113565b95869485938493610b05565b835260048301610467565b03915afa90811561114a5760009161111c575b5080611002610ffc8461017d565b9161017d565b106110fc576110196110146005610a97565b610aa4565b602063a9059cbb9133906110416000879561104c611035610113565b97889687958694610b05565b845260048401610f55565b03925af180156110f757611069916000916110c9575b501561032f565b6110a957506110a47f4eacc637a5fb1dbbc94595a9432e0a8d75ae5d51d189021963a6cc8575465ddf9161109b610113565b9182918261018d565b0390a1565b906110c56000928392630722f6b360e11b8452600484016106af565b0390fd5b6110ea915060203d81116110f0575b6110e28183610adc565b810190610f36565b38611062565b503d6110d8565b610b39565b906111186000928392630722f6b360e11b8452600484016106af565b0390fd5b61113d915060203d8111611143575b6111358183610adc565b810190610b1a565b38610fee565b503d61112b565b610b39565b600063162908e360e11b815280611168600482016101e8565b0390fd5b61117590610eff565b565b611188906111836113f8565b61118a565b565b806111a66111a061119b6000610dce565b61012e565b9161012e565b146111b6576111b4906117b9565b565b6111db6111c36000610dce565b6000918291631e4fbdf760e01b835260048301610467565b0390fd5b6111e890611177565b565b6111fb906111f66113f8565b611230565b565b60409061122761122e949695939661121d6060840198600085019061045a565b602083019061045a565b0190610180565b565b8061124461123e6000610693565b9161017d565b146113d05761125b6112566005610a97565b610aa4565b60206323b872dd91339061128c600061127330610ab0565b9561129788611280610113565b98899788968795610b05565b8552600485016111fd565b03925af180156113cb576112b49160009161139d575b501561032f565b6112f3576112ee7f0f920186940a9c60ff07b508b49ba5dca2c647b29aebfa69964b44e5e873a62c916112e5610113565b9182918261018d565b0390a1565b61133590602061130b6113066005610a97565b610aa4565b6370a082319061132a339261131e610113565b96879485938493610b05565b835260048301610467565b03915afa91821561139857600092611368575b506113646000928392630722f6b360e11b8452600484016106af565b0390fd5b61138a91925060203d8111611391575b6113828183610adc565b810190610b1a565b9082611348565b503d611378565b610b39565b6113be915060203d81116113c4575b6113b68183610adc565b810190610f36565b386112ad565b503d6113ac565b610b39565b600063162908e360e11b8152806113e9600482016101e8565b0390fd5b6113f6906111ea565b565b611400610e85565b61141961141361140e611885565b61012e565b9161012e565b0361142057565b61144361142b611885565b600091829163118cdaa760e01b835260048301610467565b0390fd5b61144f611892565b6114576114a7565b565b60a01b90565b9061146e60ff60a01b91611459565b9181191691161790565b6114819061032f565b90565b90565b9061149c6114976114a392611478565b611484565b825461145f565b9055565b6114b2600080611487565b6114ba611885565b6114f07f5db9ee0a495bf2e6ff9c91a7834c1ba4fdd244a5e8aa4e537bd38aeae4b073aa916114e7610113565b91829182610467565b0390a1565b6114fd611447565b565b61151a61151461150f6000610dce565b61012e565b9161012e565b1461152157565b600063e6c4247b60e01b81528061153a600482016101e8565b0390fd5b611546610a15565b61154c57565b600063d93c066560e01b815280611565600482016101e8565b0390fd5b90565b61158061157b61158592611569565b610588565b61017d565b90565b611592600261156c565b90565b61159f60016105f4565b6115b86115b26115ad611588565b61017d565b9161017d565b146115d1576115cf6115c8611588565b600161074a565b565b6000633ee5aeb560e01b8152806115ea600482016101e8565b0390fd5b90565b61160561160061160a926115ee565b610588565b61017d565b90565b61161760016115f1565b90565b61162c61162561160d565b600161074a565b565b602061164261163d6005610a97565b610aa4565b63a9059cbb92906116676000869561167261165b610113565b97889687958694610b05565b845260048401610f55565b03925af180156117765761168f91600091611748575b501561032f565b6116965750565b6116e09060206116ae6116a96005610a97565b610aa4565b6370a08231906116d56116c030610ab0565b926116c9610113565b96879485938493610b05565b835260048301610467565b03915afa91821561174357600092611713575b5061170f6000928392630722f6b360e11b8452600484016106af565b0390fd5b61173591925060203d811161173c575b61172d8183610adc565b810190610b1a565b90826116f3565b503d611723565b610b39565b611769915060203d811161176f575b6117618183610adc565b810190610f36565b38611688565b503d611757565b610b39565b9061178c60018060a01b039161070e565b9181191691161790565b90565b906117ae6117a96117b5926105b3565b611796565b825461177b565b9055565b6117c36000610e78565b6117ce826000611799565b906118026117fc7f8be0079c531659141344cd1fd0a4f28419497f9722a3daafe3b4186f6b6457e0936105b3565b916105b3565b9161180b610113565b80611815816101e8565b0390a3565b61182261153e565b61182a61182c565b565b61183860016000611487565b611840611885565b6118767f62e78cea01bee320cd4e420270b5ea74000d11b0c9f74754ebdbfc544b05a2589161186d610113565b91829182610467565b0390a1565b61188361181a565b565b61188d610e54565b503390565b6118a361189d610a15565b1561032f565b6118a957565b6000638dfc202b60e01b8152806118c2600482016101e8565b0390fdfea2646970667358221220a58b8c83160a8460330dd00a70fd0986bd66994083215a0d4939d1603b3a436064736f6c634300081c0033",
          "opcodes": "PUSH1 0x80 PUSH1 0x40 MSTORE CALLVALUE PUSH2 0x2F JUMPI PUSH2 0x19 PUSH2 0x14 PUSH2 0xFA JUMP JUMPDEST PUSH2 0x248 JUMP JUMPDEST PUSH2 0x21 PUSH2 0x34 JUMP JUMPDEST PUSH2 0x18FC PUSH2 0x453 DUP3 CODECOPY PUSH2 0x18FC SWAP1 RETURN JUMPDEST PUSH2 0x3A JUMP JUMPDEST PUSH1 0x40 MLOAD SWAP1 JUMP JUMPDEST PUSH1 0x0 DUP1 REVERT JUMPDEST PUSH1 0x1F DUP1 NOT SWAP2 ADD AND SWAP1 JUMP JUMPDEST PUSH4 0x4E487B71 PUSH1 0xE0 SHL PUSH1 0x0 MSTORE PUSH1 0x41 PUSH1 0x4 MSTORE PUSH1 0x24 PUSH1 0x0 REVERT JUMPDEST SWAP1 PUSH2 0x69 SWAP1 PUSH2 0x3F JUMP JUMPDEST DUP2 ADD SWAP1 DUP2 LT PUSH1 0x1 DUP1 PUSH1 0x40 SHL SUB DUP3 GT OR PUSH2 0x81 JUMPI PUSH1 0x40 MSTORE JUMP JUMPDEST PUSH2 0x49 JUMP JUMPDEST SWAP1 PUSH2 0x99 PUSH2 0x92 PUSH2 0x34 JUMP JUMPDEST SWAP3 DUP4 PUSH2 0x5F JUMP JUMPDEST JUMP JUMPDEST PUSH1 0x0 DUP1 REVERT JUMPDEST PUSH1 0x1 DUP1 PUSH1 0xA0 SHL SUB AND SWAP1 JUMP JUMPDEST PUSH2 0xB4 SWAP1 PUSH2 0xA0 JUMP JUMPDEST SWAP1 JUMP JUMPDEST PUSH2 0xC0 DUP2 PUSH2 0xAB JUMP JUMPDEST SUB PUSH2 0xC7 JUMPI JUMP JUMPDEST PUSH1 0x0 DUP1 REVERT JUMPDEST SWAP1 POP MLOAD SWAP1 PUSH2 0xD9 DUP3 PUSH2 0xB7 JUMP JUMPDEST JUMP JUMPDEST SWAP1 PUSH1 0x20 DUP3 DUP3 SUB SLT PUSH2 0xF5 JUMPI PUSH2 0xF2 SWAP2 PUSH1 0x0 ADD PUSH2 0xCC JUMP JUMPDEST SWAP1 JUMP JUMPDEST PUSH2 0x9B JUMP JUMPDEST PUSH2 0x118 PUSH2 0x1D4F DUP1 CODESIZE SUB DUP1 PUSH2 0x10D DUP2 PUSH2 0x86 JUMP JUMPDEST SWAP3 DUP4 CODECOPY DUP2 ADD SWAP1 PUSH2 0xDB JUMP JUMPDEST SWAP1 JUMP JUMPDEST SWAP1 JUMP JUMPDEST SWAP1 JUMP JUMPDEST PUSH2 0x135 PUSH2 0x130 PUSH2 0x13A SWAP3 PUSH2 0x11B JUMP JUMPDEST PUSH2 0x11E JUMP JUMPDEST PUSH2 0xA0 JUMP JUMPDEST SWAP1 JUMP JUMPDEST PUSH2 0x146 SWAP1 PUSH2 0x121 JUMP JUMPDEST SWAP1 JUMP JUMPDEST PUSH1 0x0 ADD SWAP1 JUMP JUMPDEST PUSH2 0x163 PUSH2 0x15E PUSH2 0x168 SWAP3 PUSH2 0xA0 JUMP JUMPDEST PUSH2 0x11E JUMP JUMPDEST PUSH2 0xA0 JUMP JUMPDEST SWAP1 JUMP JUMPDEST PUSH2 0x174 SWAP1 PUSH2 0x14F JUMP JUMPDEST SWAP1 JUMP JUMPDEST PUSH2 0x180 SWAP1 PUSH2 0x16B JUMP JUMPDEST SWAP1 JUMP JUMPDEST PUSH1 0x0 SHL SWAP1 JUMP JUMPDEST SWAP1 PUSH2 0x19A PUSH1 0x1 DUP1 PUSH1 0xA0 SHL SUB SWAP2 PUSH2 0x183 JUMP JUMPDEST SWAP2 DUP2 NOT AND SWAP2 AND OR SWAP1 JUMP JUMPDEST PUSH2 0x1AD SWAP1 PUSH2 0x16B JUMP JUMPDEST SWAP1 JUMP JUMPDEST SWAP1 JUMP JUMPDEST SWAP1 PUSH2 0x1C8 PUSH2 0x1C3 PUSH2 0x1CF SWAP3 PUSH2 0x1A4 JUMP JUMPDEST PUSH2 0x1B0 JUMP JUMPDEST DUP3 SLOAD PUSH2 0x189 JUMP JUMPDEST SWAP1 SSTORE JUMP JUMPDEST SWAP1 JUMP JUMPDEST PUSH2 0x1EA PUSH2 0x1E5 PUSH2 0x1EF SWAP3 PUSH2 0x11B JUMP JUMPDEST PUSH2 0x11E JUMP JUMPDEST PUSH2 0x1D3 JUMP JUMPDEST SWAP1 JUMP JUMPDEST SWAP1 PUSH2 0x1FF PUSH1 0x0 NOT SWAP2 PUSH2 0x183 JUMP JUMPDEST SWAP2 DUP2 NOT AND SWAP2 AND OR SWAP1 JUMP JUMPDEST PUSH2 0x21D PUSH2 0x218 PUSH2 0x222 SWAP3 PUSH2 0x1D3 JUMP JUMPDEST PUSH2 0x11E JUMP JUMPDEST PUSH2 0x1D3 JUMP JUMPDEST SWAP1 JUMP JUMPDEST SWAP1 JUMP JUMPDEST SWAP1 PUSH2 0x23D PUSH2 0x238 PUSH2 0x244 SWAP3 PUSH2 0x209 JUMP JUMPDEST PUSH2 0x225 JUMP JUMPDEST DUP3 SLOAD PUSH2 0x1F2 JUMP JUMPDEST SWAP1 SSTORE JUMP JUMPDEST PUSH2 0x251 CALLER PUSH2 0x2E4 JUMP JUMPDEST DUP1 PUSH2 0x26D PUSH2 0x267 PUSH2 0x262 PUSH1 0x0 PUSH2 0x13D JUMP JUMPDEST PUSH2 0xAB JUMP JUMPDEST SWAP2 PUSH2 0xAB JUMP JUMPDEST EQ PUSH2 0x29B JUMPI PUSH2 0x27E PUSH2 0x285 SWAP2 PUSH2 0x177 JUMP JUMPDEST PUSH1 0x5 PUSH2 0x1B3 JUMP JUMPDEST PUSH2 0x299 PUSH2 0x292 PUSH1 0x0 PUSH2 0x1D6 JUMP JUMPDEST PUSH1 0x4 PUSH2 0x228 JUMP JUMPDEST JUMP JUMPDEST PUSH1 0x0 PUSH4 0xE6C4247B PUSH1 0xE0 SHL DUP2 MSTORE DUP1 PUSH2 0x2B4 PUSH1 0x4 DUP3 ADD PUSH2 0x149 JUMP JUMPDEST SUB SWAP1 REVERT JUMPDEST SWAP1 JUMP JUMPDEST PUSH2 0x2CF PUSH2 0x2CA PUSH2 0x2D4 SWAP3 PUSH2 0x2B8 JUMP JUMPDEST PUSH2 0x11E JUMP JUMPDEST PUSH2 0x1D3 JUMP JUMPDEST SWAP1 JUMP JUMPDEST PUSH2 0x2E1 PUSH1 0x1 PUSH2 0x2BB JUMP JUMPDEST SWAP1 JUMP JUMPDEST PUSH2 0x2ED SWAP1 PUSH2 0x301 JUMP JUMPDEST PUSH2 0x2FF PUSH2 0x2F8 PUSH2 0x2D7 JUMP JUMPDEST PUSH1 0x1 PUSH2 0x228 JUMP JUMPDEST JUMP JUMPDEST PUSH2 0x30A SWAP1 PUSH2 0x32F JUMP JUMPDEST JUMP JUMPDEST PUSH2 0x315 SWAP1 PUSH2 0xAB JUMP JUMPDEST SWAP1 MSTORE JUMP JUMPDEST SWAP2 SWAP1 PUSH2 0x32D SWAP1 PUSH1 0x0 PUSH1 0x20 DUP6 ADD SWAP5 ADD SWAP1 PUSH2 0x30C JUMP JUMPDEST JUMP JUMPDEST DUP1 PUSH2 0x34B PUSH2 0x345 PUSH2 0x340 PUSH1 0x0 PUSH2 0x13D JUMP JUMPDEST PUSH2 0xAB JUMP JUMPDEST SWAP2 PUSH2 0xAB JUMP JUMPDEST EQ PUSH2 0x35B JUMPI PUSH2 0x359 SWAP1 PUSH2 0x3F1 JUMP JUMPDEST JUMP JUMPDEST PUSH2 0x380 PUSH2 0x368 PUSH1 0x0 PUSH2 0x13D JUMP JUMPDEST PUSH1 0x0 SWAP2 DUP3 SWAP2 PUSH4 0x1E4FBDF7 PUSH1 0xE0 SHL DUP4 MSTORE PUSH1 0x4 DUP4 ADD PUSH2 0x319 JUMP JUMPDEST SUB SWAP1 REVERT JUMPDEST PUSH1 0x0 SHR SWAP1 JUMP JUMPDEST PUSH1 0x1 DUP1 PUSH1 0xA0 SHL SUB AND SWAP1 JUMP JUMPDEST PUSH2 0x3A1 PUSH2 0x3A6 SWAP2 PUSH2 0x384 JUMP JUMPDEST PUSH2 0x38A JUMP JUMPDEST SWAP1 JUMP JUMPDEST PUSH2 0x3B3 SWAP1 SLOAD PUSH2 0x395 JUMP JUMPDEST SWAP1 JUMP JUMPDEST PUSH2 0x3BF SWAP1 PUSH2 0x14F JUMP JUMPDEST SWAP1 JUMP JUMPDEST PUSH2 0x3CB SWAP1 PUSH2 0x3B6 JUMP JUMPDEST SWAP1 JUMP JUMPDEST SWAP1 JUMP JUMPDEST SWAP1 PUSH2 0x3E6 PUSH2 0x3E1 PUSH2 0x3ED SWAP3 PUSH2 0x3C2 JUMP JUMPDEST PUSH2 0x3CE JUMP JUMPDEST DUP3 SLOAD PUSH2 0x189 JUMP JUMPDEST SWAP1 SSTORE JUMP JUMPDEST PUSH2 0x3FB PUSH1 0x0 PUSH2 0x3A9 JUMP JUMPDEST PUSH2 0x406 DUP3 PUSH1 0x0 PUSH2 0x3D1 JUMP JUMPDEST SWAP1 PUSH2 0x43A PUSH2 0x434 PUSH32 0x8BE0079C531659141344CD1FD0A4F28419497F9722A3DAAFE3B4186F6B6457E0 SWAP4 PUSH2 0x3C2 JUMP JUMPDEST SWAP2 PUSH2 0x3C2 JUMP JUMPDEST SWAP2 PUSH2 0x443 PUSH2 0x34 JUMP JUMPDEST DUP1 PUSH2 0x44D DUP2 PUSH2 0x149 JUMP JUMPDEST SUB SWAP1 LOG3 JUMP INVALID PUSH1 0x80 PUSH1 0x40 MSTORE PUSH1 0x4 CALLDATASIZE LT ISZERO PUSH2 0x13 JUMPI JUMPDEST PUSH2 0x57E JUMP JUMPDEST PUSH2 0x1E PUSH1 0x0 CALLDATALOAD PUSH2 0x10D JUMP JUMPDEST DUP1 PUSH4 0x1E2393EA EQ PUSH2 0x108 JUMPI DUP1 PUSH4 0x3F4BA83A EQ PUSH2 0x103 JUMPI DUP1 PUSH4 0x4A222B35 EQ PUSH2 0xFE JUMPI DUP1 PUSH4 0x4CABB824 EQ PUSH2 0xF9 JUMPI DUP1 PUSH4 0x507CD30F EQ PUSH2 0xF4 JUMPI DUP1 PUSH4 0x5C975ABB EQ PUSH2 0xEF JUMPI DUP1 PUSH4 0x5F42513C EQ PUSH2 0xEA JUMPI DUP1 PUSH4 0x6E5F4A89 EQ PUSH2 0xE5 JUMPI DUP1 PUSH4 0x715018A6 EQ PUSH2 0xE0 JUMPI DUP1 PUSH4 0x8456CB59 EQ PUSH2 0xDB JUMPI DUP1 PUSH4 0x8DA5CB5B EQ PUSH2 0xD6 JUMPI DUP1 PUSH4 0xDB068E0E EQ PUSH2 0xD1 JUMPI DUP1 PUSH4 0xDB81F99B EQ PUSH2 0xCC JUMPI DUP1 PUSH4 0xF2FDE38B EQ PUSH2 0xC7 JUMPI PUSH4 0xF688BCFB SUB PUSH2 0xE JUMPI PUSH2 0x54B JUMP JUMPDEST PUSH2 0x518 JUMP JUMPDEST PUSH2 0x4E5 JUMP JUMPDEST PUSH2 0x4B2 JUMP JUMPDEST PUSH2 0x47D JUMP JUMPDEST PUSH2 0x427 JUMP JUMPDEST PUSH2 0x3F4 JUMP JUMPDEST PUSH2 0x3C1 JUMP JUMPDEST PUSH2 0x38C JUMP JUMPDEST PUSH2 0x357 JUMP JUMPDEST PUSH2 0x2FB JUMP JUMPDEST PUSH2 0x2C6 JUMP JUMPDEST PUSH2 0x273 JUMP JUMPDEST PUSH2 0x1EE JUMP JUMPDEST PUSH2 0x1A3 JUMP JUMPDEST PUSH1 0xE0 SHR SWAP1 JUMP JUMPDEST PUSH1 0x40 MLOAD SWAP1 JUMP JUMPDEST PUSH1 0x0 DUP1 REVERT JUMPDEST PUSH1 0x0 DUP1 REVERT JUMPDEST PUSH1 0x1 DUP1 PUSH1 0xA0 SHL SUB AND SWAP1 JUMP JUMPDEST PUSH2 0x137 SWAP1 PUSH2 0x123 JUMP JUMPDEST SWAP1 JUMP JUMPDEST PUSH2 0x143 DUP2 PUSH2 0x12E JUMP JUMPDEST SUB PUSH2 0x14A JUMPI JUMP JUMPDEST PUSH1 0x0 DUP1 REVERT JUMPDEST SWAP1 POP CALLDATALOAD SWAP1 PUSH2 0x15C DUP3 PUSH2 0x13A JUMP JUMPDEST JUMP JUMPDEST SWAP1 PUSH1 0x20 DUP3 DUP3 SUB SLT PUSH2 0x178 JUMPI PUSH2 0x175 SWAP2 PUSH1 0x0 ADD PUSH2 0x14F JUMP JUMPDEST SWAP1 JUMP JUMPDEST PUSH2 0x11E JUMP JUMPDEST SWAP1 JUMP JUMPDEST PUSH2 0x189 SWAP1 PUSH2 0x17D JUMP JUMPDEST SWAP1 MSTORE JUMP JUMPDEST SWAP2 SWAP1 PUSH2 0x1A1 SWAP1 PUSH1 0x0 PUSH1 0x20 DUP6 ADD SWAP5 ADD SWAP1 PUSH2 0x180 JUMP JUMPDEST JUMP JUMPDEST CALLVALUE PUSH2 0x1D3 JUMPI PUSH2 0x1CF PUSH2 0x1BE PUSH2 0x1B9 CALLDATASIZE PUSH1 0x4 PUSH2 0x15E JUMP JUMPDEST PUSH2 0x601 JUMP JUMPDEST PUSH2 0x1C6 PUSH2 0x113 JUMP JUMPDEST SWAP2 DUP3 SWAP2 DUP3 PUSH2 0x18D JUMP JUMPDEST SUB SWAP1 RETURN JUMPDEST PUSH2 0x119 JUMP JUMPDEST PUSH1 0x0 SWAP2 SUB SLT PUSH2 0x1E3 JUMPI JUMP JUMPDEST PUSH2 0x11E JUMP JUMPDEST PUSH1 0x0 ADD SWAP1 JUMP JUMPDEST CALLVALUE PUSH2 0x21C JUMPI PUSH2 0x1FE CALLDATASIZE PUSH1 0x4 PUSH2 0x1D8 JUMP JUMPDEST PUSH2 0x206 PUSH2 0x672 JUMP JUMPDEST PUSH2 0x20E PUSH2 0x113 JUMP JUMPDEST DUP1 PUSH2 0x218 DUP2 PUSH2 0x1E8 JUMP JUMPDEST SUB SWAP1 RETURN JUMPDEST PUSH2 0x119 JUMP JUMPDEST PUSH2 0x22A DUP2 PUSH2 0x17D JUMP JUMPDEST SUB PUSH2 0x231 JUMPI JUMP JUMPDEST PUSH1 0x0 DUP1 REVERT JUMPDEST SWAP1 POP CALLDATALOAD SWAP1 PUSH2 0x243 DUP3 PUSH2 0x221 JUMP JUMPDEST JUMP JUMPDEST SWAP2 SWAP1 PUSH1 0x40 DUP4 DUP3 SUB SLT PUSH2 0x26E JUMPI DUP1 PUSH2 0x262 PUSH2 0x26B SWAP3 PUSH1 0x0 DUP7 ADD PUSH2 0x14F JUMP JUMPDEST SWAP4 PUSH1 0x20 ADD PUSH2 0x236 JUMP JUMPDEST SWAP1 JUMP JUMPDEST PUSH2 0x11E JUMP JUMPDEST CALLVALUE PUSH2 0x2A2 JUMPI PUSH2 0x28C PUSH2 0x286 CALLDATASIZE PUSH1 0x4 PUSH2 0x245 JUMP JUMPDEST SWAP1 PUSH2 0x862 JUMP JUMPDEST PUSH2 0x294 PUSH2 0x113 JUMP JUMPDEST DUP1 PUSH2 0x29E DUP2 PUSH2 0x1E8 JUMP JUMPDEST SUB SWAP1 RETURN JUMPDEST PUSH2 0x119 JUMP JUMPDEST SWAP1 PUSH1 0x20 DUP3 DUP3 SUB SLT PUSH2 0x2C1 JUMPI PUSH2 0x2BE SWAP2 PUSH1 0x0 ADD PUSH2 0x236 JUMP JUMPDEST SWAP1 JUMP JUMPDEST PUSH2 0x11E JUMP JUMPDEST CALLVALUE PUSH2 0x2F6 JUMPI PUSH2 0x2F2 PUSH2 0x2E1 PUSH2 0x2DC CALLDATASIZE PUSH1 0x4 PUSH2 0x2A7 JUMP JUMPDEST PUSH2 0x8A3 JUMP JUMPDEST PUSH2 0x2E9 PUSH2 0x113 JUMP JUMPDEST SWAP2 DUP3 SWAP2 DUP3 PUSH2 0x18D JUMP JUMPDEST SUB SWAP1 RETURN JUMPDEST PUSH2 0x119 JUMP JUMPDEST CALLVALUE PUSH2 0x32A JUMPI PUSH2 0x314 PUSH2 0x30E CALLDATASIZE PUSH1 0x4 PUSH2 0x245 JUMP JUMPDEST SWAP1 PUSH2 0x9D7 JUMP JUMPDEST PUSH2 0x31C PUSH2 0x113 JUMP JUMPDEST DUP1 PUSH2 0x326 DUP2 PUSH2 0x1E8 JUMP JUMPDEST SUB SWAP1 RETURN JUMPDEST PUSH2 0x119 JUMP JUMPDEST ISZERO ISZERO SWAP1 JUMP JUMPDEST PUSH2 0x33D SWAP1 PUSH2 0x32F JUMP JUMPDEST SWAP1 MSTORE JUMP JUMPDEST SWAP2 SWAP1 PUSH2 0x355 SWAP1 PUSH1 0x0 PUSH1 0x20 DUP6 ADD SWAP5 ADD SWAP1 PUSH2 0x334 JUMP JUMPDEST JUMP JUMPDEST CALLVALUE PUSH2 0x387 JUMPI PUSH2 0x367 CALLDATASIZE PUSH1 0x4 PUSH2 0x1D8 JUMP JUMPDEST PUSH2 0x383 PUSH2 0x372 PUSH2 0xA15 JUMP JUMPDEST PUSH2 0x37A PUSH2 0x113 JUMP JUMPDEST SWAP2 DUP3 SWAP2 DUP3 PUSH2 0x341 JUMP JUMPDEST SUB SWAP1 RETURN JUMPDEST PUSH2 0x119 JUMP JUMPDEST CALLVALUE PUSH2 0x3BC JUMPI PUSH2 0x3B8 PUSH2 0x3A7 PUSH2 0x3A2 CALLDATASIZE PUSH1 0x4 PUSH2 0x15E JUMP JUMPDEST PUSH2 0xA2B JUMP JUMPDEST PUSH2 0x3AF PUSH2 0x113 JUMP JUMPDEST SWAP2 DUP3 SWAP2 DUP3 PUSH2 0x18D JUMP JUMPDEST SUB SWAP1 RETURN JUMPDEST PUSH2 0x119 JUMP JUMPDEST CALLVALUE PUSH2 0x3EF JUMPI PUSH2 0x3D9 PUSH2 0x3D4 CALLDATASIZE PUSH1 0x4 PUSH2 0x2A7 JUMP JUMPDEST PUSH2 0xD95 JUMP JUMPDEST PUSH2 0x3E1 PUSH2 0x113 JUMP JUMPDEST DUP1 PUSH2 0x3EB DUP2 PUSH2 0x1E8 JUMP JUMPDEST SUB SWAP1 RETURN JUMPDEST PUSH2 0x119 JUMP JUMPDEST CALLVALUE PUSH2 0x422 JUMPI PUSH2 0x404 CALLDATASIZE PUSH1 0x4 PUSH2 0x1D8 JUMP JUMPDEST PUSH2 0x40C PUSH2 0xDEE JUMP JUMPDEST PUSH2 0x414 PUSH2 0x113 JUMP JUMPDEST DUP1 PUSH2 0x41E DUP2 PUSH2 0x1E8 JUMP JUMPDEST SUB SWAP1 RETURN JUMPDEST PUSH2 0x119 JUMP JUMPDEST CALLVALUE PUSH2 0x455 JUMPI PUSH2 0x437 CALLDATASIZE PUSH1 0x4 PUSH2 0x1D8 JUMP JUMPDEST PUSH2 0x43F PUSH2 0xE4A JUMP JUMPDEST PUSH2 0x447 PUSH2 0x113 JUMP JUMPDEST DUP1 PUSH2 0x451 DUP2 PUSH2 0x1E8 JUMP JUMPDEST SUB SWAP1 RETURN JUMPDEST PUSH2 0x119 JUMP JUMPDEST PUSH2 0x463 SWAP1 PUSH2 0x12E JUMP JUMPDEST SWAP1 MSTORE JUMP JUMPDEST SWAP2 SWAP1 PUSH2 0x47B SWAP1 PUSH1 0x0 PUSH1 0x20 DUP6 ADD SWAP5 ADD SWAP1 PUSH2 0x45A JUMP JUMPDEST JUMP JUMPDEST CALLVALUE PUSH2 0x4AD JUMPI PUSH2 0x48D CALLDATASIZE PUSH1 0x4 PUSH2 0x1D8 JUMP JUMPDEST PUSH2 0x4A9 PUSH2 0x498 PUSH2 0xE85 JUMP JUMPDEST PUSH2 0x4A0 PUSH2 0x113 JUMP JUMPDEST SWAP2 DUP3 SWAP2 DUP3 PUSH2 0x467 JUMP JUMPDEST SUB SWAP1 RETURN JUMPDEST PUSH2 0x119 JUMP JUMPDEST CALLVALUE PUSH2 0x4E0 JUMPI PUSH2 0x4CA PUSH2 0x4C5 CALLDATASIZE PUSH1 0x4 PUSH2 0x2A7 JUMP JUMPDEST PUSH2 0xEF4 JUMP JUMPDEST PUSH2 0x4D2 PUSH2 0x113 JUMP JUMPDEST DUP1 PUSH2 0x4DC DUP2 PUSH2 0x1E8 JUMP JUMPDEST SUB SWAP1 RETURN JUMPDEST PUSH2 0x119 JUMP JUMPDEST CALLVALUE PUSH2 0x513 JUMPI PUSH2 0x4FD PUSH2 0x4F8 CALLDATASIZE PUSH1 0x4 PUSH2 0x2A7 JUMP JUMPDEST PUSH2 0x116C JUMP JUMPDEST PUSH2 0x505 PUSH2 0x113 JUMP JUMPDEST DUP1 PUSH2 0x50F DUP2 PUSH2 0x1E8 JUMP JUMPDEST SUB SWAP1 RETURN JUMPDEST PUSH2 0x119 JUMP JUMPDEST CALLVALUE PUSH2 0x546 JUMPI PUSH2 0x530 PUSH2 0x52B CALLDATASIZE PUSH1 0x4 PUSH2 0x15E JUMP JUMPDEST PUSH2 0x11DF JUMP JUMPDEST PUSH2 0x538 PUSH2 0x113 JUMP JUMPDEST DUP1 PUSH2 0x542 DUP2 PUSH2 0x1E8 JUMP JUMPDEST SUB SWAP1 RETURN JUMPDEST PUSH2 0x119 JUMP JUMPDEST CALLVALUE PUSH2 0x579 JUMPI PUSH2 0x563 PUSH2 0x55E CALLDATASIZE PUSH1 0x4 PUSH2 0x2A7 JUMP JUMPDEST PUSH2 0x13ED JUMP JUMPDEST PUSH2 0x56B PUSH2 0x113 JUMP JUMPDEST DUP1 PUSH2 0x575 DUP2 PUSH2 0x1E8 JUMP JUMPDEST SUB SWAP1 RETURN JUMPDEST PUSH2 0x119 JUMP JUMPDEST PUSH1 0x0 DUP1 REVERT JUMPDEST PUSH1 0x0 SWAP1 JUMP JUMPDEST SWAP1 JUMP JUMPDEST PUSH2 0x59F PUSH2 0x59A PUSH2 0x5A4 SWAP3 PUSH2 0x123 JUMP JUMPDEST PUSH2 0x588 JUMP JUMPDEST PUSH2 0x123 JUMP JUMPDEST SWAP1 JUMP JUMPDEST PUSH2 0x5B0 SWAP1 PUSH2 0x58B JUMP JUMPDEST SWAP1 JUMP JUMPDEST PUSH2 0x5BC SWAP1 PUSH2 0x5A7 JUMP JUMPDEST SWAP1 JUMP JUMPDEST SWAP1 PUSH2 0x5C9 SWAP1 PUSH2 0x5B3 JUMP JUMPDEST PUSH1 0x0 MSTORE PUSH1 0x20 MSTORE PUSH1 0x40 PUSH1 0x0 KECCAK256 SWAP1 JUMP JUMPDEST PUSH1 0x0 SHR SWAP1 JUMP JUMPDEST SWAP1 JUMP JUMPDEST PUSH2 0x5EC PUSH2 0x5F1 SWAP2 PUSH2 0x5D7 JUMP JUMPDEST PUSH2 0x5DD JUMP JUMPDEST SWAP1 JUMP JUMPDEST PUSH2 0x5FE SWAP1 SLOAD PUSH2 0x5E0 JUMP JUMPDEST SWAP1 JUMP JUMPDEST PUSH2 0x618 PUSH2 0x61D SWAP2 PUSH2 0x610 PUSH2 0x583 JUMP JUMPDEST POP PUSH1 0x3 PUSH2 0x5BF JUMP JUMPDEST PUSH2 0x5F4 JUMP JUMPDEST SWAP1 JUMP JUMPDEST PUSH2 0x628 PUSH2 0x13F8 JUMP JUMPDEST PUSH2 0x630 PUSH2 0x632 JUMP JUMPDEST JUMP JUMPDEST PUSH2 0x63A PUSH2 0x14F5 JUMP JUMPDEST PUSH32 0xE5E3B3FB504C22CF5C42FA07D521225937514C654007E1F12646F89768D6F94 PUSH2 0x663 PUSH2 0x113 JUMP JUMPDEST DUP1 PUSH2 0x66D DUP2 PUSH2 0x1E8 JUMP JUMPDEST SUB SWAP1 LOG1 JUMP JUMPDEST PUSH2 0x67A PUSH2 0x620 JUMP JUMPDEST JUMP JUMPDEST SWAP1 PUSH2 0x68E SWAP2 PUSH2 0x689 PUSH2 0x13F8 JUMP JUMPDEST PUSH2 0x76A JUMP JUMPDEST JUMP JUMPDEST SWAP1 JUMP JUMPDEST PUSH2 0x6A7 PUSH2 0x6A2 PUSH2 0x6AC SWAP3 PUSH2 0x690 JUMP JUMPDEST PUSH2 0x588 JUMP JUMPDEST PUSH2 0x17D JUMP JUMPDEST SWAP1 JUMP JUMPDEST SWAP2 PUSH1 0x20 PUSH2 0x6D1 SWAP3 SWAP5 SWAP4 PUSH2 0x6CA PUSH1 0x40 DUP3 ADD SWAP7 PUSH1 0x0 DUP4 ADD SWAP1 PUSH2 0x180 JUMP JUMPDEST ADD SWAP1 PUSH2 0x180 JUMP JUMPDEST JUMP JUMPDEST PUSH4 0x4E487B71 PUSH1 0xE0 SHL PUSH1 0x0 MSTORE PUSH1 0x11 PUSH1 0x4 MSTORE PUSH1 0x24 PUSH1 0x0 REVERT JUMPDEST PUSH2 0x6F8 PUSH2 0x6FE SWAP2 SWAP4 SWAP3 SWAP4 PUSH2 0x17D JUMP JUMPDEST SWAP3 PUSH2 0x17D JUMP JUMPDEST DUP3 SUB SWAP2 DUP3 GT PUSH2 0x709 JUMPI JUMP JUMPDEST PUSH2 0x6D3 JUMP JUMPDEST PUSH1 0x0 SHL SWAP1 JUMP JUMPDEST SWAP1 PUSH2 0x721 PUSH1 0x0 NOT SWAP2 PUSH2 0x70E JUMP JUMPDEST SWAP2 DUP2 NOT AND SWAP2 AND OR SWAP1 JUMP JUMPDEST PUSH2 0x73F PUSH2 0x73A PUSH2 0x744 SWAP3 PUSH2 0x17D JUMP JUMPDEST PUSH2 0x588 JUMP JUMPDEST PUSH2 0x17D JUMP JUMPDEST SWAP1 JUMP JUMPDEST SWAP1 JUMP JUMPDEST SWAP1 PUSH2 0x75F PUSH2 0x75A PUSH2 0x766 SWAP3 PUSH2 0x72B JUMP JUMPDEST PUSH2 0x747 JUMP JUMPDEST DUP3 SLOAD PUSH2 0x714 JUMP JUMPDEST SWAP1 SSTORE JUMP JUMPDEST PUSH2 0x773 DUP2 PUSH2 0x14FF JUMP JUMPDEST DUP2 PUSH2 0x787 PUSH2 0x781 PUSH1 0x0 PUSH2 0x693 JUMP JUMPDEST SWAP2 PUSH2 0x17D JUMP JUMPDEST EQ PUSH2 0x845 JUMPI PUSH2 0x7A0 PUSH2 0x79B PUSH1 0x2 DUP4 SWAP1 PUSH2 0x5BF JUMP JUMPDEST PUSH2 0x5F4 JUMP JUMPDEST DUP1 PUSH2 0x7B3 PUSH2 0x7AD DUP6 PUSH2 0x17D JUMP JUMPDEST SWAP2 PUSH2 0x17D JUMP JUMPDEST LT PUSH2 0x825 JUMPI POP PUSH2 0x7E1 DUP3 PUSH2 0x7DB PUSH2 0x7CC PUSH1 0x2 DUP6 SWAP1 PUSH2 0x5BF JUMP JUMPDEST SWAP2 PUSH2 0x7D6 DUP4 PUSH2 0x5F4 JUMP JUMPDEST PUSH2 0x6E9 JUMP JUMPDEST SWAP1 PUSH2 0x74A JUMP JUMPDEST PUSH2 0x820 PUSH2 0x80E PUSH32 0xF9352367BD3BE481E8F66E7940F6EA5B57FEA7504271B1F2863A535443FD2BAB SWAP3 PUSH2 0x5B3 JUMP JUMPDEST SWAP3 PUSH2 0x817 PUSH2 0x113 JUMP JUMPDEST SWAP2 DUP3 SWAP2 DUP3 PUSH2 0x18D JUMP JUMPDEST SUB SWAP1 LOG2 JUMP JUMPDEST DUP3 PUSH2 0x841 PUSH1 0x0 SWAP3 DUP4 SWAP3 PUSH4 0x8059C747 PUSH1 0xE0 SHL DUP5 MSTORE PUSH1 0x4 DUP5 ADD PUSH2 0x6AF JUMP JUMPDEST SUB SWAP1 REVERT JUMPDEST PUSH1 0x0 PUSH4 0x162908E3 PUSH1 0xE1 SHL DUP2 MSTORE DUP1 PUSH2 0x85E PUSH1 0x4 DUP3 ADD PUSH2 0x1E8 JUMP JUMPDEST SUB SWAP1 REVERT JUMPDEST SWAP1 PUSH2 0x86C SWAP2 PUSH2 0x67C JUMP JUMPDEST JUMP JUMPDEST PUSH2 0x87D PUSH2 0x883 SWAP2 SWAP4 SWAP3 SWAP4 PUSH2 0x17D JUMP JUMPDEST SWAP3 PUSH2 0x17D JUMP JUMPDEST SWAP2 PUSH2 0x88F DUP4 DUP3 MUL PUSH2 0x17D JUMP JUMPDEST SWAP3 DUP2 DUP5 DIV EQ SWAP1 ISZERO OR ISZERO PUSH2 0x89E JUMPI JUMP JUMPDEST PUSH2 0x6D3 JUMP JUMPDEST PUSH2 0x8AB PUSH2 0x583 JUMP JUMPDEST POP PUSH2 0x8B6 PUSH1 0x4 PUSH2 0x5F4 JUMP JUMPDEST PUSH2 0x8C9 PUSH2 0x8C3 PUSH1 0x0 PUSH2 0x693 JUMP JUMPDEST SWAP2 PUSH2 0x17D JUMP JUMPDEST EQ PUSH2 0x8E5 JUMPI PUSH2 0x8E2 SWAP1 PUSH2 0x8DC PUSH1 0x4 PUSH2 0x5F4 JUMP JUMPDEST SWAP1 PUSH2 0x86E JUMP JUMPDEST SWAP1 JUMP JUMPDEST POP PUSH2 0x8F0 PUSH1 0x0 PUSH2 0x693 JUMP JUMPDEST SWAP1 JUMP JUMPDEST SWAP1 PUSH2 0x905 SWAP2 PUSH2 0x900 PUSH2 0x13F8 JUMP JUMPDEST PUSH2 0x92C JUMP JUMPDEST JUMP JUMPDEST PUSH2 0x916 PUSH2 0x91C SWAP2 SWAP4 SWAP3 SWAP4 PUSH2 0x17D JUMP JUMPDEST SWAP3 PUSH2 0x17D JUMP JUMPDEST DUP3 ADD DUP1 SWAP3 GT PUSH2 0x927 JUMPI JUMP JUMPDEST PUSH2 0x6D3 JUMP JUMPDEST PUSH2 0x935 DUP2 PUSH2 0x14FF JUMP JUMPDEST DUP2 PUSH2 0x949 PUSH2 0x943 PUSH1 0x0 PUSH2 0x693 JUMP JUMPDEST SWAP2 PUSH2 0x17D JUMP JUMPDEST EQ PUSH2 0x9BA JUMPI PUSH2 0x976 DUP3 PUSH2 0x970 PUSH2 0x961 PUSH1 0x2 DUP6 SWAP1 PUSH2 0x5BF JUMP JUMPDEST SWAP2 PUSH2 0x96B DUP4 PUSH2 0x5F4 JUMP JUMPDEST PUSH2 0x907 JUMP JUMPDEST SWAP1 PUSH2 0x74A JUMP JUMPDEST PUSH2 0x9B5 PUSH2 0x9A3 PUSH32 0xFE6FCB45ADAAA54F7E3491F6A7964049817F1E437F33587E634A4629FBCF3A6 SWAP3 PUSH2 0x5B3 JUMP JUMPDEST SWAP3 PUSH2 0x9AC PUSH2 0x113 JUMP JUMPDEST SWAP2 DUP3 SWAP2 DUP3 PUSH2 0x18D JUMP JUMPDEST SUB SWAP1 LOG2 JUMP JUMPDEST PUSH1 0x0 PUSH4 0x162908E3 PUSH1 0xE1 SHL DUP2 MSTORE DUP1 PUSH2 0x9D3 PUSH1 0x4 DUP3 ADD PUSH2 0x1E8 JUMP JUMPDEST SUB SWAP1 REVERT JUMPDEST SWAP1 PUSH2 0x9E1 SWAP2 PUSH2 0x8F3 JUMP JUMPDEST JUMP JUMPDEST PUSH1 0x0 SWAP1 JUMP JUMPDEST PUSH1 0xA0 SHR SWAP1 JUMP JUMPDEST PUSH1 0xFF AND SWAP1 JUMP JUMPDEST PUSH2 0xA00 PUSH2 0xA05 SWAP2 PUSH2 0x9E8 JUMP JUMPDEST PUSH2 0x9EE JUMP JUMPDEST SWAP1 JUMP JUMPDEST PUSH2 0xA12 SWAP1 SLOAD PUSH2 0x9F4 JUMP JUMPDEST SWAP1 JUMP JUMPDEST PUSH2 0xA1D PUSH2 0x9E3 JUMP JUMPDEST POP PUSH2 0xA28 PUSH1 0x0 PUSH2 0xA08 JUMP JUMPDEST SWAP1 JUMP JUMPDEST PUSH2 0xA42 PUSH2 0xA47 SWAP2 PUSH2 0xA3A PUSH2 0x583 JUMP JUMPDEST POP PUSH1 0x2 PUSH2 0x5BF JUMP JUMPDEST PUSH2 0x5F4 JUMP JUMPDEST SWAP1 JUMP JUMPDEST PUSH2 0xA5B SWAP1 PUSH2 0xA56 PUSH2 0x153E JUMP JUMPDEST PUSH2 0xA5D JUMP JUMPDEST JUMP JUMPDEST PUSH2 0xA6E SWAP1 PUSH2 0xA69 PUSH2 0x1595 JUMP JUMPDEST PUSH2 0xB4A JUMP JUMPDEST PUSH2 0xA76 PUSH2 0x161A JUMP JUMPDEST JUMP JUMPDEST PUSH1 0x1 DUP1 PUSH1 0xA0 SHL SUB AND SWAP1 JUMP JUMPDEST PUSH2 0xA8F PUSH2 0xA94 SWAP2 PUSH2 0x5D7 JUMP JUMPDEST PUSH2 0xA78 JUMP JUMPDEST SWAP1 JUMP JUMPDEST PUSH2 0xAA1 SWAP1 SLOAD PUSH2 0xA83 JUMP JUMPDEST SWAP1 JUMP JUMPDEST PUSH2 0xAAD SWAP1 PUSH2 0x5A7 JUMP JUMPDEST SWAP1 JUMP JUMPDEST PUSH2 0xAB9 SWAP1 PUSH2 0x5A7 JUMP JUMPDEST SWAP1 JUMP JUMPDEST PUSH1 0x1F DUP1 NOT SWAP2 ADD AND SWAP1 JUMP JUMPDEST PUSH4 0x4E487B71 PUSH1 0xE0 SHL PUSH1 0x0 MSTORE PUSH1 0x41 PUSH1 0x4 MSTORE PUSH1 0x24 PUSH1 0x0 REVERT JUMPDEST SWAP1 PUSH2 0xAE6 SWAP1 PUSH2 0xABC JUMP JUMPDEST DUP2 ADD SWAP1 DUP2 LT PUSH8 0xFFFFFFFFFFFFFFFF DUP3 GT OR PUSH2 0xB00 JUMPI PUSH1 0x40 MSTORE JUMP JUMPDEST PUSH2 0xAC6 JUMP JUMPDEST PUSH1 0xE0 SHL SWAP1 JUMP JUMPDEST SWAP1 POP MLOAD SWAP1 PUSH2 0xB18 DUP3 PUSH2 0x221 JUMP JUMPDEST JUMP JUMPDEST SWAP1 PUSH1 0x20 DUP3 DUP3 SUB SLT PUSH2 0xB34 JUMPI PUSH2 0xB31 SWAP2 PUSH1 0x0 ADD PUSH2 0xB0B JUMP JUMPDEST SWAP1 JUMP JUMPDEST PUSH2 0x11E JUMP JUMPDEST PUSH2 0xB41 PUSH2 0x113 JUMP JUMPDEST RETURNDATASIZE PUSH1 0x0 DUP3 RETURNDATACOPY RETURNDATASIZE SWAP1 REVERT JUMPDEST PUSH2 0xB53 CALLER PUSH2 0x14FF JUMP JUMPDEST DUP1 PUSH2 0xB67 PUSH2 0xB61 PUSH1 0x0 PUSH2 0x693 JUMP JUMPDEST SWAP2 PUSH2 0x17D JUMP JUMPDEST EQ PUSH2 0xD78 JUMPI PUSH2 0xB76 PUSH1 0x4 PUSH2 0x5F4 JUMP JUMPDEST PUSH2 0xB89 PUSH2 0xB83 PUSH1 0x0 PUSH2 0x693 JUMP JUMPDEST SWAP2 PUSH2 0x17D JUMP JUMPDEST EQ PUSH2 0xD5B JUMPI PUSH2 0xBA2 PUSH2 0xB9D PUSH1 0x2 CALLER SWAP1 PUSH2 0x5BF JUMP JUMPDEST PUSH2 0x5F4 JUMP JUMPDEST DUP1 PUSH2 0xBB5 PUSH2 0xBAF DUP5 PUSH2 0x17D JUMP JUMPDEST SWAP2 PUSH2 0x17D JUMP JUMPDEST LT PUSH2 0xD3B JUMPI POP PUSH2 0xBCF DUP2 PUSH2 0xBC9 PUSH1 0x4 PUSH2 0x5F4 JUMP JUMPDEST SWAP1 PUSH2 0x86E JUMP JUMPDEST SWAP1 PUSH2 0xC19 PUSH1 0x20 PUSH2 0xBE7 PUSH2 0xBE2 PUSH1 0x5 PUSH2 0xA97 JUMP JUMPDEST PUSH2 0xAA4 JUMP JUMPDEST PUSH4 0x70A08231 SWAP1 PUSH2 0xC0E PUSH2 0xBF9 ADDRESS PUSH2 0xAB0 JUMP JUMPDEST SWAP3 PUSH2 0xC02 PUSH2 0x113 JUMP JUMPDEST SWAP6 DUP7 SWAP5 DUP6 SWAP4 DUP5 SWAP4 PUSH2 0xB05 JUMP JUMPDEST DUP4 MSTORE PUSH1 0x4 DUP4 ADD PUSH2 0x467 JUMP JUMPDEST SUB SWAP2 GAS STATICCALL SWAP1 DUP2 ISZERO PUSH2 0xD36 JUMPI PUSH1 0x0 SWAP2 PUSH2 0xD08 JUMPI JUMPDEST POP DUP1 PUSH2 0xC40 PUSH2 0xC3A DUP6 PUSH2 0x17D JUMP JUMPDEST SWAP2 PUSH2 0x17D JUMP JUMPDEST LT PUSH2 0xCE8 JUMPI POP PUSH2 0xC6E DUP2 PUSH2 0xC68 PUSH2 0xC59 PUSH1 0x2 CALLER SWAP1 PUSH2 0x5BF JUMP JUMPDEST SWAP2 PUSH2 0xC63 DUP4 PUSH2 0x5F4 JUMP JUMPDEST PUSH2 0x6E9 JUMP JUMPDEST SWAP1 PUSH2 0x74A JUMP JUMPDEST PUSH2 0xC96 DUP2 PUSH2 0xC90 PUSH2 0xC81 PUSH1 0x3 CALLER SWAP1 PUSH2 0x5BF JUMP JUMPDEST SWAP2 PUSH2 0xC8B DUP4 PUSH2 0x5F4 JUMP JUMPDEST PUSH2 0x907 JUMP JUMPDEST SWAP1 PUSH2 0x74A JUMP JUMPDEST PUSH2 0xCA1 CALLER DUP4 SWAP1 PUSH2 0x162E JUMP JUMPDEST CALLER SWAP1 SWAP2 PUSH2 0xCCE PUSH32 0xEB9A8C68A32BC6989217E69F932CF098FF5D0E2F11305800394C73B554D2CE9E SWAP3 PUSH2 0x5B3 JUMP JUMPDEST SWAP3 PUSH2 0xCE3 PUSH2 0xCDA PUSH2 0x113 JUMP JUMPDEST SWAP3 DUP4 SWAP3 DUP4 PUSH2 0x6AF JUMP JUMPDEST SUB SWAP1 LOG2 JUMP JUMPDEST DUP3 PUSH2 0xD04 PUSH1 0x0 SWAP3 DUP4 SWAP3 PUSH4 0x722F6B3 PUSH1 0xE1 SHL DUP5 MSTORE PUSH1 0x4 DUP5 ADD PUSH2 0x6AF JUMP JUMPDEST SUB SWAP1 REVERT JUMPDEST PUSH2 0xD29 SWAP2 POP PUSH1 0x20 RETURNDATASIZE DUP2 GT PUSH2 0xD2F JUMPI JUMPDEST PUSH2 0xD21 DUP2 DUP4 PUSH2 0xADC JUMP JUMPDEST DUP2 ADD SWAP1 PUSH2 0xB1A JUMP JUMPDEST CODESIZE PUSH2 0xC2C JUMP JUMPDEST POP RETURNDATASIZE PUSH2 0xD17 JUMP JUMPDEST PUSH2 0xB39 JUMP JUMPDEST SWAP1 PUSH2 0xD57 PUSH1 0x0 SWAP3 DUP4 SWAP3 PUSH4 0x8059C747 PUSH1 0xE0 SHL DUP5 MSTORE PUSH1 0x4 DUP5 ADD PUSH2 0x6AF JUMP JUMPDEST SUB SWAP1 REVERT JUMPDEST PUSH1 0x0 PUSH4 0x62F216E5 PUSH1 0xE0 SHL DUP2 MSTORE DUP1 PUSH2 0xD74 PUSH1 0x4 DUP3 ADD PUSH2 0x1E8 JUMP JUMPDEST SUB SWAP1 REVERT JUMPDEST PUSH1 0x0 PUSH4 0x162908E3 PUSH1 0xE1 SHL DUP2 MSTORE DUP1 PUSH2 0xD91 PUSH1 0x4 DUP3 ADD PUSH2 0x1E8 JUMP JUMPDEST SUB SWAP1 REVERT JUMPDEST PUSH2 0xD9E SWAP1 PUSH2 0xA4A JUMP JUMPDEST JUMP JUMPDEST PUSH2 0xDA8 PUSH2 0x13F8 JUMP JUMPDEST PUSH2 0xDB0 PUSH2 0xDDA JUMP JUMPDEST JUMP JUMPDEST PUSH2 0xDC6 PUSH2 0xDC1 PUSH2 0xDCB SWAP3 PUSH2 0x690 JUMP JUMPDEST PUSH2 0x588 JUMP JUMPDEST PUSH2 0x123 JUMP JUMPDEST SWAP1 JUMP JUMPDEST PUSH2 0xDD7 SWAP1 PUSH2 0xDB2 JUMP JUMPDEST SWAP1 JUMP JUMPDEST PUSH2 0xDEC PUSH2 0xDE7 PUSH1 0x0 PUSH2 0xDCE JUMP JUMPDEST PUSH2 0x17B9 JUMP JUMPDEST JUMP JUMPDEST PUSH2 0xDF6 PUSH2 0xDA0 JUMP JUMPDEST JUMP JUMPDEST PUSH2 0xE00 PUSH2 0x13F8 JUMP JUMPDEST PUSH2 0xE08 PUSH2 0xE0A JUMP JUMPDEST JUMP JUMPDEST PUSH2 0xE12 PUSH2 0x187B JUMP JUMPDEST PUSH32 0xAB35696F06E428EBC5CEBA8CD17F8FED287BAF43440206D1943AF1EE53E6D267 PUSH2 0xE3B PUSH2 0x113 JUMP JUMPDEST DUP1 PUSH2 0xE45 DUP2 PUSH2 0x1E8 JUMP JUMPDEST SUB SWAP1 LOG1 JUMP JUMPDEST PUSH2 0xE52 PUSH2 0xDF8 JUMP JUMPDEST JUMP JUMPDEST PUSH1 0x0 SWAP1 JUMP JUMPDEST PUSH1 0x1 DUP1 PUSH1 0xA0 SHL SUB AND SWAP1 JUMP JUMPDEST PUSH2 0xE70 PUSH2 0xE75 SWAP2 PUSH2 0x5D7 JUMP JUMPDEST PUSH2 0xE59 JUMP JUMPDEST SWAP1 JUMP JUMPDEST PUSH2 0xE82 SWAP1 SLOAD PUSH2 0xE64 JUMP JUMPDEST SWAP1 JUMP JUMPDEST PUSH2 0xE8D PUSH2 0xE54 JUMP JUMPDEST POP PUSH2 0xE98 PUSH1 0x0 PUSH2 0xE78 JUMP JUMPDEST SWAP1 JUMP JUMPDEST PUSH2 0xEAC SWAP1 PUSH2 0xEA7 PUSH2 0x13F8 JUMP JUMPDEST PUSH2 0xEAE JUMP JUMPDEST JUMP JUMPDEST PUSH2 0xEB9 DUP2 PUSH1 0x4 PUSH2 0x74A JUMP JUMPDEST PUSH2 0xEEF PUSH32 0x972ABA470577C14606BBF4BBDEC1FED4925F242FCEF40B4A8D242983365D0291 SWAP2 PUSH2 0xEE6 PUSH2 0x113 JUMP JUMPDEST SWAP2 DUP3 SWAP2 DUP3 PUSH2 0x18D JUMP JUMPDEST SUB SWAP1 LOG1 JUMP JUMPDEST PUSH2 0xEFD SWAP1 PUSH2 0xE9B JUMP JUMPDEST JUMP JUMPDEST PUSH2 0xF10 SWAP1 PUSH2 0xF0B PUSH2 0x13F8 JUMP JUMPDEST PUSH2 0xF79 JUMP JUMPDEST JUMP JUMPDEST PUSH2 0xF1B DUP2 PUSH2 0x32F JUMP JUMPDEST SUB PUSH2 0xF22 JUMPI JUMP JUMPDEST PUSH1 0x0 DUP1 REVERT JUMPDEST SWAP1 POP MLOAD SWAP1 PUSH2 0xF34 DUP3 PUSH2 0xF12 JUMP JUMPDEST JUMP JUMPDEST SWAP1 PUSH1 0x20 DUP3 DUP3 SUB SLT PUSH2 0xF50 JUMPI PUSH2 0xF4D SWAP2 PUSH1 0x0 ADD PUSH2 0xF27 JUMP JUMPDEST SWAP1 JUMP JUMPDEST PUSH2 0x11E JUMP JUMPDEST SWAP2 PUSH1 0x20 PUSH2 0xF77 SWAP3 SWAP5 SWAP4 PUSH2 0xF70 PUSH1 0x40 DUP3 ADD SWAP7 PUSH1 0x0 DUP4 ADD SWAP1 PUSH2 0x45A JUMP JUMPDEST ADD SWAP1 PUSH2 0x180 JUMP JUMPDEST JUMP JUMPDEST DUP1 PUSH2 0xF8D PUSH2 0xF87 PUSH1 0x0 PUSH2 0x693 JUMP JUMPDEST SWAP2 PUSH2 0x17D JUMP JUMPDEST EQ PUSH2 0x114F JUMPI PUSH2 0xFDB PUSH1 0x20 PUSH2 0xFA9 PUSH2 0xFA4 PUSH1 0x5 PUSH2 0xA97 JUMP JUMPDEST PUSH2 0xAA4 JUMP JUMPDEST PUSH4 0x70A08231 SWAP1 PUSH2 0xFD0 PUSH2 0xFBB ADDRESS PUSH2 0xAB0 JUMP JUMPDEST SWAP3 PUSH2 0xFC4 PUSH2 0x113 JUMP JUMPDEST SWAP6 DUP7 SWAP5 DUP6 SWAP4 DUP5 SWAP4 PUSH2 0xB05 JUMP JUMPDEST DUP4 MSTORE PUSH1 0x4 DUP4 ADD PUSH2 0x467 JUMP JUMPDEST SUB SWAP2 GAS STATICCALL SWAP1 DUP2 ISZERO PUSH2 0x114A JUMPI PUSH1 0x0 SWAP2 PUSH2 0x111C JUMPI JUMPDEST POP DUP1 PUSH2 0x1002 PUSH2 0xFFC DUP5 PUSH2 0x17D JUMP JUMPDEST SWAP2 PUSH2 0x17D JUMP JUMPDEST LT PUSH2 0x10FC JUMPI PUSH2 0x1019 PUSH2 0x1014 PUSH1 0x5 PUSH2 0xA97 JUMP JUMPDEST PUSH2 0xAA4 JUMP JUMPDEST PUSH1 0x20 PUSH4 0xA9059CBB SWAP2 CALLER SWAP1 PUSH2 0x1041 PUSH1 0x0 DUP8 SWAP6 PUSH2 0x104C PUSH2 0x1035 PUSH2 0x113 JUMP JUMPDEST SWAP8 DUP9 SWAP7 DUP8 SWAP6 DUP7 SWAP5 PUSH2 0xB05 JUMP JUMPDEST DUP5 MSTORE PUSH1 0x4 DUP5 ADD PUSH2 0xF55 JUMP JUMPDEST SUB SWAP3 GAS CALL DUP1 ISZERO PUSH2 0x10F7 JUMPI PUSH2 0x1069 SWAP2 PUSH1 0x0 SWAP2 PUSH2 0x10C9 JUMPI JUMPDEST POP ISZERO PUSH2 0x32F JUMP JUMPDEST PUSH2 0x10A9 JUMPI POP PUSH2 0x10A4 PUSH32 0x4EACC637A5FB1DBBC94595A9432E0A8D75AE5D51D189021963A6CC8575465DDF SWAP2 PUSH2 0x109B PUSH2 0x113 JUMP JUMPDEST SWAP2 DUP3 SWAP2 DUP3 PUSH2 0x18D JUMP JUMPDEST SUB SWAP1 LOG1 JUMP JUMPDEST SWAP1 PUSH2 0x10C5 PUSH1 0x0 SWAP3 DUP4 SWAP3 PUSH4 0x722F6B3 PUSH1 0xE1 SHL DUP5 MSTORE PUSH1 0x4 DUP5 ADD PUSH2 0x6AF JUMP JUMPDEST SUB SWAP1 REVERT JUMPDEST PUSH2 0x10EA SWAP2 POP PUSH1 0x20 RETURNDATASIZE DUP2 GT PUSH2 0x10F0 JUMPI JUMPDEST PUSH2 0x10E2 DUP2 DUP4 PUSH2 0xADC JUMP JUMPDEST DUP2 ADD SWAP1 PUSH2 0xF36 JUMP JUMPDEST CODESIZE PUSH2 0x1062 JUMP JUMPDEST POP RETURNDATASIZE PUSH2 0x10D8 JUMP JUMPDEST PUSH2 0xB39 JUMP JUMPDEST SWAP1 PUSH2 0x1118 PUSH1 0x0 SWAP3 DUP4 SWAP3 PUSH4 0x722F6B3 PUSH1 0xE1 SHL DUP5 MSTORE PUSH1 0x4 DUP5 ADD PUSH2 0x6AF JUMP JUMPDEST SUB SWAP1 REVERT JUMPDEST PUSH2 0x113D SWAP2 POP PUSH1 0x20 RETURNDATASIZE DUP2 GT PUSH2 0x1143 JUMPI JUMPDEST PUSH2 0x1135 DUP2 DUP4 PUSH2 0xADC JUMP JUMPDEST DUP2 ADD SWAP1 PUSH2 0xB1A JUMP JUMPDEST CODESIZE PUSH2 0xFEE JUMP JUMPDEST POP RETURNDATASIZE PUSH2 0x112B JUMP JUMPDEST PUSH2 0xB39 JUMP JUMPDEST PUSH1 0x0 PUSH4 0x162908E3 PUSH1 0xE1 SHL DUP2 MSTORE DUP1 PUSH2 0x1168 PUSH1 0x4 DUP3 ADD PUSH2 0x1E8 JUMP JUMPDEST SUB SWAP1 REVERT JUMPDEST PUSH2 0x1175 SWAP1 PUSH2 0xEFF JUMP JUMPDEST JUMP JUMPDEST PUSH2 0x1188 SWAP1 PUSH2 0x1183 PUSH2 0x13F8 JUMP JUMPDEST PUSH2 0x118A JUMP JUMPDEST JUMP JUMPDEST DUP1 PUSH2 0x11A6 PUSH2 0x11A0 PUSH2 0x119B PUSH1 0x0 PUSH2 0xDCE JUMP JUMPDEST PUSH2 0x12E JUMP JUMPDEST SWAP2 PUSH2 0x12E JUMP JUMPDEST EQ PUSH2 0x11B6 JUMPI PUSH2 0x11B4 SWAP1 PUSH2 0x17B9 JUMP JUMPDEST JUMP JUMPDEST PUSH2 0x11DB PUSH2 0x11C3 PUSH1 0x0 PUSH2 0xDCE JUMP JUMPDEST PUSH1 0x0 SWAP2 DUP3 SWAP2 PUSH4 0x1E4FBDF7 PUSH1 0xE0 SHL DUP4 MSTORE PUSH1 0x4 DUP4 ADD PUSH2 0x467 JUMP JUMPDEST SUB SWAP1 REVERT JUMPDEST PUSH2 0x11E8 SWAP1 PUSH2 0x1177 JUMP JUMPDEST JUMP JUMPDEST PUSH2 0x11FB SWAP1 PUSH2 0x11F6 PUSH2 0x13F8 JUMP JUMPDEST PUSH2 0x1230 JUMP JUMPDEST JUMP JUMPDEST PUSH1 0x40 SWAP1 PUSH2 0x1227 PUSH2 0x122E SWAP5 SWAP7 SWAP6 SWAP4 SWAP7 PUSH2 0x121D PUSH1 0x60 DUP5 ADD SWAP9 PUSH1 0x0 DUP6 ADD SWAP1 PUSH2 0x45A JUMP JUMPDEST PUSH1 0x20 DUP4 ADD SWAP1 PUSH2 0x45A JUMP JUMPDEST ADD SWAP1 PUSH2 0x180 JUMP JUMPDEST JUMP JUMPDEST DUP1 PUSH2 0x1244 PUSH2 0x123E PUSH1 0x0 PUSH2 0x693 JUMP JUMPDEST SWAP2 PUSH2 0x17D JUMP JUMPDEST EQ PUSH2 0x13D0 JUMPI PUSH2 0x125B PUSH2 0x1256 PUSH1 0x5 PUSH2 0xA97 JUMP JUMPDEST PUSH2 0xAA4 JUMP JUMPDEST PUSH1 0x20 PUSH4 0x23B872DD SWAP2 CALLER SWAP1 PUSH2 0x128C PUSH1 0x0 PUSH2 0x1273 ADDRESS PUSH2 0xAB0 JUMP JUMPDEST SWAP6 PUSH2 0x1297 DUP9 PUSH2 0x1280 PUSH2 0x113 JUMP JUMPDEST SWAP9 DUP10 SWAP8 DUP9 SWAP7 DUP8 SWAP6 PUSH2 0xB05 JUMP JUMPDEST DUP6 MSTORE PUSH1 0x4 DUP6 ADD PUSH2 0x11FD JUMP JUMPDEST SUB SWAP3 GAS CALL DUP1 ISZERO PUSH2 0x13CB JUMPI PUSH2 0x12B4 SWAP2 PUSH1 0x0 SWAP2 PUSH2 0x139D JUMPI JUMPDEST POP ISZERO PUSH2 0x32F JUMP JUMPDEST PUSH2 0x12F3 JUMPI PUSH2 0x12EE PUSH32 0xF920186940A9C60FF07B508B49BA5DCA2C647B29AEBFA69964B44E5E873A62C SWAP2 PUSH2 0x12E5 PUSH2 0x113 JUMP JUMPDEST SWAP2 DUP3 SWAP2 DUP3 PUSH2 0x18D JUMP JUMPDEST SUB SWAP1 LOG1 JUMP JUMPDEST PUSH2 0x1335 SWAP1 PUSH1 0x20 PUSH2 0x130B PUSH2 0x1306 PUSH1 0x5 PUSH2 0xA97 JUMP JUMPDEST PUSH2 0xAA4 JUMP JUMPDEST PUSH4 0x70A08231 SWAP1 PUSH2 0x132A CALLER SWAP3 PUSH2 0x131E PUSH2 0x113 JUMP JUMPDEST SWAP7 DUP8 SWAP5 DUP6 SWAP4 DUP5 SWAP4 PUSH2 0xB05 JUMP JUMPDEST DUP4 MSTORE PUSH1 0x4 DUP4 ADD PUSH2 0x467 JUMP JUMPDEST SUB SWAP2 GAS STATICCALL SWAP2 DUP3 ISZERO PUSH2 0x1398 JUMPI PUSH1 0x0 SWAP3 PUSH2 0x1368 JUMPI JUMPDEST POP PUSH2 0x1364 PUSH1 0x0 SWAP3 DUP4 SWAP3 PUSH4 0x722F6B3 PUSH1 0xE1 SHL DUP5 MSTORE PUSH1 0x4 DUP5 ADD PUSH2 0x6AF JUMP JUMPDEST SUB SWAP1 REVERT JUMPDEST PUSH2 0x138A SWAP2 SWAP3 POP PUSH1 0x20 RETURNDATASIZE DUP2 GT PUSH2 0x1391 JUMPI JUMPDEST PUSH2 0x1382 DUP2 DUP4 PUSH2 0xADC JUMP JUMPDEST DUP2 ADD SWAP1 PUSH2 0xB1A JUMP JUMPDEST SWAP1 DUP3 PUSH2 0x1348 JUMP JUMPDEST POP RETURNDATASIZE PUSH2 0x1378 JUMP JUMPDEST PUSH2 0xB39 JUMP JUMPDEST PUSH2 0x13BE SWAP2 POP PUSH1 0x20 RETURNDATASIZE DUP2 GT PUSH2 0x13C4 JUMPI JUMPDEST PUSH2 0x13B6 DUP2 DUP4 PUSH2 0xADC JUMP JUMPDEST DUP2 ADD SWAP1 PUSH2 0xF36 JUMP JUMPDEST CODESIZE PUSH2 0x12AD JUMP JUMPDEST POP RETURNDATASIZE PUSH2 0x13AC JUMP JUMPDEST PUSH2 0xB39 JUMP JUMPDEST PUSH1 0x0 PUSH4 0x162908E3 PUSH1 0xE1 SHL DUP2 MSTORE DUP1 PUSH2 0x13E9 PUSH1 0x4 DUP3 ADD PUSH2 0x1E8 JUMP JUMPDEST SUB SWAP1 REVERT JUMPDEST PUSH2 0x13F6 SWAP1 PUSH2 0x11EA JUMP JUMPDEST JUMP JUMPDEST PUSH2 0x1400 PUSH2 0xE85 JUMP JUMPDEST PUSH2 0x1419 PUSH2 0x1413 PUSH2 0x140E PUSH2 0x1885 JUMP JUMPDEST PUSH2 0x12E JUMP JUMPDEST SWAP2 PUSH2 0x12E JUMP JUMPDEST SUB PUSH2 0x1420 JUMPI JUMP JUMPDEST PUSH2 0x1443 PUSH2 0x142B PUSH2 0x1885 JUMP JUMPDEST PUSH1 0x0 SWAP2 DUP3 SWAP2 PUSH4 0x118CDAA7 PUSH1 0xE0 SHL DUP4 MSTORE PUSH1 0x4 DUP4 ADD PUSH2 0x467 JUMP JUMPDEST SUB SWAP1 REVERT JUMPDEST PUSH2 0x144F PUSH2 0x1892 JUMP JUMPDEST PUSH2 0x1457 PUSH2 0x14A7 JUMP JUMPDEST JUMP JUMPDEST PUSH1 0xA0 SHL SWAP1 JUMP JUMPDEST SWAP1 PUSH2 0x146E PUSH1 0xFF PUSH1 0xA0 SHL SWAP2 PUSH2 0x1459 JUMP JUMPDEST SWAP2 DUP2 NOT AND SWAP2 AND OR SWAP1 JUMP JUMPDEST PUSH2 0x1481 SWAP1 PUSH2 0x32F JUMP JUMPDEST SWAP1 JUMP JUMPDEST SWAP1 JUMP JUMPDEST SWAP1 PUSH2 0x149C PUSH2 0x1497 PUSH2 0x14A3 SWAP3 PUSH2 0x1478 JUMP JUMPDEST PUSH2 0x1484 JUMP JUMPDEST DUP3 SLOAD PUSH2 0x145F JUMP JUMPDEST SWAP1 SSTORE JUMP JUMPDEST PUSH2 0x14B2 PUSH1 0x0 DUP1 PUSH2 0x1487 JUMP JUMPDEST PUSH2 0x14BA PUSH2 0x1885 JUMP JUMPDEST PUSH2 0x14F0 PUSH32 0x5DB9EE0A495BF2E6FF9C91A7834C1BA4FDD244A5E8AA4E537BD38AEAE4B073AA SWAP2 PUSH2 0x14E7 PUSH2 0x113 JUMP JUMPDEST SWAP2 DUP3 SWAP2 DUP3 PUSH2 0x467 JUMP JUMPDEST SUB SWAP1 LOG1 JUMP JUMPDEST PUSH2 0x14FD PUSH2 0x1447 JUMP JUMPDEST JUMP JUMPDEST PUSH2 0x151A PUSH2 0x1514 PUSH2 0x150F PUSH1 0x0 PUSH2 0xDCE JUMP JUMPDEST PUSH2 0x12E JUMP JUMPDEST SWAP2 PUSH2 0x12E JUMP JUMPDEST EQ PUSH2 0x1521 JUMPI JUMP JUMPDEST PUSH1 0x0 PUSH4 0xE6C4247B PUSH1 0xE0 SHL DUP2 MSTORE DUP1 PUSH2 0x153A PUSH1 0x4 DUP3 ADD PUSH2 0x1E8 JUMP JUMPDEST SUB SWAP1 REVERT JUMPDEST PUSH2 0x1546 PUSH2 0xA15 JUMP JUMPDEST PUSH2 0x154C JUMPI JUMP JUMPDEST PUSH1 0x0 PUSH4 0xD93C0665 PUSH1 0xE0 SHL DUP2 MSTORE DUP1 PUSH2 0x1565 PUSH1 0x4 DUP3 ADD PUSH2 0x1E8 JUMP JUMPDEST SUB SWAP1 REVERT JUMPDEST SWAP1 JUMP JUMPDEST PUSH2 0x1580 PUSH2 0x157B PUSH2 0x1585 SWAP3 PUSH2 0x1569 JUMP JUMPDEST PUSH2 0x588 JUMP JUMPDEST PUSH2 0x17D JUMP JUMPDEST SWAP1 JUMP JUMPDEST PUSH2 0x1592 PUSH1 0x2 PUSH2 0x156C JUMP JUMPDEST SWAP1 JUMP JUMPDEST PUSH2 0x159F PUSH1 0x1 PUSH2 0x5F4 JUMP JUMPDEST PUSH2 0x15B8 PUSH2 0x15B2 PUSH2 0x15AD PUSH2 0x1588 JUMP JUMPDEST PUSH2 0x17D JUMP JUMPDEST SWAP2 PUSH2 0x17D JUMP JUMPDEST EQ PUSH2 0x15D1 JUMPI PUSH2 0x15CF PUSH2 0x15C8 PUSH2 0x1588 JUMP JUMPDEST PUSH1 0x1 PUSH2 0x74A JUMP JUMPDEST JUMP JUMPDEST PUSH1 0x0 PUSH4 0x3EE5AEB5 PUSH1 0xE0 SHL DUP2 MSTORE DUP1 PUSH2 0x15EA PUSH1 0x4 DUP3 ADD PUSH2 0x1E8 JUMP JUMPDEST SUB SWAP1 REVERT JUMPDEST SWAP1 JUMP JUMPDEST PUSH2 0x1605 PUSH2 0x1600 PUSH2 0x160A SWAP3 PUSH2 0x15EE JUMP JUMPDEST PUSH2 0x588 JUMP JUMPDEST PUSH2 0x17D JUMP JUMPDEST SWAP1 JUMP JUMPDEST PUSH2 0x1617 PUSH1 0x1 PUSH2 0x15F1 JUMP JUMPDEST SWAP1 JUMP JUMPDEST PUSH2 0x162C PUSH2 0x1625 PUSH2 0x160D JUMP JUMPDEST PUSH1 0x1 PUSH2 0x74A JUMP JUMPDEST JUMP JUMPDEST PUSH1 0x20 PUSH2 0x1642 PUSH2 0x163D PUSH1 0x5 PUSH2 0xA97 JUMP JUMPDEST PUSH2 0xAA4 JUMP JUMPDEST PUSH4 0xA9059CBB SWAP3 SWAP1 PUSH2 0x1667 PUSH1 0x0 DUP7 SWAP6 PUSH2 0x1672 PUSH2 0x165B PUSH2 0x113 JUMP JUMPDEST SWAP8 DUP9 SWAP7 DUP8 SWAP6 DUP7 SWAP5 PUSH2 0xB05 JUMP JUMPDEST DUP5 MSTORE PUSH1 0x4 DUP5 ADD PUSH2 0xF55 JUMP JUMPDEST SUB SWAP3 GAS CALL DUP1 ISZERO PUSH2 0x1776 JUMPI PUSH2 0x168F SWAP2 PUSH1 0x0 SWAP2 PUSH2 0x1748 JUMPI JUMPDEST POP ISZERO PUSH2 0x32F JUMP JUMPDEST PUSH2 0x1696 JUMPI POP JUMP JUMPDEST PUSH2 0x16E0 SWAP1 PUSH1 0x20 PUSH2 0x16AE PUSH2 0x16A9 PUSH1 0x5 PUSH2 0xA97 JUMP JUMPDEST PUSH2 0xAA4 JUMP JUMPDEST PUSH4 0x70A08231 SWAP1 PUSH2 0x16D5 PUSH2 0x16C0 ADDRESS PUSH2 0xAB0 JUMP JUMPDEST SWAP3 PUSH2 0x16C9 PUSH2 0x113 JUMP JUMPDEST SWAP7 DUP8 SWAP5 DUP6 SWAP4 DUP5 SWAP4 PUSH2 0xB05 JUMP JUMPDEST DUP4 MSTORE PUSH1 0x4 DUP4 ADD PUSH2 0x467 JUMP JUMPDEST SUB SWAP2 GAS STATICCALL SWAP2 DUP3 ISZERO PUSH2 0x1743 JUMPI PUSH1 0x0 SWAP3 PUSH2 0x1713 JUMPI JUMPDEST POP PUSH2 0x170F PUSH1 0x0 SWAP3 DUP4 SWAP3 PUSH4 0x722F6B3 PUSH1 0xE1 SHL DUP5 MSTORE PUSH1 0x4 DUP5 ADD PUSH2 0x6AF JUMP JUMPDEST SUB SWAP1 REVERT JUMPDEST PUSH2 0x1735 SWAP2 SWAP3 POP PUSH1 0x20 RETURNDATASIZE DUP2 GT PUSH2 0x173C JUMPI JUMPDEST PUSH2 0x172D DUP2 DUP4 PUSH2 0xADC JUMP JUMPDEST DUP2 ADD SWAP1 PUSH2 0xB1A JUMP JUMPDEST SWAP1 DUP3 PUSH2 0x16F3 JUMP JUMPDEST POP RETURNDATASIZE PUSH2 0x1723 JUMP JUMPDEST PUSH2 0xB39 JUMP JUMPDEST PUSH2 0x1769 SWAP2 POP PUSH1 0x20 RETURNDATASIZE DUP2 GT PUSH2 0x176F JUMPI JUMPDEST PUSH2 0x1761 DUP2 DUP4 PUSH2 0xADC JUMP JUMPDEST DUP2 ADD SWAP1 PUSH2 0xF36 JUMP JUMPDEST CODESIZE PUSH2 0x1688 JUMP JUMPDEST POP RETURNDATASIZE PUSH2 0x1757 JUMP JUMPDEST PUSH2 0xB39 JUMP JUMPDEST SWAP1 PUSH2 0x178C PUSH1 0x1 DUP1 PUSH1 0xA0 SHL SUB SWAP2 PUSH2 0x70E JUMP JUMPDEST SWAP2 DUP2 NOT AND SWAP2 AND OR SWAP1 JUMP JUMPDEST SWAP1 JUMP JUMPDEST SWAP1 PUSH2 0x17AE PUSH2 0x17A9 PUSH2 0x17B5 SWAP3 PUSH2 0x5B3 JUMP JUMPDEST PUSH2 0x1796 JUMP JUMPDEST DUP3 SLOAD PUSH2 0x177B JUMP JUMPDEST SWAP1 SSTORE JUMP JUMPDEST PUSH2 0x17C3 PUSH1 0x0 PUSH2 0xE78 JUMP JUMPDEST PUSH2 0x17CE DUP3 PUSH1 0x0 PUSH2 0x1799 JUMP JUMPDEST SWAP1 PUSH2 0x1802 PUSH2 0x17FC PUSH32 0x8BE0079C531659141344CD1FD0A4F28419497F9722A3DAAFE3B4186F6B6457E0 SWAP4 PUSH2 0x5B3 JUMP JUMPDEST SWAP2 PUSH2 0x5B3 JUMP JUMPDEST SWAP2 PUSH2 0x180B PUSH2 0x113 JUMP JUMPDEST DUP1 PUSH2 0x1815 DUP2 PUSH2 0x1E8 JUMP JUMPDEST SUB SWAP1 LOG3 JUMP JUMPDEST PUSH2 0x1822 PUSH2 0x153E JUMP JUMPDEST PUSH2 0x182A PUSH2 0x182C JUMP JUMPDEST JUMP JUMPDEST PUSH2 0x1838 PUSH1 0x1 PUSH1 0x0 PUSH2 0x1487 JUMP JUMPDEST PUSH2 0x1840 PUSH2 0x1885 JUMP JUMPDEST PUSH2 0x1876 PUSH32 0x62E78CEA01BEE320CD4E420270B5EA74000D11B0C9F74754EBDBFC544B05A258 SWAP2 PUSH2 0x186D PUSH2 0x113 JUMP JUMPDEST SWAP2 DUP3 SWAP2 DUP3 PUSH2 0x467 JUMP JUMPDEST SUB SWAP1 LOG1 JUMP JUMPDEST PUSH2 0x1883 PUSH2 0x181A JUMP JUMPDEST JUMP JUMPDEST PUSH2 0x188D PUSH2 0xE54 JUMP JUMPDEST POP CALLER SWAP1 JUMP JUMPDEST PUSH2 0x18A3 PUSH2 0x189D PUSH2 0xA15 JUMP JUMPDEST ISZERO PUSH2 0x32F JUMP JUMPDEST PUSH2 0x18A9 JUMPI JUMP JUMPDEST PUSH1 0x0 PUSH4 0x8DFC202B PUSH1 0xE0 SHL DUP2 MSTORE DUP1 PUSH2 0x18C2 PUSH1 0x4 DUP3 ADD PUSH2 0x1E8 JUMP JUMPDEST SUB SWAP1 REVERT INVALID LOG2 PUSH5 0x6970667358 0x22 SLT KECCAK256 0xA5 DUP12 DUP13 DUP4 AND EXP DUP5 PUSH1 0x33 0xD 0xD0 EXP PUSH17 0xFD0986BD66994083215A0D4939D1603B3A NUMBER PUSH1 0x64 PUSH20 0x6F6C634300081C00330000000000000000000000 "
        },
        "methodIdentifiers": {
          "addPoints(address,uint256)": "507cd30f",
          "calculateUSDCAmount(uint256)": "4cabb824",
          "claimUSDC(uint256)": "6e5f4a89",
          "depositUSDC(uint256)": "f688bcfb",
          "getPointBalance(address)": "5f42513c",
          "getTotalClaimedPoints(address)": "1e2393ea",
          "owner()": "8da5cb5b",
          "pause()": "8456cb59",
          "paused()": "5c975abb",
          "renounceOwnership()": "715018a6",
          "setExchangeRate(uint256)": "db068e0e",
          "subtractPoints(address,uint256)": "4a222b35",
          "transferOwnership(address)": "f2fde38b",
          "unpause()": "3f4ba83a",
          "withdrawUSDC(uint256)": "db81f99b"
        }
      }
    }
  }
}