{
  "contracts/USDCRewardContract.sol": {
    "USDCRewardContract": {
      "abi": [
        {
          "inputs": [
            {
              "internalType": "address",
              "name": "_usdcToken",
              "type": "address"
            }
          ],
          "stateMutability": "nonpayable",
          "type": "constructor"
        },
        {
          "inputs": [],
          "name": "ContractIsPaused",
          "type": "error"
        },
        {
          "inputs": [],
          "name": "EnforcedPause",
          "type": "error"
        },
        {
          "inputs": [],
          "name": "ExchangeRateNotSet",
          "type": "error"
        },
        {
          "inputs": [],
          "name": "ExpectedPause",
          "type": "error"
        },
        {
          "inputs": [
            {
              "internalType": "uint256",
              "name": "required",
              "type": "uint256"
            },
            {
              "internalType": "uint256",
              "name": "available",
              "type": "uint256"
            }
          ],
          "name": "InsufficientPoints",
          "type": "error"
        },
        {
          "inputs": [
            {
              "internalType": "uint256",
              "name": "required",
              "type": "uint256"
            },
            {
              "internalType": "uint256",
              "name": "available",
              "type": "uint256"
            }
          ],
          "name": "InsufficientUSDCBalance",
          "type": "error"
        },
        {
          "inputs": [],
          "name": "InvalidAddress",
          "type": "error"
        },
        {
          "inputs": [],
          "name": "InvalidAmount",
          "type": "error"
        },
        {
          "inputs": [
            {
              "internalType": "address",
              "name": "owner",
              "type": "address"
            }
          ],
          "name": "OwnableInvalidOwner",
          "type": "error"
        },
        {
          "inputs": [
            {
              "internalType": "address",
              "name": "account",
              "type": "address"
            }
          ],
          "name": "OwnableUnauthorizedAccount",
          "type": "error"
        },
        {
          "inputs": [],
          "name": "ReentrancyGuardReentrantCall",
          "type": "error"
        },
        {
          "inputs": [],
          "name": "Unauthorized",
          "type": "error"
        },
        {
          "anonymous": false,
          "inputs": [],
          "name": "ContractPaused",
          "type": "event"
        },
        {
          "anonymous": false,
          "inputs": [],
          "name": "ContractUnpaused",
          "type": "event"
        },
        {
          "anonymous": false,
          "inputs": [
            {
              "indexed": false,
              "internalType": "uint256",
              "name": "newRate",
              "type": "uint256"
            }
          ],
          "name": "ExchangeRateSet",
          "type": "event"
        },
        {
          "anonymous": false,
          "inputs": [
            {
              "indexed": true,
              "internalType": "address",
              "name": "previousOwner",
              "type": "address"
            },
            {
              "indexed": true,
              "internalType": "address",
              "name": "newOwner",
              "type": "address"
            }
          ],
          "name": "OwnershipTransferred",
          "type": "event"
        },
        {
          "anonymous": false,
          "inputs": [
            {
              "indexed": false,
              "internalType": "address",
              "name": "account",
              "type": "address"
            }
          ],
          "name": "Paused",
          "type": "event"
        },
        {
          "anonymous": false,
          "inputs": [
            {
              "indexed": true,
              "internalType": "address",
              "name": "user",
              "type": "address"
            },
            {
              "indexed": false,
              "internalType": "uint256",
              "name": "amount",
              "type": "uint256"
            }
          ],
          "name": "PointsAdded",
          "type": "event"
        },
        {
          "anonymous": false,
          "inputs": [
            {
              "indexed": true,
              "internalType": "address",
              "name": "user",
              "type": "address"
            },
            {
              "indexed": false,
              "internalType": "uint256",
              "name": "amount",
              "type": "uint256"
            }
          ],
          "name": "PointsRemoved",
          "type": "event"
        },
        {
          "anonymous": false,
          "inputs": [
            {
              "indexed": true,
              "internalType": "address",
              "name": "user",
              "type": "address"
            },
            {
              "indexed": false,
              "internalType": "uint256",
              "name": "pointsUsed",
              "type": "uint256"
            },
            {
              "indexed": false,
              "internalType": "uint256",
              "name": "usdcAmount",
              "type": "uint256"
            }
          ],
          "name": "USDCClaimed",
          "type": "event"
        },
        {
          "anonymous": false,
          "inputs": [
            {
              "indexed": false,
              "internalType": "uint256",
              "name": "amount",
              "type": "uint256"
            }
          ],
          "name": "USDCDeposited",
          "type": "event"
        },
        {
          "anonymous": false,
          "inputs": [
            {
              "indexed": false,
              "internalType": "uint256",
              "name": "amount",
              "type": "uint256"
            }
          ],
          "name": "USDCWithdrawn",
          "type": "event"
        },
        {
          "anonymous": false,
          "inputs": [
            {
              "indexed": false,
              "internalType": "address",
              "name": "account",
              "type": "address"
            }
          ],
          "name": "Unpaused",
          "type": "event"
        },
        {
          "inputs": [
            {
              "internalType": "address",
              "name": "user",
              "type": "address"
            },
            {
              "internalType": "uint256",
              "name": "amount",
              "type": "uint256"
            }
          ],
          "name": "addPoints",
          "outputs": [],
          "stateMutability": "nonpayable",
          "type": "function"
        },
        {
          "inputs": [
            {
              "internalType": "uint256",
              "name": "pointAmount",
              "type": "uint256"
            }
          ],
          "name": "calculateUSDCAmount",
          "outputs": [
            {
              "internalType": "uint256",
              "name": "",
              "type": "uint256"
            }
          ],
          "stateMutability": "view",
          "type": "function"
        },
        {
          "inputs": [
            {
              "internalType": "uint256",
              "name": "pointAmount",
              "type": "uint256"
            }
          ],
          "name": "claimUSDC",
          "outputs": [],
          "stateMutability": "nonpayable",
          "type": "function"
        },
        {
          "inputs": [
            {
              "internalType": "uint256",
              "name": "amount",
              "type": "uint256"
            }
          ],
          "name": "depositUSDC",
          "outputs": [],
          "stateMutability": "nonpayable",
          "type": "function"
        },
        {
          "inputs": [
            {
              "internalType": "address",
              "name": "user",
              "type": "address"
            }
          ],
          "name": "getPointBalance",
          "outputs": [
            {
              "internalType": "uint256",
              "name": "",
              "type": "uint256"
            }
          ],
          "stateMutability": "view",
          "type": "function"
        },
        {
          "inputs": [],
          "name": "owner",
          "outputs": [
            {
              "internalType": "address",
              "name": "",
              "type": "address"
            }
          ],
          "stateMutability": "view",
          "type": "function"
        },
        {
          "inputs": [],
          "name": "pause",
          "outputs": [],
          "stateMutability": "nonpayable",
          "type": "function"
        },
        {
          "inputs": [],
          "name": "paused",
          "outputs": [
            {
              "internalType": "bool",
              "name": "",
              "type": "bool"
            }
          ],
          "stateMutability": "view",
          "type": "function"
        },
        {
          "inputs": [
            {
              "internalType": "address",
              "name": "user",
              "type": "address"
            },
            {
              "internalType": "uint256",
              "name": "amount",
              "type": "uint256"
            }
          ],
          "name": "removePoints",
          "outputs": [],
          "stateMutability": "nonpayable",
          "type": "function"
        },
        {
          "inputs": [],
          "name": "renounceOwnership",
          "outputs": [],
          "stateMutability": "nonpayable",
          "type": "function"
        },
        {
          "inputs": [
            {
              "internalType": "uint256",
              "name": "rate",
              "type": "uint256"
            }
          ],
          "name": "setExchangeRate",
          "outputs": [],
          "stateMutability": "nonpayable",
          "type": "function"
        },
        {
          "inputs": [
            {
              "internalType": "address",
              "name": "newOwner",
              "type": "address"
            }
          ],
          "name": "transferOwnership",
          "outputs": [],
          "stateMutability": "nonpayable",
          "type": "function"
        },
        {
          "inputs": [],
          "name": "unpause",
          "outputs": [],
          "stateMutability": "nonpayable",
          "type": "function"
        },
        {
          "inputs": [
            {
              "internalType": "uint256",
              "name": "amount",
              "type": "uint256"
            }
          ],
          "name": "withdrawUSDC",
          "outputs": [],
          "stateMutability": "nonpayable",
          "type": "function"
        }
      ],
      "evm": {
        "bytecode": {
          "linkReferences": {},
          "object": "60806040523461002f576100196100146100fa565b610248565b610021610034565b611870610453823961187090f35b61003a565b60405190565b600080fd5b601f801991011690565b634e487b7160e01b600052604160045260246000fd5b906100699061003f565b810190811060018060401b0382111761008157604052565b610049565b90610099610092610034565b928361005f565b565b600080fd5b60018060a01b031690565b6100b4906100a0565b90565b6100c0816100ab565b036100c757565b600080fd5b905051906100d9826100b7565b565b906020828203126100f5576100f2916000016100cc565b90565b61009b565b610118611cc38038038061010d81610086565b9283398101906100db565b90565b90565b90565b61013561013061013a9261011b565b61011e565b6100a0565b90565b61014690610121565b90565b60000190565b61016361015e610168926100a0565b61011e565b6100a0565b90565b6101749061014f565b90565b6101809061016b565b90565b60001b90565b9061019a60018060a01b0391610183565b9181191691161790565b6101ad9061016b565b90565b90565b906101c86101c36101cf926101a4565b6101b0565b8254610189565b9055565b90565b6101ea6101e56101ef9261011b565b61011e565b6101d3565b90565b906101ff60001991610183565b9181191691161790565b61021d610218610222926101d3565b61011e565b6101d3565b90565b90565b9061023d61023861024492610209565b610225565b82546101f2565b9055565b610251336102e4565b8061026d610267610262600061013d565b6100ab565b916100ab565b1461029b5761027e61028591610177565b60046101b3565b61029961029260006101d6565b6003610228565b565b600063e6c4247b60e01b8152806102b460048201610149565b0390fd5b90565b6102cf6102ca6102d4926102b8565b61011e565b6101d3565b90565b6102e160016102bb565b90565b6102ed90610301565b6102ff6102f86102d7565b6001610228565b565b61030a9061032f565b565b610315906100ab565b9052565b919061032d9060006020850194019061030c565b565b8061034b610345610340600061013d565b6100ab565b916100ab565b1461035b57610359906103f1565b565b610380610368600061013d565b6000918291631e4fbdf760e01b835260048301610319565b0390fd5b60001c90565b60018060a01b031690565b6103a16103a691610384565b61038a565b90565b6103b39054610395565b90565b6103bf9061014f565b90565b6103cb906103b6565b90565b90565b906103e66103e16103ed926103c2565b6103ce565b8254610189565b9055565b6103fb60006103a9565b6104068260006103d1565b9061043a6104347f8be0079c531659141344cd1fd0a4f28419497f9722a3daafe3b4186f6b6457e0936103c2565b916103c2565b91610443610034565b8061044d81610149565b0390a356fe60806040526004361015610013575b610539565b61001e6000356100fd565b80633f4ba83a146100f85780634cabb824146100f3578063507cd30f146100ee5780635c975abb146100e95780635f42513c146100e45780636e5f4a89146100df578063715018a6146100da5780638456cb59146100d55780638da5cb5b146100d0578063a7a0d15a146100cb578063db068e0e146100c6578063db81f99b146100c1578063f2fde38b146100bc5763f688bcfb0361000e57610506565b6104d3565b6104a0565b61046d565b610439565b610404565b6103ae565b61037b565b610348565b610313565b6102bf565b610263565b6101c5565b610129565b60e01c90565b60405190565b600080fd5b600080fd5b600091031261011e57565b61010e565b60000190565b3461015757610139366004610113565b610141610590565b610149610103565b8061015381610123565b0390f35b610109565b90565b6101688161015c565b0361016f57565b600080fd5b905035906101818261015f565b565b9060208282031261019d5761019a91600001610174565b90565b61010e565b6101ab9061015c565b9052565b91906101c3906000602085019401906101a2565b565b346101f5576101f16101e06101db366004610183565b610636565b6101e8610103565b918291826101af565b0390f35b610109565b60018060a01b031690565b61020e906101fa565b90565b61021a81610205565b0361022157565b600080fd5b9050359061023382610211565b565b919060408382031261025e578061025261025b9260008601610226565b93602001610174565b90565b61010e565b346102925761027c610276366004610235565b90610812565b610284610103565b8061028e81610123565b0390f35b610109565b151590565b6102a590610297565b9052565b91906102bd9060006020850194019061029c565b565b346102ef576102cf366004610113565b6102eb6102da610850565b6102e2610103565b918291826102a9565b0390f35b610109565b9060208282031261030e5761030b91600001610226565b90565b61010e565b346103435761033f61032e6103293660046102f4565b610866565b610336610103565b918291826101af565b0390f35b610109565b346103765761036061035b366004610183565b610bf1565b610368610103565b8061037281610123565b0390f35b610109565b346103a95761038b366004610113565b610393610c4a565b61039b610103565b806103a581610123565b0390f35b610109565b346103dc576103be366004610113565b6103c6610ca6565b6103ce610103565b806103d881610123565b0390f35b610109565b6103ea90610205565b9052565b9190610402906000602085019401906103e1565b565b3461043457610414366004610113565b61043061041f610ce1565b610427610103565b918291826103ee565b0390f35b610109565b346104685761045261044c366004610235565b90610e03565b61045a610103565b8061046481610123565b0390f35b610109565b3461049b57610485610480366004610183565b610e68565b61048d610103565b8061049781610123565b0390f35b610109565b346104ce576104b86104b3366004610183565b6110e0565b6104c0610103565b806104ca81610123565b0390f35b610109565b34610501576104eb6104e63660046102f4565b611153565b6104f3610103565b806104fd81610123565b0390f35b610109565b346105345761051e610519366004610183565b611361565b610526610103565b8061053081610123565b0390f35b610109565b600080fd5b61054661136c565b61054e610550565b565b610558611469565b7f0e5e3b3fb504c22cf5c42fa07d521225937514c654007e1f12646f89768d6f94610581610103565b8061058b81610123565b0390a1565b61059861053e565b565b600090565b60001c90565b90565b6105b46105b99161059f565b6105a5565b90565b6105c690546105a8565b90565b90565b90565b6105e36105de6105e8926105c9565b6105cc565b61015c565b90565b634e487b7160e01b600052601160045260246000fd5b6106106106169193929361015c565b9261015c565b9161062283820261015c565b92818404149015171561063157565b6105eb565b61063e61059a565b5061064960036105bc565b61065c61065660006105cf565b9161015c565b14610678576106759061066f60036105bc565b90610601565b90565b5061068360006105cf565b90565b906106989161069361136c565b610767565b565b6106ae6106a96106b3926101fa565b6105cc565b6101fa565b90565b6106bf9061069a565b90565b6106cb906106b6565b90565b906106d8906106c2565b600052602052604060002090565b6106f56106fb9193929361015c565b9261015c565b820180921161070657565b6105eb565b60001b90565b9061071e6000199161070b565b9181191691161790565b61073c6107376107419261015c565b6105cc565b61015c565b90565b90565b9061075c61075761076392610728565b610744565b8254610711565b9055565b61077081611473565b8161078461077e60006105cf565b9161015c565b146107f5576107b1826107ab61079c600285906106ce565b916107a6836105bc565b6106e6565b90610747565b6107f06107de7f0fe6fcb45adaaa54f7e3491f6a7964049817f1e437f33587e634a4629fbcf3a6926106c2565b926107e7610103565b918291826101af565b0390a2565b600063162908e360e11b81528061080e60048201610123565b0390fd5b9061081c91610686565b565b600090565b60a01c90565b60ff1690565b61083b61084091610823565b610829565b90565b61084d905461082f565b90565b61085861081e565b506108636000610843565b90565b61087d6108829161087561059a565b5060026106ce565b6105bc565b90565b610896906108916114b2565b610898565b565b6108a9906108a4611509565b6109ce565b6108b161158e565b565b9160206108d59294936108ce604082019660008301906101a2565b01906101a2565b565b60018060a01b031690565b6108ee6108f39161059f565b6108d7565b90565b61090090546108e2565b90565b61090c906106b6565b90565b610918906106b6565b90565b601f801991011690565b634e487b7160e01b600052604160045260246000fd5b906109459061091b565b810190811067ffffffffffffffff82111761095f57604052565b610925565b60e01b90565b905051906109778261015f565b565b90602082820312610993576109909160000161096a565b90565b61010e565b6109a0610103565b3d6000823e3d90fd5b6109b86109be9193929361015c565b9261015c565b82039182116109c957565b6105eb565b6109d733611473565b806109eb6109e560006105cf565b9161015c565b14610bd4576109fa60036105bc565b610a0d610a0760006105cf565b9161015c565b14610bb757610a26610a21600233906106ce565b6105bc565b80610a39610a338461015c565b9161015c565b10610b975750610a5381610a4d60036105bc565b90610601565b90610a9d6020610a6b610a6660046108f6565b610903565b6370a0823190610a92610a7d3061090f565b92610a86610103565b95869485938493610964565b8352600483016103ee565b03915afa908115610b9257600091610b64575b5080610ac4610abe8561015c565b9161015c565b10610b445750610af281610aec610add600233906106ce565b91610ae7836105bc565b6109a9565b90610747565b610afd3383906115a2565b339091610b2a7feb9a8c68a32bc6989217e69f932cf098ff5d0e2f11305800394c73b554d2ce9e926106c2565b92610b3f610b36610103565b928392836108b3565b0390a2565b82610b606000928392630722f6b360e11b8452600484016108b3565b0390fd5b610b85915060203d8111610b8b575b610b7d818361093b565b810190610979565b38610ab0565b503d610b73565b610998565b90610bb36000928392638059c74760e01b8452600484016108b3565b0390fd5b60006362f216e560e01b815280610bd060048201610123565b0390fd5b600063162908e360e11b815280610bed60048201610123565b0390fd5b610bfa90610885565b565b610c0461136c565b610c0c610c36565b565b610c22610c1d610c27926105c9565b6105cc565b6101fa565b90565b610c3390610c0e565b90565b610c48610c436000610c2a565b61172d565b565b610c52610bfc565b565b610c5c61136c565b610c64610c66565b565b610c6e6117ef565b7fab35696f06e428ebc5ceba8cd17f8fed287baf43440206d1943af1ee53e6d267610c97610103565b80610ca181610123565b0390a1565b610cae610c54565b565b600090565b60018060a01b031690565b610ccc610cd19161059f565b610cb5565b90565b610cde9054610cc0565b90565b610ce9610cb0565b50610cf46000610cd4565b90565b90610d0991610d0461136c565b610d0b565b565b610d1481611473565b81610d28610d2260006105cf565b9161015c565b14610de657610d41610d3c600283906106ce565b6105bc565b80610d54610d4e8561015c565b9161015c565b10610dc65750610d8282610d7c610d6d600285906106ce565b91610d77836105bc565b6109a9565b90610747565b610dc1610daf7ff9352367bd3be481e8f66e7940f6ea5b57fea7504271b1f2863a535443fd2bab926106c2565b92610db8610103565b918291826101af565b0390a2565b82610de26000928392638059c74760e01b8452600484016108b3565b0390fd5b600063162908e360e11b815280610dff60048201610123565b0390fd5b90610e0d91610cf7565b565b610e2090610e1b61136c565b610e22565b565b610e2d816003610747565b610e637f972aba470577c14606bbf4bbdec1fed4925f242fcef40b4a8d242983365d029191610e5a610103565b918291826101af565b0390a1565b610e7190610e0f565b565b610e8490610e7f61136c565b610eed565b565b610e8f81610297565b03610e9657565b600080fd5b90505190610ea882610e86565b565b90602082820312610ec457610ec191600001610e9b565b90565b61010e565b916020610eeb929493610ee4604082019660008301906103e1565b01906101a2565b565b80610f01610efb60006105cf565b9161015c565b146110c357610f4f6020610f1d610f1860046108f6565b610903565b6370a0823190610f44610f2f3061090f565b92610f38610103565b95869485938493610964565b8352600483016103ee565b03915afa9081156110be57600091611090575b5080610f76610f708461015c565b9161015c565b1061107057610f8d610f8860046108f6565b610903565b602063a9059cbb913390610fb560008795610fc0610fa9610103565b97889687958694610964565b845260048401610ec9565b03925af1801561106b57610fdd9160009161103d575b5015610297565b61101d57506110187f4eacc637a5fb1dbbc94595a9432e0a8d75ae5d51d189021963a6cc8575465ddf9161100f610103565b918291826101af565b0390a1565b906110396000928392630722f6b360e11b8452600484016108b3565b0390fd5b61105e915060203d8111611064575b611056818361093b565b810190610eaa565b38610fd6565b503d61104c565b610998565b9061108c6000928392630722f6b360e11b8452600484016108b3565b0390fd5b6110b1915060203d81116110b7575b6110a9818361093b565b810190610979565b38610f62565b503d61109f565b610998565b600063162908e360e11b8152806110dc60048201610123565b0390fd5b6110e990610e73565b565b6110fc906110f761136c565b6110fe565b565b8061111a61111461110f6000610c2a565b610205565b91610205565b1461112a576111289061172d565b565b61114f6111376000610c2a565b6000918291631e4fbdf760e01b8352600483016103ee565b0390fd5b61115c906110eb565b565b61116f9061116a61136c565b6111a4565b565b60409061119b6111a29496959396611191606084019860008501906103e1565b60208301906103e1565b01906101a2565b565b806111b86111b260006105cf565b9161015c565b14611344576111cf6111ca60046108f6565b610903565b60206323b872dd91339061120060006111e73061090f565b9561120b886111f4610103565b98899788968795610964565b855260048501611171565b03925af1801561133f5761122891600091611311575b5015610297565b611267576112627f0f920186940a9c60ff07b508b49ba5dca2c647b29aebfa69964b44e5e873a62c91611259610103565b918291826101af565b0390a1565b6112a990602061127f61127a60046108f6565b610903565b6370a082319061129e3392611292610103565b96879485938493610964565b8352600483016103ee565b03915afa91821561130c576000926112dc575b506112d86000928392630722f6b360e11b8452600484016108b3565b0390fd5b6112fe91925060203d8111611305575b6112f6818361093b565b810190610979565b90826112bc565b503d6112ec565b610998565b611332915060203d8111611338575b61132a818361093b565b810190610eaa565b38611221565b503d611320565b610998565b600063162908e360e11b81528061135d60048201610123565b0390fd5b61136a9061115e565b565b611374610ce1565b61138d6113876113826117f9565b610205565b91610205565b0361139457565b6113b761139f6117f9565b600091829163118cdaa760e01b8352600483016103ee565b0390fd5b6113c3611806565b6113cb61141b565b565b60a01b90565b906113e260ff60a01b916113cd565b9181191691161790565b6113f590610297565b90565b90565b9061141061140b611417926113ec565b6113f8565b82546113d3565b9055565b6114266000806113fb565b61142e6117f9565b6114647f5db9ee0a495bf2e6ff9c91a7834c1ba4fdd244a5e8aa4e537bd38aeae4b073aa9161145b610103565b918291826103ee565b0390a1565b6114716113bb565b565b61148e6114886114836000610c2a565b610205565b91610205565b1461149557565b600063e6c4247b60e01b8152806114ae60048201610123565b0390fd5b6114ba610850565b6114c057565b600063d93c066560e01b8152806114d960048201610123565b0390fd5b90565b6114f46114ef6114f9926114dd565b6105cc565b61015c565b90565b61150660026114e0565b90565b61151360016105bc565b61152c6115266115216114fc565b61015c565b9161015c565b146115455761154361153c6114fc565b6001610747565b565b6000633ee5aeb560e01b81528061155e60048201610123565b0390fd5b90565b61157961157461157e92611562565b6105cc565b61015c565b90565b61158b6001611565565b90565b6115a0611599611581565b6001610747565b565b60206115b66115b160046108f6565b610903565b63a9059cbb92906115db600086956115e66115cf610103565b97889687958694610964565b845260048401610ec9565b03925af180156116ea57611603916000916116bc575b5015610297565b61160a5750565b61165490602061162261161d60046108f6565b610903565b6370a08231906116496116343061090f565b9261163d610103565b96879485938493610964565b8352600483016103ee565b03915afa9182156116b757600092611687575b506116836000928392630722f6b360e11b8452600484016108b3565b0390fd5b6116a991925060203d81116116b0575b6116a1818361093b565b810190610979565b9082611667565b503d611697565b610998565b6116dd915060203d81116116e3575b6116d5818361093b565b810190610eaa565b386115fc565b503d6116cb565b610998565b9061170060018060a01b039161070b565b9181191691161790565b90565b9061172261171d611729926106c2565b61170a565b82546116ef565b9055565b6117376000610cd4565b61174282600061170d565b906117766117707f8be0079c531659141344cd1fd0a4f28419497f9722a3daafe3b4186f6b6457e0936106c2565b916106c2565b9161177f610103565b8061178981610123565b0390a3565b6117966114b2565b61179e6117a0565b565b6117ac600160006113fb565b6117b46117f9565b6117ea7f62e78cea01bee320cd4e420270b5ea74000d11b0c9f74754ebdbfc544b05a258916117e1610103565b918291826103ee565b0390a1565b6117f761178e565b565b611801610cb0565b503390565b611817611811610850565b15610297565b61181d57565b6000638dfc202b60e01b81528061183660048201610123565b0390fdfea26469706673582212203ee4a501fd4a1747a4237a46d1c01cee0389118cc43974cb04b889fb9fcdd5b064736f6c634300081c0033",
          "opcodes": "PUSH1 0x80 PUSH1 0x40 MSTORE CALLVALUE PUSH2 0x2F JUMPI PUSH2 0x19 PUSH2 0x14 PUSH2 0xFA JUMP JUMPDEST PUSH2 0x248 JUMP JUMPDEST PUSH2 0x21 PUSH2 0x34 JUMP JUMPDEST PUSH2 0x1870 PUSH2 0x453 DUP3 CODECOPY PUSH2 0x1870 SWAP1 RETURN JUMPDEST PUSH2 0x3A JUMP JUMPDEST PUSH1 0x40 MLOAD SWAP1 JUMP JUMPDEST PUSH1 0x0 DUP1 REVERT JUMPDEST PUSH1 0x1F DUP1 NOT SWAP2 ADD AND SWAP1 JUMP JUMPDEST PUSH4 0x4E487B71 PUSH1 0xE0 SHL PUSH1 0x0 MSTORE PUSH1 0x41 PUSH1 0x4 MSTORE PUSH1 0x24 PUSH1 0x0 REVERT JUMPDEST SWAP1 PUSH2 0x69 SWAP1 PUSH2 0x3F JUMP JUMPDEST DUP2 ADD SWAP1 DUP2 LT PUSH1 0x1 DUP1 PUSH1 0x40 SHL SUB DUP3 GT OR PUSH2 0x81 JUMPI PUSH1 0x40 MSTORE JUMP JUMPDEST PUSH2 0x49 JUMP JUMPDEST SWAP1 PUSH2 0x99 PUSH2 0x92 PUSH2 0x34 JUMP JUMPDEST SWAP3 DUP4 PUSH2 0x5F JUMP JUMPDEST JUMP JUMPDEST PUSH1 0x0 DUP1 REVERT JUMPDEST PUSH1 0x1 DUP1 PUSH1 0xA0 SHL SUB AND SWAP1 JUMP JUMPDEST PUSH2 0xB4 SWAP1 PUSH2 0xA0 JUMP JUMPDEST SWAP1 JUMP JUMPDEST PUSH2 0xC0 DUP2 PUSH2 0xAB JUMP JUMPDEST SUB PUSH2 0xC7 JUMPI JUMP JUMPDEST PUSH1 0x0 DUP1 REVERT JUMPDEST SWAP1 POP MLOAD SWAP1 PUSH2 0xD9 DUP3 PUSH2 0xB7 JUMP JUMPDEST JUMP JUMPDEST SWAP1 PUSH1 0x20 DUP3 DUP3 SUB SLT PUSH2 0xF5 JUMPI PUSH2 0xF2 SWAP2 PUSH1 0x0 ADD PUSH2 0xCC JUMP JUMPDEST SWAP1 JUMP JUMPDEST PUSH2 0x9B JUMP JUMPDEST PUSH2 0x118 PUSH2 0x1CC3 DUP1 CODESIZE SUB DUP1 PUSH2 0x10D DUP2 PUSH2 0x86 JUMP JUMPDEST SWAP3 DUP4 CODECOPY DUP2 ADD SWAP1 PUSH2 0xDB JUMP JUMPDEST SWAP1 JUMP JUMPDEST SWAP1 JUMP JUMPDEST SWAP1 JUMP JUMPDEST PUSH2 0x135 PUSH2 0x130 PUSH2 0x13A SWAP3 PUSH2 0x11B JUMP JUMPDEST PUSH2 0x11E JUMP JUMPDEST PUSH2 0xA0 JUMP JUMPDEST SWAP1 JUMP JUMPDEST PUSH2 0x146 SWAP1 PUSH2 0x121 JUMP JUMPDEST SWAP1 JUMP JUMPDEST PUSH1 0x0 ADD SWAP1 JUMP JUMPDEST PUSH2 0x163 PUSH2 0x15E PUSH2 0x168 SWAP3 PUSH2 0xA0 JUMP JUMPDEST PUSH2 0x11E JUMP JUMPDEST PUSH2 0xA0 JUMP JUMPDEST SWAP1 JUMP JUMPDEST PUSH2 0x174 SWAP1 PUSH2 0x14F JUMP JUMPDEST SWAP1 JUMP JUMPDEST PUSH2 0x180 SWAP1 PUSH2 0x16B JUMP JUMPDEST SWAP1 JUMP JUMPDEST PUSH1 0x0 SHL SWAP1 JUMP JUMPDEST SWAP1 PUSH2 0x19A PUSH1 0x1 DUP1 PUSH1 0xA0 SHL SUB SWAP2 PUSH2 0x183 JUMP JUMPDEST SWAP2 DUP2 NOT AND SWAP2 AND OR SWAP1 JUMP JUMPDEST PUSH2 0x1AD SWAP1 PUSH2 0x16B JUMP JUMPDEST SWAP1 JUMP JUMPDEST SWAP1 JUMP JUMPDEST SWAP1 PUSH2 0x1C8 PUSH2 0x1C3 PUSH2 0x1CF SWAP3 PUSH2 0x1A4 JUMP JUMPDEST PUSH2 0x1B0 JUMP JUMPDEST DUP3 SLOAD PUSH2 0x189 JUMP JUMPDEST SWAP1 SSTORE JUMP JUMPDEST SWAP1 JUMP JUMPDEST PUSH2 0x1EA PUSH2 0x1E5 PUSH2 0x1EF SWAP3 PUSH2 0x11B JUMP JUMPDEST PUSH2 0x11E JUMP JUMPDEST PUSH2 0x1D3 JUMP JUMPDEST SWAP1 JUMP JUMPDEST SWAP1 PUSH2 0x1FF PUSH1 0x0 NOT SWAP2 PUSH2 0x183 JUMP JUMPDEST SWAP2 DUP2 NOT AND SWAP2 AND OR SWAP1 JUMP JUMPDEST PUSH2 0x21D PUSH2 0x218 PUSH2 0x222 SWAP3 PUSH2 0x1D3 JUMP JUMPDEST PUSH2 0x11E JUMP JUMPDEST PUSH2 0x1D3 JUMP JUMPDEST SWAP1 JUMP JUMPDEST SWAP1 JUMP JUMPDEST SWAP1 PUSH2 0x23D PUSH2 0x238 PUSH2 0x244 SWAP3 PUSH2 0x209 JUMP JUMPDEST PUSH2 0x225 JUMP JUMPDEST DUP3 SLOAD PUSH2 0x1F2 JUMP JUMPDEST SWAP1 SSTORE JUMP JUMPDEST PUSH2 0x251 CALLER PUSH2 0x2E4 JUMP JUMPDEST DUP1 PUSH2 0x26D PUSH2 0x267 PUSH2 0x262 PUSH1 0x0 PUSH2 0x13D JUMP JUMPDEST PUSH2 0xAB JUMP JUMPDEST SWAP2 PUSH2 0xAB JUMP JUMPDEST EQ PUSH2 0x29B JUMPI PUSH2 0x27E PUSH2 0x285 SWAP2 PUSH2 0x177 JUMP JUMPDEST PUSH1 0x4 PUSH2 0x1B3 JUMP JUMPDEST PUSH2 0x299 PUSH2 0x292 PUSH1 0x0 PUSH2 0x1D6 JUMP JUMPDEST PUSH1 0x3 PUSH2 0x228 JUMP JUMPDEST JUMP JUMPDEST PUSH1 0x0 PUSH4 0xE6C4247B PUSH1 0xE0 SHL DUP2 MSTORE DUP1 PUSH2 0x2B4 PUSH1 0x4 DUP3 ADD PUSH2 0x149 JUMP JUMPDEST SUB SWAP1 REVERT JUMPDEST SWAP1 JUMP JUMPDEST PUSH2 0x2CF PUSH2 0x2CA PUSH2 0x2D4 SWAP3 PUSH2 0x2B8 JUMP JUMPDEST PUSH2 0x11E JUMP JUMPDEST PUSH2 0x1D3 JUMP JUMPDEST SWAP1 JUMP JUMPDEST PUSH2 0x2E1 PUSH1 0x1 PUSH2 0x2BB JUMP JUMPDEST SWAP1 JUMP JUMPDEST PUSH2 0x2ED SWAP1 PUSH2 0x301 JUMP JUMPDEST PUSH2 0x2FF PUSH2 0x2F8 PUSH2 0x2D7 JUMP JUMPDEST PUSH1 0x1 PUSH2 0x228 JUMP JUMPDEST JUMP JUMPDEST PUSH2 0x30A SWAP1 PUSH2 0x32F JUMP JUMPDEST JUMP JUMPDEST PUSH2 0x315 SWAP1 PUSH2 0xAB JUMP JUMPDEST SWAP1 MSTORE JUMP JUMPDEST SWAP2 SWAP1 PUSH2 0x32D SWAP1 PUSH1 0x0 PUSH1 0x20 DUP6 ADD SWAP5 ADD SWAP1 PUSH2 0x30C JUMP JUMPDEST JUMP JUMPDEST DUP1 PUSH2 0x34B PUSH2 0x345 PUSH2 0x340 PUSH1 0x0 PUSH2 0x13D JUMP JUMPDEST PUSH2 0xAB JUMP JUMPDEST SWAP2 PUSH2 0xAB JUMP JUMPDEST EQ PUSH2 0x35B JUMPI PUSH2 0x359 SWAP1 PUSH2 0x3F1 JUMP JUMPDEST JUMP JUMPDEST PUSH2 0x380 PUSH2 0x368 PUSH1 0x0 PUSH2 0x13D JUMP JUMPDEST PUSH1 0x0 SWAP2 DUP3 SWAP2 PUSH4 0x1E4FBDF7 PUSH1 0xE0 SHL DUP4 MSTORE PUSH1 0x4 DUP4 ADD PUSH2 0x319 JUMP JUMPDEST SUB SWAP1 REVERT JUMPDEST PUSH1 0x0 SHR SWAP1 JUMP JUMPDEST PUSH1 0x1 DUP1 PUSH1 0xA0 SHL SUB AND SWAP1 JUMP JUMPDEST PUSH2 0x3A1 PUSH2 0x3A6 SWAP2 PUSH2 0x384 JUMP JUMPDEST PUSH2 0x38A JUMP JUMPDEST SWAP1 JUMP JUMPDEST PUSH2 0x3B3 SWAP1 SLOAD PUSH2 0x395 JUMP JUMPDEST SWAP1 JUMP JUMPDEST PUSH2 0x3BF SWAP1 PUSH2 0x14F JUMP JUMPDEST SWAP1 JUMP JUMPDEST PUSH2 0x3CB SWAP1 PUSH2 0x3B6 JUMP JUMPDEST SWAP1 JUMP JUMPDEST SWAP1 JUMP JUMPDEST SWAP1 PUSH2 0x3E6 PUSH2 0x3E1 PUSH2 0x3ED SWAP3 PUSH2 0x3C2 JUMP JUMPDEST PUSH2 0x3CE JUMP JUMPDEST DUP3 SLOAD PUSH2 0x189 JUMP JUMPDEST SWAP1 SSTORE JUMP JUMPDEST PUSH2 0x3FB PUSH1 0x0 PUSH2 0x3A9 JUMP JUMPDEST PUSH2 0x406 DUP3 PUSH1 0x0 PUSH2 0x3D1 JUMP JUMPDEST SWAP1 PUSH2 0x43A PUSH2 0x434 PUSH32 0x8BE0079C531659141344CD1FD0A4F28419497F9722A3DAAFE3B4186F6B6457E0 SWAP4 PUSH2 0x3C2 JUMP JUMPDEST SWAP2 PUSH2 0x3C2 JUMP JUMPDEST SWAP2 PUSH2 0x443 PUSH2 0x34 JUMP JUMPDEST DUP1 PUSH2 0x44D DUP2 PUSH2 0x149 JUMP JUMPDEST SUB SWAP1 LOG3 JUMP INVALID PUSH1 0x80 PUSH1 0x40 MSTORE PUSH1 0x4 CALLDATASIZE LT ISZERO PUSH2 0x13 JUMPI JUMPDEST PUSH2 0x539 JUMP JUMPDEST PUSH2 0x1E PUSH1 0x0 CALLDATALOAD PUSH2 0xFD JUMP JUMPDEST DUP1 PUSH4 0x3F4BA83A EQ PUSH2 0xF8 JUMPI DUP1 PUSH4 0x4CABB824 EQ PUSH2 0xF3 JUMPI DUP1 PUSH4 0x507CD30F EQ PUSH2 0xEE JUMPI DUP1 PUSH4 0x5C975ABB EQ PUSH2 0xE9 JUMPI DUP1 PUSH4 0x5F42513C EQ PUSH2 0xE4 JUMPI DUP1 PUSH4 0x6E5F4A89 EQ PUSH2 0xDF JUMPI DUP1 PUSH4 0x715018A6 EQ PUSH2 0xDA JUMPI DUP1 PUSH4 0x8456CB59 EQ PUSH2 0xD5 JUMPI DUP1 PUSH4 0x8DA5CB5B EQ PUSH2 0xD0 JUMPI DUP1 PUSH4 0xA7A0D15A EQ PUSH2 0xCB JUMPI DUP1 PUSH4 0xDB068E0E EQ PUSH2 0xC6 JUMPI DUP1 PUSH4 0xDB81F99B EQ PUSH2 0xC1 JUMPI DUP1 PUSH4 0xF2FDE38B EQ PUSH2 0xBC JUMPI PUSH4 0xF688BCFB SUB PUSH2 0xE JUMPI PUSH2 0x506 JUMP JUMPDEST PUSH2 0x4D3 JUMP JUMPDEST PUSH2 0x4A0 JUMP JUMPDEST PUSH2 0x46D JUMP JUMPDEST PUSH2 0x439 JUMP JUMPDEST PUSH2 0x404 JUMP JUMPDEST PUSH2 0x3AE JUMP JUMPDEST PUSH2 0x37B JUMP JUMPDEST PUSH2 0x348 JUMP JUMPDEST PUSH2 0x313 JUMP JUMPDEST PUSH2 0x2BF JUMP JUMPDEST PUSH2 0x263 JUMP JUMPDEST PUSH2 0x1C5 JUMP JUMPDEST PUSH2 0x129 JUMP JUMPDEST PUSH1 0xE0 SHR SWAP1 JUMP JUMPDEST PUSH1 0x40 MLOAD SWAP1 JUMP JUMPDEST PUSH1 0x0 DUP1 REVERT JUMPDEST PUSH1 0x0 DUP1 REVERT JUMPDEST PUSH1 0x0 SWAP2 SUB SLT PUSH2 0x11E JUMPI JUMP JUMPDEST PUSH2 0x10E JUMP JUMPDEST PUSH1 0x0 ADD SWAP1 JUMP JUMPDEST CALLVALUE PUSH2 0x157 JUMPI PUSH2 0x139 CALLDATASIZE PUSH1 0x4 PUSH2 0x113 JUMP JUMPDEST PUSH2 0x141 PUSH2 0x590 JUMP JUMPDEST PUSH2 0x149 PUSH2 0x103 JUMP JUMPDEST DUP1 PUSH2 0x153 DUP2 PUSH2 0x123 JUMP JUMPDEST SUB SWAP1 RETURN JUMPDEST PUSH2 0x109 JUMP JUMPDEST SWAP1 JUMP JUMPDEST PUSH2 0x168 DUP2 PUSH2 0x15C JUMP JUMPDEST SUB PUSH2 0x16F JUMPI JUMP JUMPDEST PUSH1 0x0 DUP1 REVERT JUMPDEST SWAP1 POP CALLDATALOAD SWAP1 PUSH2 0x181 DUP3 PUSH2 0x15F JUMP JUMPDEST JUMP JUMPDEST SWAP1 PUSH1 0x20 DUP3 DUP3 SUB SLT PUSH2 0x19D JUMPI PUSH2 0x19A SWAP2 PUSH1 0x0 ADD PUSH2 0x174 JUMP JUMPDEST SWAP1 JUMP JUMPDEST PUSH2 0x10E JUMP JUMPDEST PUSH2 0x1AB SWAP1 PUSH2 0x15C JUMP JUMPDEST SWAP1 MSTORE JUMP JUMPDEST SWAP2 SWAP1 PUSH2 0x1C3 SWAP1 PUSH1 0x0 PUSH1 0x20 DUP6 ADD SWAP5 ADD SWAP1 PUSH2 0x1A2 JUMP JUMPDEST JUMP JUMPDEST CALLVALUE PUSH2 0x1F5 JUMPI PUSH2 0x1F1 PUSH2 0x1E0 PUSH2 0x1DB CALLDATASIZE PUSH1 0x4 PUSH2 0x183 JUMP JUMPDEST PUSH2 0x636 JUMP JUMPDEST PUSH2 0x1E8 PUSH2 0x103 JUMP JUMPDEST SWAP2 DUP3 SWAP2 DUP3 PUSH2 0x1AF JUMP JUMPDEST SUB SWAP1 RETURN JUMPDEST PUSH2 0x109 JUMP JUMPDEST PUSH1 0x1 DUP1 PUSH1 0xA0 SHL SUB AND SWAP1 JUMP JUMPDEST PUSH2 0x20E SWAP1 PUSH2 0x1FA JUMP JUMPDEST SWAP1 JUMP JUMPDEST PUSH2 0x21A DUP2 PUSH2 0x205 JUMP JUMPDEST SUB PUSH2 0x221 JUMPI JUMP JUMPDEST PUSH1 0x0 DUP1 REVERT JUMPDEST SWAP1 POP CALLDATALOAD SWAP1 PUSH2 0x233 DUP3 PUSH2 0x211 JUMP JUMPDEST JUMP JUMPDEST SWAP2 SWAP1 PUSH1 0x40 DUP4 DUP3 SUB SLT PUSH2 0x25E JUMPI DUP1 PUSH2 0x252 PUSH2 0x25B SWAP3 PUSH1 0x0 DUP7 ADD PUSH2 0x226 JUMP JUMPDEST SWAP4 PUSH1 0x20 ADD PUSH2 0x174 JUMP JUMPDEST SWAP1 JUMP JUMPDEST PUSH2 0x10E JUMP JUMPDEST CALLVALUE PUSH2 0x292 JUMPI PUSH2 0x27C PUSH2 0x276 CALLDATASIZE PUSH1 0x4 PUSH2 0x235 JUMP JUMPDEST SWAP1 PUSH2 0x812 JUMP JUMPDEST PUSH2 0x284 PUSH2 0x103 JUMP JUMPDEST DUP1 PUSH2 0x28E DUP2 PUSH2 0x123 JUMP JUMPDEST SUB SWAP1 RETURN JUMPDEST PUSH2 0x109 JUMP JUMPDEST ISZERO ISZERO SWAP1 JUMP JUMPDEST PUSH2 0x2A5 SWAP1 PUSH2 0x297 JUMP JUMPDEST SWAP1 MSTORE JUMP JUMPDEST SWAP2 SWAP1 PUSH2 0x2BD SWAP1 PUSH1 0x0 PUSH1 0x20 DUP6 ADD SWAP5 ADD SWAP1 PUSH2 0x29C JUMP JUMPDEST JUMP JUMPDEST CALLVALUE PUSH2 0x2EF JUMPI PUSH2 0x2CF CALLDATASIZE PUSH1 0x4 PUSH2 0x113 JUMP JUMPDEST PUSH2 0x2EB PUSH2 0x2DA PUSH2 0x850 JUMP JUMPDEST PUSH2 0x2E2 PUSH2 0x103 JUMP JUMPDEST SWAP2 DUP3 SWAP2 DUP3 PUSH2 0x2A9 JUMP JUMPDEST SUB SWAP1 RETURN JUMPDEST PUSH2 0x109 JUMP JUMPDEST SWAP1 PUSH1 0x20 DUP3 DUP3 SUB SLT PUSH2 0x30E JUMPI PUSH2 0x30B SWAP2 PUSH1 0x0 ADD PUSH2 0x226 JUMP JUMPDEST SWAP1 JUMP JUMPDEST PUSH2 0x10E JUMP JUMPDEST CALLVALUE PUSH2 0x343 JUMPI PUSH2 0x33F PUSH2 0x32E PUSH2 0x329 CALLDATASIZE PUSH1 0x4 PUSH2 0x2F4 JUMP JUMPDEST PUSH2 0x866 JUMP JUMPDEST PUSH2 0x336 PUSH2 0x103 JUMP JUMPDEST SWAP2 DUP3 SWAP2 DUP3 PUSH2 0x1AF JUMP JUMPDEST SUB SWAP1 RETURN JUMPDEST PUSH2 0x109 JUMP JUMPDEST CALLVALUE PUSH2 0x376 JUMPI PUSH2 0x360 PUSH2 0x35B CALLDATASIZE PUSH1 0x4 PUSH2 0x183 JUMP JUMPDEST PUSH2 0xBF1 JUMP JUMPDEST PUSH2 0x368 PUSH2 0x103 JUMP JUMPDEST DUP1 PUSH2 0x372 DUP2 PUSH2 0x123 JUMP JUMPDEST SUB SWAP1 RETURN JUMPDEST PUSH2 0x109 JUMP JUMPDEST CALLVALUE PUSH2 0x3A9 JUMPI PUSH2 0x38B CALLDATASIZE PUSH1 0x4 PUSH2 0x113 JUMP JUMPDEST PUSH2 0x393 PUSH2 0xC4A JUMP JUMPDEST PUSH2 0x39B PUSH2 0x103 JUMP JUMPDEST DUP1 PUSH2 0x3A5 DUP2 PUSH2 0x123 JUMP JUMPDEST SUB SWAP1 RETURN JUMPDEST PUSH2 0x109 JUMP JUMPDEST CALLVALUE PUSH2 0x3DC JUMPI PUSH2 0x3BE CALLDATASIZE PUSH1 0x4 PUSH2 0x113 JUMP JUMPDEST PUSH2 0x3C6 PUSH2 0xCA6 JUMP JUMPDEST PUSH2 0x3CE PUSH2 0x103 JUMP JUMPDEST DUP1 PUSH2 0x3D8 DUP2 PUSH2 0x123 JUMP JUMPDEST SUB SWAP1 RETURN JUMPDEST PUSH2 0x109 JUMP JUMPDEST PUSH2 0x3EA SWAP1 PUSH2 0x205 JUMP JUMPDEST SWAP1 MSTORE JUMP JUMPDEST SWAP2 SWAP1 PUSH2 0x402 SWAP1 PUSH1 0x0 PUSH1 0x20 DUP6 ADD SWAP5 ADD SWAP1 PUSH2 0x3E1 JUMP JUMPDEST JUMP JUMPDEST CALLVALUE PUSH2 0x434 JUMPI PUSH2 0x414 CALLDATASIZE PUSH1 0x4 PUSH2 0x113 JUMP JUMPDEST PUSH2 0x430 PUSH2 0x41F PUSH2 0xCE1 JUMP JUMPDEST PUSH2 0x427 PUSH2 0x103 JUMP JUMPDEST SWAP2 DUP3 SWAP2 DUP3 PUSH2 0x3EE JUMP JUMPDEST SUB SWAP1 RETURN JUMPDEST PUSH2 0x109 JUMP JUMPDEST CALLVALUE PUSH2 0x468 JUMPI PUSH2 0x452 PUSH2 0x44C CALLDATASIZE PUSH1 0x4 PUSH2 0x235 JUMP JUMPDEST SWAP1 PUSH2 0xE03 JUMP JUMPDEST PUSH2 0x45A PUSH2 0x103 JUMP JUMPDEST DUP1 PUSH2 0x464 DUP2 PUSH2 0x123 JUMP JUMPDEST SUB SWAP1 RETURN JUMPDEST PUSH2 0x109 JUMP JUMPDEST CALLVALUE PUSH2 0x49B JUMPI PUSH2 0x485 PUSH2 0x480 CALLDATASIZE PUSH1 0x4 PUSH2 0x183 JUMP JUMPDEST PUSH2 0xE68 JUMP JUMPDEST PUSH2 0x48D PUSH2 0x103 JUMP JUMPDEST DUP1 PUSH2 0x497 DUP2 PUSH2 0x123 JUMP JUMPDEST SUB SWAP1 RETURN JUMPDEST PUSH2 0x109 JUMP JUMPDEST CALLVALUE PUSH2 0x4CE JUMPI PUSH2 0x4B8 PUSH2 0x4B3 CALLDATASIZE PUSH1 0x4 PUSH2 0x183 JUMP JUMPDEST PUSH2 0x10E0 JUMP JUMPDEST PUSH2 0x4C0 PUSH2 0x103 JUMP JUMPDEST DUP1 PUSH2 0x4CA DUP2 PUSH2 0x123 JUMP JUMPDEST SUB SWAP1 RETURN JUMPDEST PUSH2 0x109 JUMP JUMPDEST CALLVALUE PUSH2 0x501 JUMPI PUSH2 0x4EB PUSH2 0x4E6 CALLDATASIZE PUSH1 0x4 PUSH2 0x2F4 JUMP JUMPDEST PUSH2 0x1153 JUMP JUMPDEST PUSH2 0x4F3 PUSH2 0x103 JUMP JUMPDEST DUP1 PUSH2 0x4FD DUP2 PUSH2 0x123 JUMP JUMPDEST SUB SWAP1 RETURN JUMPDEST PUSH2 0x109 JUMP JUMPDEST CALLVALUE PUSH2 0x534 JUMPI PUSH2 0x51E PUSH2 0x519 CALLDATASIZE PUSH1 0x4 PUSH2 0x183 JUMP JUMPDEST PUSH2 0x1361 JUMP JUMPDEST PUSH2 0x526 PUSH2 0x103 JUMP JUMPDEST DUP1 PUSH2 0x530 DUP2 PUSH2 0x123 JUMP JUMPDEST SUB SWAP1 RETURN JUMPDEST PUSH2 0x109 JUMP JUMPDEST PUSH1 0x0 DUP1 REVERT JUMPDEST PUSH2 0x546 PUSH2 0x136C JUMP JUMPDEST PUSH2 0x54E PUSH2 0x550 JUMP JUMPDEST JUMP JUMPDEST PUSH2 0x558 PUSH2 0x1469 JUMP JUMPDEST PUSH32 0xE5E3B3FB504C22CF5C42FA07D521225937514C654007E1F12646F89768D6F94 PUSH2 0x581 PUSH2 0x103 JUMP JUMPDEST DUP1 PUSH2 0x58B DUP2 PUSH2 0x123 JUMP JUMPDEST SUB SWAP1 LOG1 JUMP JUMPDEST PUSH2 0x598 PUSH2 0x53E JUMP JUMPDEST JUMP JUMPDEST PUSH1 0x0 SWAP1 JUMP JUMPDEST PUSH1 0x0 SHR SWAP1 JUMP JUMPDEST SWAP1 JUMP JUMPDEST PUSH2 0x5B4 PUSH2 0x5B9 SWAP2 PUSH2 0x59F JUMP JUMPDEST PUSH2 0x5A5 JUMP JUMPDEST SWAP1 JUMP JUMPDEST PUSH2 0x5C6 SWAP1 SLOAD PUSH2 0x5A8 JUMP JUMPDEST SWAP1 JUMP JUMPDEST SWAP1 JUMP JUMPDEST SWAP1 JUMP JUMPDEST PUSH2 0x5E3 PUSH2 0x5DE PUSH2 0x5E8 SWAP3 PUSH2 0x5C9 JUMP JUMPDEST PUSH2 0x5CC JUMP JUMPDEST PUSH2 0x15C JUMP JUMPDEST SWAP1 JUMP JUMPDEST PUSH4 0x4E487B71 PUSH1 0xE0 SHL PUSH1 0x0 MSTORE PUSH1 0x11 PUSH1 0x4 MSTORE PUSH1 0x24 PUSH1 0x0 REVERT JUMPDEST PUSH2 0x610 PUSH2 0x616 SWAP2 SWAP4 SWAP3 SWAP4 PUSH2 0x15C JUMP JUMPDEST SWAP3 PUSH2 0x15C JUMP JUMPDEST SWAP2 PUSH2 0x622 DUP4 DUP3 MUL PUSH2 0x15C JUMP JUMPDEST SWAP3 DUP2 DUP5 DIV EQ SWAP1 ISZERO OR ISZERO PUSH2 0x631 JUMPI JUMP JUMPDEST PUSH2 0x5EB JUMP JUMPDEST PUSH2 0x63E PUSH2 0x59A JUMP JUMPDEST POP PUSH2 0x649 PUSH1 0x3 PUSH2 0x5BC JUMP JUMPDEST PUSH2 0x65C PUSH2 0x656 PUSH1 0x0 PUSH2 0x5CF JUMP JUMPDEST SWAP2 PUSH2 0x15C JUMP JUMPDEST EQ PUSH2 0x678 JUMPI PUSH2 0x675 SWAP1 PUSH2 0x66F PUSH1 0x3 PUSH2 0x5BC JUMP JUMPDEST SWAP1 PUSH2 0x601 JUMP JUMPDEST SWAP1 JUMP JUMPDEST POP PUSH2 0x683 PUSH1 0x0 PUSH2 0x5CF JUMP JUMPDEST SWAP1 JUMP JUMPDEST SWAP1 PUSH2 0x698 SWAP2 PUSH2 0x693 PUSH2 0x136C JUMP JUMPDEST PUSH2 0x767 JUMP JUMPDEST JUMP JUMPDEST PUSH2 0x6AE PUSH2 0x6A9 PUSH2 0x6B3 SWAP3 PUSH2 0x1FA JUMP JUMPDEST PUSH2 0x5CC JUMP JUMPDEST PUSH2 0x1FA JUMP JUMPDEST SWAP1 JUMP JUMPDEST PUSH2 0x6BF SWAP1 PUSH2 0x69A JUMP JUMPDEST SWAP1 JUMP JUMPDEST PUSH2 0x6CB SWAP1 PUSH2 0x6B6 JUMP JUMPDEST SWAP1 JUMP JUMPDEST SWAP1 PUSH2 0x6D8 SWAP1 PUSH2 0x6C2 JUMP JUMPDEST PUSH1 0x0 MSTORE PUSH1 0x20 MSTORE PUSH1 0x40 PUSH1 0x0 KECCAK256 SWAP1 JUMP JUMPDEST PUSH2 0x6F5 PUSH2 0x6FB SWAP2 SWAP4 SWAP3 SWAP4 PUSH2 0x15C JUMP JUMPDEST SWAP3 PUSH2 0x15C JUMP JUMPDEST DUP3 ADD DUP1 SWAP3 GT PUSH2 0x706 JUMPI JUMP JUMPDEST PUSH2 0x5EB JUMP JUMPDEST PUSH1 0x0 SHL SWAP1 JUMP JUMPDEST SWAP1 PUSH2 0x71E PUSH1 0x0 NOT SWAP2 PUSH2 0x70B JUMP JUMPDEST SWAP2 DUP2 NOT AND SWAP2 AND OR SWAP1 JUMP JUMPDEST PUSH2 0x73C PUSH2 0x737 PUSH2 0x741 SWAP3 PUSH2 0x15C JUMP JUMPDEST PUSH2 0x5CC JUMP JUMPDEST PUSH2 0x15C JUMP JUMPDEST SWAP1 JUMP JUMPDEST SWAP1 JUMP JUMPDEST SWAP1 PUSH2 0x75C PUSH2 0x757 PUSH2 0x763 SWAP3 PUSH2 0x728 JUMP JUMPDEST PUSH2 0x744 JUMP JUMPDEST DUP3 SLOAD PUSH2 0x711 JUMP JUMPDEST SWAP1 SSTORE JUMP JUMPDEST PUSH2 0x770 DUP2 PUSH2 0x1473 JUMP JUMPDEST DUP2 PUSH2 0x784 PUSH2 0x77E PUSH1 0x0 PUSH2 0x5CF JUMP JUMPDEST SWAP2 PUSH2 0x15C JUMP JUMPDEST EQ PUSH2 0x7F5 JUMPI PUSH2 0x7B1 DUP3 PUSH2 0x7AB PUSH2 0x79C PUSH1 0x2 DUP6 SWAP1 PUSH2 0x6CE JUMP JUMPDEST SWAP2 PUSH2 0x7A6 DUP4 PUSH2 0x5BC JUMP JUMPDEST PUSH2 0x6E6 JUMP JUMPDEST SWAP1 PUSH2 0x747 JUMP JUMPDEST PUSH2 0x7F0 PUSH2 0x7DE PUSH32 0xFE6FCB45ADAAA54F7E3491F6A7964049817F1E437F33587E634A4629FBCF3A6 SWAP3 PUSH2 0x6C2 JUMP JUMPDEST SWAP3 PUSH2 0x7E7 PUSH2 0x103 JUMP JUMPDEST SWAP2 DUP3 SWAP2 DUP3 PUSH2 0x1AF JUMP JUMPDEST SUB SWAP1 LOG2 JUMP JUMPDEST PUSH1 0x0 PUSH4 0x162908E3 PUSH1 0xE1 SHL DUP2 MSTORE DUP1 PUSH2 0x80E PUSH1 0x4 DUP3 ADD PUSH2 0x123 JUMP JUMPDEST SUB SWAP1 REVERT JUMPDEST SWAP1 PUSH2 0x81C SWAP2 PUSH2 0x686 JUMP JUMPDEST JUMP JUMPDEST PUSH1 0x0 SWAP1 JUMP JUMPDEST PUSH1 0xA0 SHR SWAP1 JUMP JUMPDEST PUSH1 0xFF AND SWAP1 JUMP JUMPDEST PUSH2 0x83B PUSH2 0x840 SWAP2 PUSH2 0x823 JUMP JUMPDEST PUSH2 0x829 JUMP JUMPDEST SWAP1 JUMP JUMPDEST PUSH2 0x84D SWAP1 SLOAD PUSH2 0x82F JUMP JUMPDEST SWAP1 JUMP JUMPDEST PUSH2 0x858 PUSH2 0x81E JUMP JUMPDEST POP PUSH2 0x863 PUSH1 0x0 PUSH2 0x843 JUMP JUMPDEST SWAP1 JUMP JUMPDEST PUSH2 0x87D PUSH2 0x882 SWAP2 PUSH2 0x875 PUSH2 0x59A JUMP JUMPDEST POP PUSH1 0x2 PUSH2 0x6CE JUMP JUMPDEST PUSH2 0x5BC JUMP JUMPDEST SWAP1 JUMP JUMPDEST PUSH2 0x896 SWAP1 PUSH2 0x891 PUSH2 0x14B2 JUMP JUMPDEST PUSH2 0x898 JUMP JUMPDEST JUMP JUMPDEST PUSH2 0x8A9 SWAP1 PUSH2 0x8A4 PUSH2 0x1509 JUMP JUMPDEST PUSH2 0x9CE JUMP JUMPDEST PUSH2 0x8B1 PUSH2 0x158E JUMP JUMPDEST JUMP JUMPDEST SWAP2 PUSH1 0x20 PUSH2 0x8D5 SWAP3 SWAP5 SWAP4 PUSH2 0x8CE PUSH1 0x40 DUP3 ADD SWAP7 PUSH1 0x0 DUP4 ADD SWAP1 PUSH2 0x1A2 JUMP JUMPDEST ADD SWAP1 PUSH2 0x1A2 JUMP JUMPDEST JUMP JUMPDEST PUSH1 0x1 DUP1 PUSH1 0xA0 SHL SUB AND SWAP1 JUMP JUMPDEST PUSH2 0x8EE PUSH2 0x8F3 SWAP2 PUSH2 0x59F JUMP JUMPDEST PUSH2 0x8D7 JUMP JUMPDEST SWAP1 JUMP JUMPDEST PUSH2 0x900 SWAP1 SLOAD PUSH2 0x8E2 JUMP JUMPDEST SWAP1 JUMP JUMPDEST PUSH2 0x90C SWAP1 PUSH2 0x6B6 JUMP JUMPDEST SWAP1 JUMP JUMPDEST PUSH2 0x918 SWAP1 PUSH2 0x6B6 JUMP JUMPDEST SWAP1 JUMP JUMPDEST PUSH1 0x1F DUP1 NOT SWAP2 ADD AND SWAP1 JUMP JUMPDEST PUSH4 0x4E487B71 PUSH1 0xE0 SHL PUSH1 0x0 MSTORE PUSH1 0x41 PUSH1 0x4 MSTORE PUSH1 0x24 PUSH1 0x0 REVERT JUMPDEST SWAP1 PUSH2 0x945 SWAP1 PUSH2 0x91B JUMP JUMPDEST DUP2 ADD SWAP1 DUP2 LT PUSH8 0xFFFFFFFFFFFFFFFF DUP3 GT OR PUSH2 0x95F JUMPI PUSH1 0x40 MSTORE JUMP JUMPDEST PUSH2 0x925 JUMP JUMPDEST PUSH1 0xE0 SHL SWAP1 JUMP JUMPDEST SWAP1 POP MLOAD SWAP1 PUSH2 0x977 DUP3 PUSH2 0x15F JUMP JUMPDEST JUMP JUMPDEST SWAP1 PUSH1 0x20 DUP3 DUP3 SUB SLT PUSH2 0x993 JUMPI PUSH2 0x990 SWAP2 PUSH1 0x0 ADD PUSH2 0x96A JUMP JUMPDEST SWAP1 JUMP JUMPDEST PUSH2 0x10E JUMP JUMPDEST PUSH2 0x9A0 PUSH2 0x103 JUMP JUMPDEST RETURNDATASIZE PUSH1 0x0 DUP3 RETURNDATACOPY RETURNDATASIZE SWAP1 REVERT JUMPDEST PUSH2 0x9B8 PUSH2 0x9BE SWAP2 SWAP4 SWAP3 SWAP4 PUSH2 0x15C JUMP JUMPDEST SWAP3 PUSH2 0x15C JUMP JUMPDEST DUP3 SUB SWAP2 DUP3 GT PUSH2 0x9C9 JUMPI JUMP JUMPDEST PUSH2 0x5EB JUMP JUMPDEST PUSH2 0x9D7 CALLER PUSH2 0x1473 JUMP JUMPDEST DUP1 PUSH2 0x9EB PUSH2 0x9E5 PUSH1 0x0 PUSH2 0x5CF JUMP JUMPDEST SWAP2 PUSH2 0x15C JUMP JUMPDEST EQ PUSH2 0xBD4 JUMPI PUSH2 0x9FA PUSH1 0x3 PUSH2 0x5BC JUMP JUMPDEST PUSH2 0xA0D PUSH2 0xA07 PUSH1 0x0 PUSH2 0x5CF JUMP JUMPDEST SWAP2 PUSH2 0x15C JUMP JUMPDEST EQ PUSH2 0xBB7 JUMPI PUSH2 0xA26 PUSH2 0xA21 PUSH1 0x2 CALLER SWAP1 PUSH2 0x6CE JUMP JUMPDEST PUSH2 0x5BC JUMP JUMPDEST DUP1 PUSH2 0xA39 PUSH2 0xA33 DUP5 PUSH2 0x15C JUMP JUMPDEST SWAP2 PUSH2 0x15C JUMP JUMPDEST LT PUSH2 0xB97 JUMPI POP PUSH2 0xA53 DUP2 PUSH2 0xA4D PUSH1 0x3 PUSH2 0x5BC JUMP JUMPDEST SWAP1 PUSH2 0x601 JUMP JUMPDEST SWAP1 PUSH2 0xA9D PUSH1 0x20 PUSH2 0xA6B PUSH2 0xA66 PUSH1 0x4 PUSH2 0x8F6 JUMP JUMPDEST PUSH2 0x903 JUMP JUMPDEST PUSH4 0x70A08231 SWAP1 PUSH2 0xA92 PUSH2 0xA7D ADDRESS PUSH2 0x90F JUMP JUMPDEST SWAP3 PUSH2 0xA86 PUSH2 0x103 JUMP JUMPDEST SWAP6 DUP7 SWAP5 DUP6 SWAP4 DUP5 SWAP4 PUSH2 0x964 JUMP JUMPDEST DUP4 MSTORE PUSH1 0x4 DUP4 ADD PUSH2 0x3EE JUMP JUMPDEST SUB SWAP2 GAS STATICCALL SWAP1 DUP2 ISZERO PUSH2 0xB92 JUMPI PUSH1 0x0 SWAP2 PUSH2 0xB64 JUMPI JUMPDEST POP DUP1 PUSH2 0xAC4 PUSH2 0xABE DUP6 PUSH2 0x15C JUMP JUMPDEST SWAP2 PUSH2 0x15C JUMP JUMPDEST LT PUSH2 0xB44 JUMPI POP PUSH2 0xAF2 DUP2 PUSH2 0xAEC PUSH2 0xADD PUSH1 0x2 CALLER SWAP1 PUSH2 0x6CE JUMP JUMPDEST SWAP2 PUSH2 0xAE7 DUP4 PUSH2 0x5BC JUMP JUMPDEST PUSH2 0x9A9 JUMP JUMPDEST SWAP1 PUSH2 0x747 JUMP JUMPDEST PUSH2 0xAFD CALLER DUP4 SWAP1 PUSH2 0x15A2 JUMP JUMPDEST CALLER SWAP1 SWAP2 PUSH2 0xB2A PUSH32 0xEB9A8C68A32BC6989217E69F932CF098FF5D0E2F11305800394C73B554D2CE9E SWAP3 PUSH2 0x6C2 JUMP JUMPDEST SWAP3 PUSH2 0xB3F PUSH2 0xB36 PUSH2 0x103 JUMP JUMPDEST SWAP3 DUP4 SWAP3 DUP4 PUSH2 0x8B3 JUMP JUMPDEST SUB SWAP1 LOG2 JUMP JUMPDEST DUP3 PUSH2 0xB60 PUSH1 0x0 SWAP3 DUP4 SWAP3 PUSH4 0x722F6B3 PUSH1 0xE1 SHL DUP5 MSTORE PUSH1 0x4 DUP5 ADD PUSH2 0x8B3 JUMP JUMPDEST SUB SWAP1 REVERT JUMPDEST PUSH2 0xB85 SWAP2 POP PUSH1 0x20 RETURNDATASIZE DUP2 GT PUSH2 0xB8B JUMPI JUMPDEST PUSH2 0xB7D DUP2 DUP4 PUSH2 0x93B JUMP JUMPDEST DUP2 ADD SWAP1 PUSH2 0x979 JUMP JUMPDEST CODESIZE PUSH2 0xAB0 JUMP JUMPDEST POP RETURNDATASIZE PUSH2 0xB73 JUMP JUMPDEST PUSH2 0x998 JUMP JUMPDEST SWAP1 PUSH2 0xBB3 PUSH1 0x0 SWAP3 DUP4 SWAP3 PUSH4 0x8059C747 PUSH1 0xE0 SHL DUP5 MSTORE PUSH1 0x4 DUP5 ADD PUSH2 0x8B3 JUMP JUMPDEST SUB SWAP1 REVERT JUMPDEST PUSH1 0x0 PUSH4 0x62F216E5 PUSH1 0xE0 SHL DUP2 MSTORE DUP1 PUSH2 0xBD0 PUSH1 0x4 DUP3 ADD PUSH2 0x123 JUMP JUMPDEST SUB SWAP1 REVERT JUMPDEST PUSH1 0x0 PUSH4 0x162908E3 PUSH1 0xE1 SHL DUP2 MSTORE DUP1 PUSH2 0xBED PUSH1 0x4 DUP3 ADD PUSH2 0x123 JUMP JUMPDEST SUB SWAP1 REVERT JUMPDEST PUSH2 0xBFA SWAP1 PUSH2 0x885 JUMP JUMPDEST JUMP JUMPDEST PUSH2 0xC04 PUSH2 0x136C JUMP JUMPDEST PUSH2 0xC0C PUSH2 0xC36 JUMP JUMPDEST JUMP JUMPDEST PUSH2 0xC22 PUSH2 0xC1D PUSH2 0xC27 SWAP3 PUSH2 0x5C9 JUMP JUMPDEST PUSH2 0x5CC JUMP JUMPDEST PUSH2 0x1FA JUMP JUMPDEST SWAP1 JUMP JUMPDEST PUSH2 0xC33 SWAP1 PUSH2 0xC0E JUMP JUMPDEST SWAP1 JUMP JUMPDEST PUSH2 0xC48 PUSH2 0xC43 PUSH1 0x0 PUSH2 0xC2A JUMP JUMPDEST PUSH2 0x172D JUMP JUMPDEST JUMP JUMPDEST PUSH2 0xC52 PUSH2 0xBFC JUMP JUMPDEST JUMP JUMPDEST PUSH2 0xC5C PUSH2 0x136C JUMP JUMPDEST PUSH2 0xC64 PUSH2 0xC66 JUMP JUMPDEST JUMP JUMPDEST PUSH2 0xC6E PUSH2 0x17EF JUMP JUMPDEST PUSH32 0xAB35696F06E428EBC5CEBA8CD17F8FED287BAF43440206D1943AF1EE53E6D267 PUSH2 0xC97 PUSH2 0x103 JUMP JUMPDEST DUP1 PUSH2 0xCA1 DUP2 PUSH2 0x123 JUMP JUMPDEST SUB SWAP1 LOG1 JUMP JUMPDEST PUSH2 0xCAE PUSH2 0xC54 JUMP JUMPDEST JUMP JUMPDEST PUSH1 0x0 SWAP1 JUMP JUMPDEST PUSH1 0x1 DUP1 PUSH1 0xA0 SHL SUB AND SWAP1 JUMP JUMPDEST PUSH2 0xCCC PUSH2 0xCD1 SWAP2 PUSH2 0x59F JUMP JUMPDEST PUSH2 0xCB5 JUMP JUMPDEST SWAP1 JUMP JUMPDEST PUSH2 0xCDE SWAP1 SLOAD PUSH2 0xCC0 JUMP JUMPDEST SWAP1 JUMP JUMPDEST PUSH2 0xCE9 PUSH2 0xCB0 JUMP JUMPDEST POP PUSH2 0xCF4 PUSH1 0x0 PUSH2 0xCD4 JUMP JUMPDEST SWAP1 JUMP JUMPDEST SWAP1 PUSH2 0xD09 SWAP2 PUSH2 0xD04 PUSH2 0x136C JUMP JUMPDEST PUSH2 0xD0B JUMP JUMPDEST JUMP JUMPDEST PUSH2 0xD14 DUP2 PUSH2 0x1473 JUMP JUMPDEST DUP2 PUSH2 0xD28 PUSH2 0xD22 PUSH1 0x0 PUSH2 0x5CF JUMP JUMPDEST SWAP2 PUSH2 0x15C JUMP JUMPDEST EQ PUSH2 0xDE6 JUMPI PUSH2 0xD41 PUSH2 0xD3C PUSH1 0x2 DUP4 SWAP1 PUSH2 0x6CE JUMP JUMPDEST PUSH2 0x5BC JUMP JUMPDEST DUP1 PUSH2 0xD54 PUSH2 0xD4E DUP6 PUSH2 0x15C JUMP JUMPDEST SWAP2 PUSH2 0x15C JUMP JUMPDEST LT PUSH2 0xDC6 JUMPI POP PUSH2 0xD82 DUP3 PUSH2 0xD7C PUSH2 0xD6D PUSH1 0x2 DUP6 SWAP1 PUSH2 0x6CE JUMP JUMPDEST SWAP2 PUSH2 0xD77 DUP4 PUSH2 0x5BC JUMP JUMPDEST PUSH2 0x9A9 JUMP JUMPDEST SWAP1 PUSH2 0x747 JUMP JUMPDEST PUSH2 0xDC1 PUSH2 0xDAF PUSH32 0xF9352367BD3BE481E8F66E7940F6EA5B57FEA7504271B1F2863A535443FD2BAB SWAP3 PUSH2 0x6C2 JUMP JUMPDEST SWAP3 PUSH2 0xDB8 PUSH2 0x103 JUMP JUMPDEST SWAP2 DUP3 SWAP2 DUP3 PUSH2 0x1AF JUMP JUMPDEST SUB SWAP1 LOG2 JUMP JUMPDEST DUP3 PUSH2 0xDE2 PUSH1 0x0 SWAP3 DUP4 SWAP3 PUSH4 0x8059C747 PUSH1 0xE0 SHL DUP5 MSTORE PUSH1 0x4 DUP5 ADD PUSH2 0x8B3 JUMP JUMPDEST SUB SWAP1 REVERT JUMPDEST PUSH1 0x0 PUSH4 0x162908E3 PUSH1 0xE1 SHL DUP2 MSTORE DUP1 PUSH2 0xDFF PUSH1 0x4 DUP3 ADD PUSH2 0x123 JUMP JUMPDEST SUB SWAP1 REVERT JUMPDEST SWAP1 PUSH2 0xE0D SWAP2 PUSH2 0xCF7 JUMP JUMPDEST JUMP JUMPDEST PUSH2 0xE20 SWAP1 PUSH2 0xE1B PUSH2 0x136C JUMP JUMPDEST PUSH2 0xE22 JUMP JUMPDEST JUMP JUMPDEST PUSH2 0xE2D DUP2 PUSH1 0x3 PUSH2 0x747 JUMP JUMPDEST PUSH2 0xE63 PUSH32 0x972ABA470577C14606BBF4BBDEC1FED4925F242FCEF40B4A8D242983365D0291 SWAP2 PUSH2 0xE5A PUSH2 0x103 JUMP JUMPDEST SWAP2 DUP3 SWAP2 DUP3 PUSH2 0x1AF JUMP JUMPDEST SUB SWAP1 LOG1 JUMP JUMPDEST PUSH2 0xE71 SWAP1 PUSH2 0xE0F JUMP JUMPDEST JUMP JUMPDEST PUSH2 0xE84 SWAP1 PUSH2 0xE7F PUSH2 0x136C JUMP JUMPDEST PUSH2 0xEED JUMP JUMPDEST JUMP JUMPDEST PUSH2 0xE8F DUP2 PUSH2 0x297 JUMP JUMPDEST SUB PUSH2 0xE96 JUMPI JUMP JUMPDEST PUSH1 0x0 DUP1 REVERT JUMPDEST SWAP1 POP MLOAD SWAP1 PUSH2 0xEA8 DUP3 PUSH2 0xE86 JUMP JUMPDEST JUMP JUMPDEST SWAP1 PUSH1 0x20 DUP3 DUP3 SUB SLT PUSH2 0xEC4 JUMPI PUSH2 0xEC1 SWAP2 PUSH1 0x0 ADD PUSH2 0xE9B JUMP JUMPDEST SWAP1 JUMP JUMPDEST PUSH2 0x10E JUMP JUMPDEST SWAP2 PUSH1 0x20 PUSH2 0xEEB SWAP3 SWAP5 SWAP4 PUSH2 0xEE4 PUSH1 0x40 DUP3 ADD SWAP7 PUSH1 0x0 DUP4 ADD SWAP1 PUSH2 0x3E1 JUMP JUMPDEST ADD SWAP1 PUSH2 0x1A2 JUMP JUMPDEST JUMP JUMPDEST DUP1 PUSH2 0xF01 PUSH2 0xEFB PUSH1 0x0 PUSH2 0x5CF JUMP JUMPDEST SWAP2 PUSH2 0x15C JUMP JUMPDEST EQ PUSH2 0x10C3 JUMPI PUSH2 0xF4F PUSH1 0x20 PUSH2 0xF1D PUSH2 0xF18 PUSH1 0x4 PUSH2 0x8F6 JUMP JUMPDEST PUSH2 0x903 JUMP JUMPDEST PUSH4 0x70A08231 SWAP1 PUSH2 0xF44 PUSH2 0xF2F ADDRESS PUSH2 0x90F JUMP JUMPDEST SWAP3 PUSH2 0xF38 PUSH2 0x103 JUMP JUMPDEST SWAP6 DUP7 SWAP5 DUP6 SWAP4 DUP5 SWAP4 PUSH2 0x964 JUMP JUMPDEST DUP4 MSTORE PUSH1 0x4 DUP4 ADD PUSH2 0x3EE JUMP JUMPDEST SUB SWAP2 GAS STATICCALL SWAP1 DUP2 ISZERO PUSH2 0x10BE JUMPI PUSH1 0x0 SWAP2 PUSH2 0x1090 JUMPI JUMPDEST POP DUP1 PUSH2 0xF76 PUSH2 0xF70 DUP5 PUSH2 0x15C JUMP JUMPDEST SWAP2 PUSH2 0x15C JUMP JUMPDEST LT PUSH2 0x1070 JUMPI PUSH2 0xF8D PUSH2 0xF88 PUSH1 0x4 PUSH2 0x8F6 JUMP JUMPDEST PUSH2 0x903 JUMP JUMPDEST PUSH1 0x20 PUSH4 0xA9059CBB SWAP2 CALLER SWAP1 PUSH2 0xFB5 PUSH1 0x0 DUP8 SWAP6 PUSH2 0xFC0 PUSH2 0xFA9 PUSH2 0x103 JUMP JUMPDEST SWAP8 DUP9 SWAP7 DUP8 SWAP6 DUP7 SWAP5 PUSH2 0x964 JUMP JUMPDEST DUP5 MSTORE PUSH1 0x4 DUP5 ADD PUSH2 0xEC9 JUMP JUMPDEST SUB SWAP3 GAS CALL DUP1 ISZERO PUSH2 0x106B JUMPI PUSH2 0xFDD SWAP2 PUSH1 0x0 SWAP2 PUSH2 0x103D JUMPI JUMPDEST POP ISZERO PUSH2 0x297 JUMP JUMPDEST PUSH2 0x101D JUMPI POP PUSH2 0x1018 PUSH32 0x4EACC637A5FB1DBBC94595A9432E0A8D75AE5D51D189021963A6CC8575465DDF SWAP2 PUSH2 0x100F PUSH2 0x103 JUMP JUMPDEST SWAP2 DUP3 SWAP2 DUP3 PUSH2 0x1AF JUMP JUMPDEST SUB SWAP1 LOG1 JUMP JUMPDEST SWAP1 PUSH2 0x1039 PUSH1 0x0 SWAP3 DUP4 SWAP3 PUSH4 0x722F6B3 PUSH1 0xE1 SHL DUP5 MSTORE PUSH1 0x4 DUP5 ADD PUSH2 0x8B3 JUMP JUMPDEST SUB SWAP1 REVERT JUMPDEST PUSH2 0x105E SWAP2 POP PUSH1 0x20 RETURNDATASIZE DUP2 GT PUSH2 0x1064 JUMPI JUMPDEST PUSH2 0x1056 DUP2 DUP4 PUSH2 0x93B JUMP JUMPDEST DUP2 ADD SWAP1 PUSH2 0xEAA JUMP JUMPDEST CODESIZE PUSH2 0xFD6 JUMP JUMPDEST POP RETURNDATASIZE PUSH2 0x104C JUMP JUMPDEST PUSH2 0x998 JUMP JUMPDEST SWAP1 PUSH2 0x108C PUSH1 0x0 SWAP3 DUP4 SWAP3 PUSH4 0x722F6B3 PUSH1 0xE1 SHL DUP5 MSTORE PUSH1 0x4 DUP5 ADD PUSH2 0x8B3 JUMP JUMPDEST SUB SWAP1 REVERT JUMPDEST PUSH2 0x10B1 SWAP2 POP PUSH1 0x20 RETURNDATASIZE DUP2 GT PUSH2 0x10B7 JUMPI JUMPDEST PUSH2 0x10A9 DUP2 DUP4 PUSH2 0x93B JUMP JUMPDEST DUP2 ADD SWAP1 PUSH2 0x979 JUMP JUMPDEST CODESIZE PUSH2 0xF62 JUMP JUMPDEST POP RETURNDATASIZE PUSH2 0x109F JUMP JUMPDEST PUSH2 0x998 JUMP JUMPDEST PUSH1 0x0 PUSH4 0x162908E3 PUSH1 0xE1 SHL DUP2 MSTORE DUP1 PUSH2 0x10DC PUSH1 0x4 DUP3 ADD PUSH2 0x123 JUMP JUMPDEST SUB SWAP1 REVERT JUMPDEST PUSH2 0x10E9 SWAP1 PUSH2 0xE73 JUMP JUMPDEST JUMP JUMPDEST PUSH2 0x10FC SWAP1 PUSH2 0x10F7 PUSH2 0x136C JUMP JUMPDEST PUSH2 0x10FE JUMP JUMPDEST JUMP JUMPDEST DUP1 PUSH2 0x111A PUSH2 0x1114 PUSH2 0x110F PUSH1 0x0 PUSH2 0xC2A JUMP JUMPDEST PUSH2 0x205 JUMP JUMPDEST SWAP2 PUSH2 0x205 JUMP JUMPDEST EQ PUSH2 0x112A JUMPI PUSH2 0x1128 SWAP1 PUSH2 0x172D JUMP JUMPDEST JUMP JUMPDEST PUSH2 0x114F PUSH2 0x1137 PUSH1 0x0 PUSH2 0xC2A JUMP JUMPDEST PUSH1 0x0 SWAP2 DUP3 SWAP2 PUSH4 0x1E4FBDF7 PUSH1 0xE0 SHL DUP4 MSTORE PUSH1 0x4 DUP4 ADD PUSH2 0x3EE JUMP JUMPDEST SUB SWAP1 REVERT JUMPDEST PUSH2 0x115C SWAP1 PUSH2 0x10EB JUMP JUMPDEST JUMP JUMPDEST PUSH2 0x116F SWAP1 PUSH2 0x116A PUSH2 0x136C JUMP JUMPDEST PUSH2 0x11A4 JUMP JUMPDEST JUMP JUMPDEST PUSH1 0x40 SWAP1 PUSH2 0x119B PUSH2 0x11A2 SWAP5 SWAP7 SWAP6 SWAP4 SWAP7 PUSH2 0x1191 PUSH1 0x60 DUP5 ADD SWAP9 PUSH1 0x0 DUP6 ADD SWAP1 PUSH2 0x3E1 JUMP JUMPDEST PUSH1 0x20 DUP4 ADD SWAP1 PUSH2 0x3E1 JUMP JUMPDEST ADD SWAP1 PUSH2 0x1A2 JUMP JUMPDEST JUMP JUMPDEST DUP1 PUSH2 0x11B8 PUSH2 0x11B2 PUSH1 0x0 PUSH2 0x5CF JUMP JUMPDEST SWAP2 PUSH2 0x15C JUMP JUMPDEST EQ PUSH2 0x1344 JUMPI PUSH2 0x11CF PUSH2 0x11CA PUSH1 0x4 PUSH2 0x8F6 JUMP JUMPDEST PUSH2 0x903 JUMP JUMPDEST PUSH1 0x20 PUSH4 0x23B872DD SWAP2 CALLER SWAP1 PUSH2 0x1200 PUSH1 0x0 PUSH2 0x11E7 ADDRESS PUSH2 0x90F JUMP JUMPDEST SWAP6 PUSH2 0x120B DUP9 PUSH2 0x11F4 PUSH2 0x103 JUMP JUMPDEST SWAP9 DUP10 SWAP8 DUP9 SWAP7 DUP8 SWAP6 PUSH2 0x964 JUMP JUMPDEST DUP6 MSTORE PUSH1 0x4 DUP6 ADD PUSH2 0x1171 JUMP JUMPDEST SUB SWAP3 GAS CALL DUP1 ISZERO PUSH2 0x133F JUMPI PUSH2 0x1228 SWAP2 PUSH1 0x0 SWAP2 PUSH2 0x1311 JUMPI JUMPDEST POP ISZERO PUSH2 0x297 JUMP JUMPDEST PUSH2 0x1267 JUMPI PUSH2 0x1262 PUSH32 0xF920186940A9C60FF07B508B49BA5DCA2C647B29AEBFA69964B44E5E873A62C SWAP2 PUSH2 0x1259 PUSH2 0x103 JUMP JUMPDEST SWAP2 DUP3 SWAP2 DUP3 PUSH2 0x1AF JUMP JUMPDEST SUB SWAP1 LOG1 JUMP JUMPDEST PUSH2 0x12A9 SWAP1 PUSH1 0x20 PUSH2 0x127F PUSH2 0x127A PUSH1 0x4 PUSH2 0x8F6 JUMP JUMPDEST PUSH2 0x903 JUMP JUMPDEST PUSH4 0x70A08231 SWAP1 PUSH2 0x129E CALLER SWAP3 PUSH2 0x1292 PUSH2 0x103 JUMP JUMPDEST SWAP7 DUP8 SWAP5 DUP6 SWAP4 DUP5 SWAP4 PUSH2 0x964 JUMP JUMPDEST DUP4 MSTORE PUSH1 0x4 DUP4 ADD PUSH2 0x3EE JUMP JUMPDEST SUB SWAP2 GAS STATICCALL SWAP2 DUP3 ISZERO PUSH2 0x130C JUMPI PUSH1 0x0 SWAP3 PUSH2 0x12DC JUMPI JUMPDEST POP PUSH2 0x12D8 PUSH1 0x0 SWAP3 DUP4 SWAP3 PUSH4 0x722F6B3 PUSH1 0xE1 SHL DUP5 MSTORE PUSH1 0x4 DUP5 ADD PUSH2 0x8B3 JUMP JUMPDEST SUB SWAP1 REVERT JUMPDEST PUSH2 0x12FE SWAP2 SWAP3 POP PUSH1 0x20 RETURNDATASIZE DUP2 GT PUSH2 0x1305 JUMPI JUMPDEST PUSH2 0x12F6 DUP2 DUP4 PUSH2 0x93B JUMP JUMPDEST DUP2 ADD SWAP1 PUSH2 0x979 JUMP JUMPDEST SWAP1 DUP3 PUSH2 0x12BC JUMP JUMPDEST POP RETURNDATASIZE PUSH2 0x12EC JUMP JUMPDEST PUSH2 0x998 JUMP JUMPDEST PUSH2 0x1332 SWAP2 POP PUSH1 0x20 RETURNDATASIZE DUP2 GT PUSH2 0x1338 JUMPI JUMPDEST PUSH2 0x132A DUP2 DUP4 PUSH2 0x93B JUMP JUMPDEST DUP2 ADD SWAP1 PUSH2 0xEAA JUMP JUMPDEST CODESIZE PUSH2 0x1221 JUMP JUMPDEST POP RETURNDATASIZE PUSH2 0x1320 JUMP JUMPDEST PUSH2 0x998 JUMP JUMPDEST PUSH1 0x0 PUSH4 0x162908E3 PUSH1 0xE1 SHL DUP2 MSTORE DUP1 PUSH2 0x135D PUSH1 0x4 DUP3 ADD PUSH2 0x123 JUMP JUMPDEST SUB SWAP1 REVERT JUMPDEST PUSH2 0x136A SWAP1 PUSH2 0x115E JUMP JUMPDEST JUMP JUMPDEST PUSH2 0x1374 PUSH2 0xCE1 JUMP JUMPDEST PUSH2 0x138D PUSH2 0x1387 PUSH2 0x1382 PUSH2 0x17F9 JUMP JUMPDEST PUSH2 0x205 JUMP JUMPDEST SWAP2 PUSH2 0x205 JUMP JUMPDEST SUB PUSH2 0x1394 JUMPI JUMP JUMPDEST PUSH2 0x13B7 PUSH2 0x139F PUSH2 0x17F9 JUMP JUMPDEST PUSH1 0x0 SWAP2 DUP3 SWAP2 PUSH4 0x118CDAA7 PUSH1 0xE0 SHL DUP4 MSTORE PUSH1 0x4 DUP4 ADD PUSH2 0x3EE JUMP JUMPDEST SUB SWAP1 REVERT JUMPDEST PUSH2 0x13C3 PUSH2 0x1806 JUMP JUMPDEST PUSH2 0x13CB PUSH2 0x141B JUMP JUMPDEST JUMP JUMPDEST PUSH1 0xA0 SHL SWAP1 JUMP JUMPDEST SWAP1 PUSH2 0x13E2 PUSH1 0xFF PUSH1 0xA0 SHL SWAP2 PUSH2 0x13CD JUMP JUMPDEST SWAP2 DUP2 NOT AND SWAP2 AND OR SWAP1 JUMP JUMPDEST PUSH2 0x13F5 SWAP1 PUSH2 0x297 JUMP JUMPDEST SWAP1 JUMP JUMPDEST SWAP1 JUMP JUMPDEST SWAP1 PUSH2 0x1410 PUSH2 0x140B PUSH2 0x1417 SWAP3 PUSH2 0x13EC JUMP JUMPDEST PUSH2 0x13F8 JUMP JUMPDEST DUP3 SLOAD PUSH2 0x13D3 JUMP JUMPDEST SWAP1 SSTORE JUMP JUMPDEST PUSH2 0x1426 PUSH1 0x0 DUP1 PUSH2 0x13FB JUMP JUMPDEST PUSH2 0x142E PUSH2 0x17F9 JUMP JUMPDEST PUSH2 0x1464 PUSH32 0x5DB9EE0A495BF2E6FF9C91A7834C1BA4FDD244A5E8AA4E537BD38AEAE4B073AA SWAP2 PUSH2 0x145B PUSH2 0x103 JUMP JUMPDEST SWAP2 DUP3 SWAP2 DUP3 PUSH2 0x3EE JUMP JUMPDEST SUB SWAP1 LOG1 JUMP JUMPDEST PUSH2 0x1471 PUSH2 0x13BB JUMP JUMPDEST JUMP JUMPDEST PUSH2 0x148E PUSH2 0x1488 PUSH2 0x1483 PUSH1 0x0 PUSH2 0xC2A JUMP JUMPDEST PUSH2 0x205 JUMP JUMPDEST SWAP2 PUSH2 0x205 JUMP JUMPDEST EQ PUSH2 0x1495 JUMPI JUMP JUMPDEST PUSH1 0x0 PUSH4 0xE6C4247B PUSH1 0xE0 SHL DUP2 MSTORE DUP1 PUSH2 0x14AE PUSH1 0x4 DUP3 ADD PUSH2 0x123 JUMP JUMPDEST SUB SWAP1 REVERT JUMPDEST PUSH2 0x14BA PUSH2 0x850 JUMP JUMPDEST PUSH2 0x14C0 JUMPI JUMP JUMPDEST PUSH1 0x0 PUSH4 0xD93C0665 PUSH1 0xE0 SHL DUP2 MSTORE DUP1 PUSH2 0x14D9 PUSH1 0x4 DUP3 ADD PUSH2 0x123 JUMP JUMPDEST SUB SWAP1 REVERT JUMPDEST SWAP1 JUMP JUMPDEST PUSH2 0x14F4 PUSH2 0x14EF PUSH2 0x14F9 SWAP3 PUSH2 0x14DD JUMP JUMPDEST PUSH2 0x5CC JUMP JUMPDEST PUSH2 0x15C JUMP JUMPDEST SWAP1 JUMP JUMPDEST PUSH2 0x1506 PUSH1 0x2 PUSH2 0x14E0 JUMP JUMPDEST SWAP1 JUMP JUMPDEST PUSH2 0x1513 PUSH1 0x1 PUSH2 0x5BC JUMP JUMPDEST PUSH2 0x152C PUSH2 0x1526 PUSH2 0x1521 PUSH2 0x14FC JUMP JUMPDEST PUSH2 0x15C JUMP JUMPDEST SWAP2 PUSH2 0x15C JUMP JUMPDEST EQ PUSH2 0x1545 JUMPI PUSH2 0x1543 PUSH2 0x153C PUSH2 0x14FC JUMP JUMPDEST PUSH1 0x1 PUSH2 0x747 JUMP JUMPDEST JUMP JUMPDEST PUSH1 0x0 PUSH4 0x3EE5AEB5 PUSH1 0xE0 SHL DUP2 MSTORE DUP1 PUSH2 0x155E PUSH1 0x4 DUP3 ADD PUSH2 0x123 JUMP JUMPDEST SUB SWAP1 REVERT JUMPDEST SWAP1 JUMP JUMPDEST PUSH2 0x1579 PUSH2 0x1574 PUSH2 0x157E SWAP3 PUSH2 0x1562 JUMP JUMPDEST PUSH2 0x5CC JUMP JUMPDEST PUSH2 0x15C JUMP JUMPDEST SWAP1 JUMP JUMPDEST PUSH2 0x158B PUSH1 0x1 PUSH2 0x1565 JUMP JUMPDEST SWAP1 JUMP JUMPDEST PUSH2 0x15A0 PUSH2 0x1599 PUSH2 0x1581 JUMP JUMPDEST PUSH1 0x1 PUSH2 0x747 JUMP JUMPDEST JUMP JUMPDEST PUSH1 0x20 PUSH2 0x15B6 PUSH2 0x15B1 PUSH1 0x4 PUSH2 0x8F6 JUMP JUMPDEST PUSH2 0x903 JUMP JUMPDEST PUSH4 0xA9059CBB SWAP3 SWAP1 PUSH2 0x15DB PUSH1 0x0 DUP7 SWAP6 PUSH2 0x15E6 PUSH2 0x15CF PUSH2 0x103 JUMP JUMPDEST SWAP8 DUP9 SWAP7 DUP8 SWAP6 DUP7 SWAP5 PUSH2 0x964 JUMP JUMPDEST DUP5 MSTORE PUSH1 0x4 DUP5 ADD PUSH2 0xEC9 JUMP JUMPDEST SUB SWAP3 GAS CALL DUP1 ISZERO PUSH2 0x16EA JUMPI PUSH2 0x1603 SWAP2 PUSH1 0x0 SWAP2 PUSH2 0x16BC JUMPI JUMPDEST POP ISZERO PUSH2 0x297 JUMP JUMPDEST PUSH2 0x160A JUMPI POP JUMP JUMPDEST PUSH2 0x1654 SWAP1 PUSH1 0x20 PUSH2 0x1622 PUSH2 0x161D PUSH1 0x4 PUSH2 0x8F6 JUMP JUMPDEST PUSH2 0x903 JUMP JUMPDEST PUSH4 0x70A08231 SWAP1 PUSH2 0x1649 PUSH2 0x1634 ADDRESS PUSH2 0x90F JUMP JUMPDEST SWAP3 PUSH2 0x163D PUSH2 0x103 JUMP JUMPDEST SWAP7 DUP8 SWAP5 DUP6 SWAP4 DUP5 SWAP4 PUSH2 0x964 JUMP JUMPDEST DUP4 MSTORE PUSH1 0x4 DUP4 ADD PUSH2 0x3EE JUMP JUMPDEST SUB SWAP2 GAS STATICCALL SWAP2 DUP3 ISZERO PUSH2 0x16B7 JUMPI PUSH1 0x0 SWAP3 PUSH2 0x1687 JUMPI JUMPDEST POP PUSH2 0x1683 PUSH1 0x0 SWAP3 DUP4 SWAP3 PUSH4 0x722F6B3 PUSH1 0xE1 SHL DUP5 MSTORE PUSH1 0x4 DUP5 ADD PUSH2 0x8B3 JUMP JUMPDEST SUB SWAP1 REVERT JUMPDEST PUSH2 0x16A9 SWAP2 SWAP3 POP PUSH1 0x20 RETURNDATASIZE DUP2 GT PUSH2 0x16B0 JUMPI JUMPDEST PUSH2 0x16A1 DUP2 DUP4 PUSH2 0x93B JUMP JUMPDEST DUP2 ADD SWAP1 PUSH2 0x979 JUMP JUMPDEST SWAP1 DUP3 PUSH2 0x1667 JUMP JUMPDEST POP RETURNDATASIZE PUSH2 0x1697 JUMP JUMPDEST PUSH2 0x998 JUMP JUMPDEST PUSH2 0x16DD SWAP2 POP PUSH1 0x20 RETURNDATASIZE DUP2 GT PUSH2 0x16E3 JUMPI JUMPDEST PUSH2 0x16D5 DUP2 DUP4 PUSH2 0x93B JUMP JUMPDEST DUP2 ADD SWAP1 PUSH2 0xEAA JUMP JUMPDEST CODESIZE PUSH2 0x15FC JUMP JUMPDEST POP RETURNDATASIZE PUSH2 0x16CB JUMP JUMPDEST PUSH2 0x998 JUMP JUMPDEST SWAP1 PUSH2 0x1700 PUSH1 0x1 DUP1 PUSH1 0xA0 SHL SUB SWAP2 PUSH2 0x70B JUMP JUMPDEST SWAP2 DUP2 NOT AND SWAP2 AND OR SWAP1 JUMP JUMPDEST SWAP1 JUMP JUMPDEST SWAP1 PUSH2 0x1722 PUSH2 0x171D PUSH2 0x1729 SWAP3 PUSH2 0x6C2 JUMP JUMPDEST PUSH2 0x170A JUMP JUMPDEST DUP3 SLOAD PUSH2 0x16EF JUMP JUMPDEST SWAP1 SSTORE JUMP JUMPDEST PUSH2 0x1737 PUSH1 0x0 PUSH2 0xCD4 JUMP JUMPDEST PUSH2 0x1742 DUP3 PUSH1 0x0 PUSH2 0x170D JUMP JUMPDEST SWAP1 PUSH2 0x1776 PUSH2 0x1770 PUSH32 0x8BE0079C531659141344CD1FD0A4F28419497F9722A3DAAFE3B4186F6B6457E0 SWAP4 PUSH2 0x6C2 JUMP JUMPDEST SWAP2 PUSH2 0x6C2 JUMP JUMPDEST SWAP2 PUSH2 0x177F PUSH2 0x103 JUMP JUMPDEST DUP1 PUSH2 0x1789 DUP2 PUSH2 0x123 JUMP JUMPDEST SUB SWAP1 LOG3 JUMP JUMPDEST PUSH2 0x1796 PUSH2 0x14B2 JUMP JUMPDEST PUSH2 0x179E PUSH2 0x17A0 JUMP JUMPDEST JUMP JUMPDEST PUSH2 0x17AC PUSH1 0x1 PUSH1 0x0 PUSH2 0x13FB JUMP JUMPDEST PUSH2 0x17B4 PUSH2 0x17F9 JUMP JUMPDEST PUSH2 0x17EA PUSH32 0x62E78CEA01BEE320CD4E420270B5EA74000D11B0C9F74754EBDBFC544B05A258 SWAP2 PUSH2 0x17E1 PUSH2 0x103 JUMP JUMPDEST SWAP2 DUP3 SWAP2 DUP3 PUSH2 0x3EE JUMP JUMPDEST SUB SWAP1 LOG1 JUMP JUMPDEST PUSH2 0x17F7 PUSH2 0x178E JUMP JUMPDEST JUMP JUMPDEST PUSH2 0x1801 PUSH2 0xCB0 JUMP JUMPDEST POP CALLER SWAP1 JUMP JUMPDEST PUSH2 0x1817 PUSH2 0x1811 PUSH2 0x850 JUMP JUMPDEST ISZERO PUSH2 0x297 JUMP JUMPDEST PUSH2 0x181D JUMPI JUMP JUMPDEST PUSH1 0x0 PUSH4 0x8DFC202B PUSH1 0xE0 SHL DUP2 MSTORE DUP1 PUSH2 0x1836 PUSH1 0x4 DUP3 ADD PUSH2 0x123 JUMP JUMPDEST SUB SWAP1 REVERT INVALID LOG2 PUSH5 0x6970667358 0x22 SLT KECCAK256 RETURNDATACOPY 0xE4 0xA5 ADD REVERT BLOBBASEFEE OR SELFBALANCE LOG4 0x23 PUSH27 0x46D1C01CEE0389118CC43974CB04B889FB9FCDD5B064736F6C6343 STOP ADDMOD SHR STOP CALLER "
        },
        "methodIdentifiers": {
          "addPoints(address,uint256)": "507cd30f",
          "calculateUSDCAmount(uint256)": "4cabb824",
          "claimUSDC(uint256)": "6e5f4a89",
          "depositUSDC(uint256)": "f688bcfb",
          "getPointBalance(address)": "5f42513c",
          "owner()": "8da5cb5b",
          "pause()": "8456cb59",
          "paused()": "5c975abb",
          "removePoints(address,uint256)": "a7a0d15a",
          "renounceOwnership()": "715018a6",
          "setExchangeRate(uint256)": "db068e0e",
          "transferOwnership(address)": "f2fde38b",
          "unpause()": "3f4ba83a",
          "withdrawUSDC(uint256)": "db81f99b"
        }
      }
    }
  }
}