{
  "contracts/mock/Storage.sol": {
    "Storage": {
      "abi": [
        {
          "inputs": [],
          "name": "retrieve",
          "outputs": [
            {
              "internalType": "uint256",
              "name": "",
              "type": "uint256"
            }
          ],
          "stateMutability": "view",
          "type": "function"
        },
        {
          "inputs": [
            {
              "internalType": "uint256",
              "name": "num",
              "type": "uint256"
            }
          ],
          "name": "store",
          "outputs": [],
          "stateMutability": "nonpayable",
          "type": "function"
        }
      ],
      "evm": {
        "bytecode": {
          "linkReferences": {},
          "object": "608060405234601c57600e6020565b61022661002c823961022690f35b6026565b60405190565b600080fdfe60806040526004361015610013575b61013a565b61001e60003561003d565b80632e64cec11461003857636057361d0361000e57610107565b610089565b60e01c90565b60405190565b600080fd5b600080fd5b600091031261005e57565b61004e565b90565b61006f90610063565b9052565b919061008790600060208501940190610066565b565b346100b957610099366004610053565b6100b56100a461016e565b6100ac610043565b91829182610073565b0390f35b610049565b6100c781610063565b036100ce57565b600080fd5b905035906100e0826100be565b565b906020828203126100fc576100f9916000016100d3565b90565b61004e565b60000190565b346101355761011f61011a3660046100e2565b6101e3565b610127610043565b8061013181610101565b0390f35b610049565b600080fd5b600090565b60001c90565b90565b61015961015e91610144565b61014a565b90565b61016b905461014d565b90565b61017661013f565b506101816000610161565b90565b60001b90565b9061019760001991610184565b9181191691161790565b90565b6101b86101b36101bd92610063565b6101a1565b610063565b90565b90565b906101d86101d36101df926101a4565b6101c0565b825461018a565b9055565b6101ee9060006101c3565b56fea2646970667358221220360570e29aafe68479a05a6965ad44ddfa330d05e9ff39c89f94abf41b93c45364736f6c634300081c0033",
          "opcodes": "PUSH1 0x80 PUSH1 0x40 MSTORE CALLVALUE PUSH1 0x1C JUMPI PUSH1 0xE PUSH1 0x20 JUMP JUMPDEST PUSH2 0x226 PUSH2 0x2C DUP3 CODECOPY PUSH2 0x226 SWAP1 RETURN JUMPDEST PUSH1 0x26 JUMP JUMPDEST PUSH1 0x40 MLOAD SWAP1 JUMP JUMPDEST PUSH1 0x0 DUP1 REVERT INVALID PUSH1 0x80 PUSH1 0x40 MSTORE PUSH1 0x4 CALLDATASIZE LT ISZERO PUSH2 0x13 JUMPI JUMPDEST PUSH2 0x13A JUMP JUMPDEST PUSH2 0x1E PUSH1 0x0 CALLDATALOAD PUSH2 0x3D JUMP JUMPDEST DUP1 PUSH4 0x2E64CEC1 EQ PUSH2 0x38 JUMPI PUSH4 0x6057361D SUB PUSH2 0xE JUMPI PUSH2 0x107 JUMP JUMPDEST PUSH2 0x89 JUMP JUMPDEST PUSH1 0xE0 SHR SWAP1 JUMP JUMPDEST PUSH1 0x40 MLOAD SWAP1 JUMP JUMPDEST PUSH1 0x0 DUP1 REVERT JUMPDEST PUSH1 0x0 DUP1 REVERT JUMPDEST PUSH1 0x0 SWAP2 SUB SLT PUSH2 0x5E JUMPI JUMP JUMPDEST PUSH2 0x4E JUMP JUMPDEST SWAP1 JUMP JUMPDEST PUSH2 0x6F SWAP1 PUSH2 0x63 JUMP JUMPDEST SWAP1 MSTORE JUMP JUMPDEST SWAP2 SWAP1 PUSH2 0x87 SWAP1 PUSH1 0x0 PUSH1 0x20 DUP6 ADD SWAP5 ADD SWAP1 PUSH2 0x66 JUMP JUMPDEST JUMP JUMPDEST CALLVALUE PUSH2 0xB9 JUMPI PUSH2 0x99 CALLDATASIZE PUSH1 0x4 PUSH2 0x53 JUMP JUMPDEST PUSH2 0xB5 PUSH2 0xA4 PUSH2 0x16E JUMP JUMPDEST PUSH2 0xAC PUSH2 0x43 JUMP JUMPDEST SWAP2 DUP3 SWAP2 DUP3 PUSH2 0x73 JUMP JUMPDEST SUB SWAP1 RETURN JUMPDEST PUSH2 0x49 JUMP JUMPDEST PUSH2 0xC7 DUP2 PUSH2 0x63 JUMP JUMPDEST SUB PUSH2 0xCE JUMPI JUMP JUMPDEST PUSH1 0x0 DUP1 REVERT JUMPDEST SWAP1 POP CALLDATALOAD SWAP1 PUSH2 0xE0 DUP3 PUSH2 0xBE JUMP JUMPDEST JUMP JUMPDEST SWAP1 PUSH1 0x20 DUP3 DUP3 SUB SLT PUSH2 0xFC JUMPI PUSH2 0xF9 SWAP2 PUSH1 0x0 ADD PUSH2 0xD3 JUMP JUMPDEST SWAP1 JUMP JUMPDEST PUSH2 0x4E JUMP JUMPDEST PUSH1 0x0 ADD SWAP1 JUMP JUMPDEST CALLVALUE PUSH2 0x135 JUMPI PUSH2 0x11F PUSH2 0x11A CALLDATASIZE PUSH1 0x4 PUSH2 0xE2 JUMP JUMPDEST PUSH2 0x1E3 JUMP JUMPDEST PUSH2 0x127 PUSH2 0x43 JUMP JUMPDEST DUP1 PUSH2 0x131 DUP2 PUSH2 0x101 JUMP JUMPDEST SUB SWAP1 RETURN JUMPDEST PUSH2 0x49 JUMP JUMPDEST PUSH1 0x0 DUP1 REVERT JUMPDEST PUSH1 0x0 SWAP1 JUMP JUMPDEST PUSH1 0x0 SHR SWAP1 JUMP JUMPDEST SWAP1 JUMP JUMPDEST PUSH2 0x159 PUSH2 0x15E SWAP2 PUSH2 0x144 JUMP JUMPDEST PUSH2 0x14A JUMP JUMPDEST SWAP1 JUMP JUMPDEST PUSH2 0x16B SWAP1 SLOAD PUSH2 0x14D JUMP JUMPDEST SWAP1 JUMP JUMPDEST PUSH2 0x176 PUSH2 0x13F JUMP JUMPDEST POP PUSH2 0x181 PUSH1 0x0 PUSH2 0x161 JUMP JUMPDEST SWAP1 JUMP JUMPDEST PUSH1 0x0 SHL SWAP1 JUMP JUMPDEST SWAP1 PUSH2 0x197 PUSH1 0x0 NOT SWAP2 PUSH2 0x184 JUMP JUMPDEST SWAP2 DUP2 NOT AND SWAP2 AND OR SWAP1 JUMP JUMPDEST SWAP1 JUMP JUMPDEST PUSH2 0x1B8 PUSH2 0x1B3 PUSH2 0x1BD SWAP3 PUSH2 0x63 JUMP JUMPDEST PUSH2 0x1A1 JUMP JUMPDEST PUSH2 0x63 JUMP JUMPDEST SWAP1 JUMP JUMPDEST SWAP1 JUMP JUMPDEST SWAP1 PUSH2 0x1D8 PUSH2 0x1D3 PUSH2 0x1DF SWAP3 PUSH2 0x1A4 JUMP JUMPDEST PUSH2 0x1C0 JUMP JUMPDEST DUP3 SLOAD PUSH2 0x18A JUMP JUMPDEST SWAP1 SSTORE JUMP JUMPDEST PUSH2 0x1EE SWAP1 PUSH1 0x0 PUSH2 0x1C3 JUMP JUMPDEST JUMP INVALID LOG2 PUSH5 0x6970667358 0x22 SLT KECCAK256 CALLDATASIZE SDIV PUSH17 0xE29AAFE68479A05A6965AD44DDFA330D05 0xE9 SELFDESTRUCT CODECOPY 0xC8 SWAP16 SWAP5 0xAB DELEGATECALL SHL SWAP4 0xC4 MSTORE8 PUSH5 0x736F6C6343 STOP ADDMOD SHR STOP CALLER "
        },
        "methodIdentifiers": {
          "retrieve()": "2e64cec1",
          "store(uint256)": "6057361d"
        }
      }
    }
  }
}