{
  "_format": "hh-sol-artifact-1",
  "contractName": "USDCRewardContract",
  "sourceName": "contracts/USDCRewardContract.sol",
  "abi": [
    {
      "inputs": [
        {
          "internalType": "address",
          "name": "_usdcToken",
          "type": "address"
        }
      ],
      "stateMutability": "nonpayable",
      "type": "constructor"
    },
    {
      "inputs": [],
      "name": "ContractIsPaused",
      "type": "error"
    },
    {
      "inputs": [],
      "name": "EnforcedPause",
      "type": "error"
    },
    {
      "inputs": [],
      "name": "ExchangeRateNotSet",
      "type": "error"
    },
    {
      "inputs": [],
      "name": "ExpectedPause",
      "type": "error"
    },
    {
      "inputs": [
        {
          "internalType": "uint256",
          "name": "required",
          "type": "uint256"
        },
        {
          "internalType": "uint256",
          "name": "available",
          "type": "uint256"
        }
      ],
      "name": "InsufficientPoints",
      "type": "error"
    },
    {
      "inputs": [
        {
          "internalType": "uint256",
          "name": "required",
          "type": "uint256"
        },
        {
          "internalType": "uint256",
          "name": "available",
          "type": "uint256"
        }
      ],
      "name": "InsufficientUSDCBalance",
      "type": "error"
    },
    {
      "inputs": [],
      "name": "InvalidAddress",
      "type": "error"
    },
    {
      "inputs": [],
      "name": "InvalidAmount",
      "type": "error"
    },
    {
      "inputs": [
        {
          "internalType": "address",
          "name": "owner",
          "type": "address"
        }
      ],
      "name": "OwnableInvalidOwner",
      "type": "error"
    },
    {
      "inputs": [
        {
          "internalType": "address",
          "name": "account",
          "type": "address"
        }
      ],
      "name": "OwnableUnauthorizedAccount",
      "type": "error"
    },
    {
      "inputs": [],
      "name": "ReentrancyGuardReentrantCall",
      "type": "error"
    },
    {
      "inputs": [],
      "name": "Unauthorized",
      "type": "error"
    },
    {
      "anonymous": false,
      "inputs": [],
      "name": "ContractPaused",
      "type": "event"
    },
    {
      "anonymous": false,
      "inputs": [],
      "name": "ContractUnpaused",
      "type": "event"
    },
    {
      "anonymous": false,
      "inputs": [
        {
          "indexed": false,
          "internalType": "uint256",
          "name": "newRate",
          "type": "uint256"
        }
      ],
      "name": "ExchangeRateSet",
      "type": "event"
    },
    {
      "anonymous": false,
      "inputs": [
        {
          "indexed": true,
          "internalType": "address",
          "name": "previousOwner",
          "type": "address"
        },
        {
          "indexed": true,
          "internalType": "address",
          "name": "newOwner",
          "type": "address"
        }
      ],
      "name": "OwnershipTransferred",
      "type": "event"
    },
    {
      "anonymous": false,
      "inputs": [
        {
          "indexed": false,
          "internalType": "address",
          "name": "account",
          "type": "address"
        }
      ],
      "name": "Paused",
      "type": "event"
    },
    {
      "anonymous": false,
      "inputs": [
        {
          "indexed": true,
          "internalType": "address",
          "name": "user",
          "type": "address"
        },
        {
          "indexed": false,
          "internalType": "uint256",
          "name": "amount",
          "type": "uint256"
        }
      ],
      "name": "PointsAdded",
      "type": "event"
    },
    {
      "anonymous": false,
      "inputs": [
        {
          "indexed": true,
          "internalType": "address",
          "name": "user",
          "type": "address"
        },
        {
          "indexed": false,
          "internalType": "uint256",
          "name": "amount",
          "type": "uint256"
        }
      ],
      "name": "PointsRemoved",
      "type": "event"
    },
    {
      "anonymous": false,
      "inputs": [
        {
          "indexed": true,
          "internalType": "address",
          "name": "user",
          "type": "address"
        },
        {
          "indexed": false,
          "internalType": "uint256",
          "name": "pointsUsed",
          "type": "uint256"
        },
        {
          "indexed": false,
          "internalType": "uint256",
          "name": "usdcAmount",
          "type": "uint256"
        }
      ],
      "name": "USDCClaimed",
      "type": "event"
    },
    {
      "anonymous": false,
      "inputs": [
        {
          "indexed": false,
          "internalType": "uint256",
          "name": "amount",
          "type": "uint256"
        }
      ],
      "name": "USDCDeposited",
      "type": "event"
    },
    {
      "anonymous": false,
      "inputs": [
        {
          "indexed": false,
          "internalType": "uint256",
          "name": "amount",
          "type": "uint256"
        }
      ],
      "name": "USDCWithdrawn",
      "type": "event"
    },
    {
      "anonymous": false,
      "inputs": [
        {
          "indexed": false,
          "internalType": "address",
          "name": "account",
          "type": "address"
        }
      ],
      "name": "Unpaused",
      "type": "event"
    },
    {
      "inputs": [
        {
          "internalType": "address",
          "name": "user",
          "type": "address"
        },
        {
          "internalType": "uint256",
          "name": "amount",
          "type": "uint256"
        }
      ],
      "name": "addPoints",
      "outputs": [],
      "stateMutability": "nonpayable",
      "type": "function"
    },
    {
      "inputs": [
        {
          "internalType": "uint256",
          "name": "pointAmount",
          "type": "uint256"
        }
      ],
      "name": "calculateUSDCAmount",
      "outputs": [
        {
          "internalType": "uint256",
          "name": "",
          "type": "uint256"
        }
      ],
      "stateMutability": "view",
      "type": "function"
    },
    {
      "inputs": [
        {
          "internalType": "uint256",
          "name": "pointAmount",
          "type": "uint256"
        }
      ],
      "name": "claimUSDC",
      "outputs": [],
      "stateMutability": "nonpayable",
      "type": "function"
    },
    {
      "inputs": [
        {
          "internalType": "uint256",
          "name": "amount",
          "type": "uint256"
        }
      ],
      "name": "depositUSDC",
      "outputs": [],
      "stateMutability": "nonpayable",
      "type": "function"
    },
    {
      "inputs": [
        {
          "internalType": "address",
          "name": "user",
          "type": "address"
        }
      ],
      "name": "getPointBalance",
      "outputs": [
        {
          "internalType": "uint256",
          "name": "",
          "type": "uint256"
        }
      ],
      "stateMutability": "view",
      "type": "function"
    },
    {
      "inputs": [
        {
          "internalType": "address",
          "name": "user",
          "type": "address"
        }
      ],
      "name": "getTotalClaimedPoints",
      "outputs": [
        {
          "internalType": "uint256",
          "name": "",
          "type": "uint256"
        }
      ],
      "stateMutability": "view",
      "type": "function"
    },
    {
      "inputs": [],
      "name": "owner",
      "outputs": [
        {
          "internalType": "address",
          "name": "",
          "type": "address"
        }
      ],
      "stateMutability": "view",
      "type": "function"
    },
    {
      "inputs": [],
      "name": "pause",
      "outputs": [],
      "stateMutability": "nonpayable",
      "type": "function"
    },
    {
      "inputs": [],
      "name": "paused",
      "outputs": [
        {
          "internalType": "bool",
          "name": "",
          "type": "bool"
        }
      ],
      "stateMutability": "view",
      "type": "function"
    },
    {
      "inputs": [],
      "name": "renounceOwnership",
      "outputs": [],
      "stateMutability": "nonpayable",
      "type": "function"
    },
    {
      "inputs": [
        {
          "internalType": "uint256",
          "name": "rate",
          "type": "uint256"
        }
      ],
      "name": "setExchangeRate",
      "outputs": [],
      "stateMutability": "nonpayable",
      "type": "function"
    },
    {
      "inputs": [
        {
          "internalType": "address",
          "name": "user",
          "type": "address"
        },
        {
          "internalType": "uint256",
          "name": "amount",
          "type": "uint256"
        }
      ],
      "name": "subtractPoints",
      "outputs": [],
      "stateMutability": "nonpayable",
      "type": "function"
    },
    {
      "inputs": [
        {
          "internalType": "address",
          "name": "newOwner",
          "type": "address"
        }
      ],
      "name": "transferOwnership",
      "outputs": [],
      "stateMutability": "nonpayable",
      "type": "function"
    },
    {
      "inputs": [],
      "name": "unpause",
      "outputs": [],
      "stateMutability": "nonpayable",
      "type": "function"
    },
    {
      "inputs": [
        {
          "internalType": "uint256",
          "name": "amount",
          "type": "uint256"
        }
      ],
      "name": "withdrawUSDC",
      "outputs": [],
      "stateMutability": "nonpayable",
      "type": "function"
    }
  ],
  "bytecode": "0x60806040523461002f576100196100146100fa565b610248565b610021610034565b6118fc61045382396118fc90f35b61003a565b60405190565b600080fd5b601f801991011690565b634e487b7160e01b600052604160045260246000fd5b906100699061003f565b810190811060018060401b0382111761008157604052565b610049565b90610099610092610034565b928361005f565b565b600080fd5b60018060a01b031690565b6100b4906100a0565b90565b6100c0816100ab565b036100c757565b600080fd5b905051906100d9826100b7565b565b906020828203126100f5576100f2916000016100cc565b90565b61009b565b610118611d4f8038038061010d81610086565b9283398101906100db565b90565b90565b90565b61013561013061013a9261011b565b61011e565b6100a0565b90565b61014690610121565b90565b60000190565b61016361015e610168926100a0565b61011e565b6100a0565b90565b6101749061014f565b90565b6101809061016b565b90565b60001b90565b9061019a60018060a01b0391610183565b9181191691161790565b6101ad9061016b565b90565b90565b906101c86101c36101cf926101a4565b6101b0565b8254610189565b9055565b90565b6101ea6101e56101ef9261011b565b61011e565b6101d3565b90565b906101ff60001991610183565b9181191691161790565b61021d610218610222926101d3565b61011e565b6101d3565b90565b90565b9061023d61023861024492610209565b610225565b82546101f2565b9055565b610251336102e4565b8061026d610267610262600061013d565b6100ab565b916100ab565b1461029b5761027e61028591610177565b60056101b3565b61029961029260006101d6565b6004610228565b565b600063e6c4247b60e01b8152806102b460048201610149565b0390fd5b90565b6102cf6102ca6102d4926102b8565b61011e565b6101d3565b90565b6102e160016102bb565b90565b6102ed90610301565b6102ff6102f86102d7565b6001610228565b565b61030a9061032f565b565b610315906100ab565b9052565b919061032d9060006020850194019061030c565b565b8061034b610345610340600061013d565b6100ab565b916100ab565b1461035b57610359906103f1565b565b610380610368600061013d565b6000918291631e4fbdf760e01b835260048301610319565b0390fd5b60001c90565b60018060a01b031690565b6103a16103a691610384565b61038a565b90565b6103b39054610395565b90565b6103bf9061014f565b90565b6103cb906103b6565b90565b90565b906103e66103e16103ed926103c2565b6103ce565b8254610189565b9055565b6103fb60006103a9565b6104068260006103d1565b9061043a6104347f8be0079c531659141344cd1fd0a4f28419497f9722a3daafe3b4186f6b6457e0936103c2565b916103c2565b91610443610034565b8061044d81610149565b0390a356fe60806040526004361015610013575b61057e565b61001e60003561010d565b80631e2393ea146101085780633f4ba83a146101035780634a222b35146100fe5780634cabb824146100f9578063507cd30f146100f45780635c975abb146100ef5780635f42513c146100ea5780636e5f4a89146100e5578063715018a6146100e05780638456cb59146100db5780638da5cb5b146100d6578063db068e0e146100d1578063db81f99b146100cc578063f2fde38b146100c75763f688bcfb0361000e5761054b565b610518565b6104e5565b6104b2565b61047d565b610427565b6103f4565b6103c1565b61038c565b610357565b6102fb565b6102c6565b610273565b6101ee565b6101a3565b60e01c90565b60405190565b600080fd5b600080fd5b60018060a01b031690565b61013790610123565b90565b6101438161012e565b0361014a57565b600080fd5b9050359061015c8261013a565b565b90602082820312610178576101759160000161014f565b90565b61011e565b90565b6101899061017d565b9052565b91906101a190600060208501940190610180565b565b346101d3576101cf6101be6101b936600461015e565b610601565b6101c6610113565b9182918261018d565b0390f35b610119565b60009103126101e357565b61011e565b60000190565b3461021c576101fe3660046101d8565b610206610672565b61020e610113565b80610218816101e8565b0390f35b610119565b61022a8161017d565b0361023157565b600080fd5b9050359061024382610221565b565b919060408382031261026e578061026261026b926000860161014f565b93602001610236565b90565b61011e565b346102a25761028c610286366004610245565b90610862565b610294610113565b8061029e816101e8565b0390f35b610119565b906020828203126102c1576102be91600001610236565b90565b61011e565b346102f6576102f26102e16102dc3660046102a7565b6108a3565b6102e9610113565b9182918261018d565b0390f35b610119565b3461032a5761031461030e366004610245565b906109d7565b61031c610113565b80610326816101e8565b0390f35b610119565b151590565b61033d9061032f565b9052565b919061035590600060208501940190610334565b565b34610387576103673660046101d8565b610383610372610a15565b61037a610113565b91829182610341565b0390f35b610119565b346103bc576103b86103a76103a236600461015e565b610a2b565b6103af610113565b9182918261018d565b0390f35b610119565b346103ef576103d96103d43660046102a7565b610d95565b6103e1610113565b806103eb816101e8565b0390f35b610119565b34610422576104043660046101d8565b61040c610dee565b610414610113565b8061041e816101e8565b0390f35b610119565b34610455576104373660046101d8565b61043f610e4a565b610447610113565b80610451816101e8565b0390f35b610119565b6104639061012e565b9052565b919061047b9060006020850194019061045a565b565b346104ad5761048d3660046101d8565b6104a9610498610e85565b6104a0610113565b91829182610467565b0390f35b610119565b346104e0576104ca6104c53660046102a7565b610ef4565b6104d2610113565b806104dc816101e8565b0390f35b610119565b34610513576104fd6104f83660046102a7565b61116c565b610505610113565b8061050f816101e8565b0390f35b610119565b346105465761053061052b36600461015e565b6111df565b610538610113565b80610542816101e8565b0390f35b610119565b346105795761056361055e3660046102a7565b6113ed565b61056b610113565b80610575816101e8565b0390f35b610119565b600080fd5b600090565b90565b61059f61059a6105a492610123565b610588565b610123565b90565b6105b09061058b565b90565b6105bc906105a7565b90565b906105c9906105b3565b600052602052604060002090565b60001c90565b90565b6105ec6105f1916105d7565b6105dd565b90565b6105fe90546105e0565b90565b61061861061d91610610610583565b5060036105bf565b6105f4565b90565b6106286113f8565b610630610632565b565b61063a6114f5565b7f0e5e3b3fb504c22cf5c42fa07d521225937514c654007e1f12646f89768d6f94610663610113565b8061066d816101e8565b0390a1565b61067a610620565b565b9061068e916106896113f8565b61076a565b565b90565b6106a76106a26106ac92610690565b610588565b61017d565b90565b9160206106d19294936106ca60408201966000830190610180565b0190610180565b565b634e487b7160e01b600052601160045260246000fd5b6106f86106fe9193929361017d565b9261017d565b820391821161070957565b6106d3565b60001b90565b906107216000199161070e565b9181191691161790565b61073f61073a6107449261017d565b610588565b61017d565b90565b90565b9061075f61075a6107669261072b565b610747565b8254610714565b9055565b610773816114ff565b816107876107816000610693565b9161017d565b14610845576107a061079b600283906105bf565b6105f4565b806107b36107ad8561017d565b9161017d565b1061082557506107e1826107db6107cc600285906105bf565b916107d6836105f4565b6106e9565b9061074a565b61082061080e7ff9352367bd3be481e8f66e7940f6ea5b57fea7504271b1f2863a535443fd2bab926105b3565b92610817610113565b9182918261018d565b0390a2565b826108416000928392638059c74760e01b8452600484016106af565b0390fd5b600063162908e360e11b81528061085e600482016101e8565b0390fd5b9061086c9161067c565b565b61087d6108839193929361017d565b9261017d565b9161088f83820261017d565b92818404149015171561089e57565b6106d3565b6108ab610583565b506108b660046105f4565b6108c96108c36000610693565b9161017d565b146108e5576108e2906108dc60046105f4565b9061086e565b90565b506108f06000610693565b90565b90610905916109006113f8565b61092c565b565b61091661091c9193929361017d565b9261017d565b820180921161092757565b6106d3565b610935816114ff565b816109496109436000610693565b9161017d565b146109ba5761097682610970610961600285906105bf565b9161096b836105f4565b610907565b9061074a565b6109b56109a37f0fe6fcb45adaaa54f7e3491f6a7964049817f1e437f33587e634a4629fbcf3a6926105b3565b926109ac610113565b9182918261018d565b0390a2565b600063162908e360e11b8152806109d3600482016101e8565b0390fd5b906109e1916108f3565b565b600090565b60a01c90565b60ff1690565b610a00610a05916109e8565b6109ee565b90565b610a1290546109f4565b90565b610a1d6109e3565b50610a286000610a08565b90565b610a42610a4791610a3a610583565b5060026105bf565b6105f4565b90565b610a5b90610a5661153e565b610a5d565b565b610a6e90610a69611595565b610b4a565b610a7661161a565b565b60018060a01b031690565b610a8f610a94916105d7565b610a78565b90565b610aa19054610a83565b90565b610aad906105a7565b90565b610ab9906105a7565b90565b601f801991011690565b634e487b7160e01b600052604160045260246000fd5b90610ae690610abc565b810190811067ffffffffffffffff821117610b0057604052565b610ac6565b60e01b90565b90505190610b1882610221565b565b90602082820312610b3457610b3191600001610b0b565b90565b61011e565b610b41610113565b3d6000823e3d90fd5b610b53336114ff565b80610b67610b616000610693565b9161017d565b14610d7857610b7660046105f4565b610b89610b836000610693565b9161017d565b14610d5b57610ba2610b9d600233906105bf565b6105f4565b80610bb5610baf8461017d565b9161017d565b10610d3b5750610bcf81610bc960046105f4565b9061086e565b90610c196020610be7610be26005610a97565b610aa4565b6370a0823190610c0e610bf930610ab0565b92610c02610113565b95869485938493610b05565b835260048301610467565b03915afa908115610d3657600091610d08575b5080610c40610c3a8561017d565b9161017d565b10610ce85750610c6e81610c68610c59600233906105bf565b91610c63836105f4565b6106e9565b9061074a565b610c9681610c90610c81600333906105bf565b91610c8b836105f4565b610907565b9061074a565b610ca133839061162e565b339091610cce7feb9a8c68a32bc6989217e69f932cf098ff5d0e2f11305800394c73b554d2ce9e926105b3565b92610ce3610cda610113565b928392836106af565b0390a2565b82610d046000928392630722f6b360e11b8452600484016106af565b0390fd5b610d29915060203d8111610d2f575b610d218183610adc565b810190610b1a565b38610c2c565b503d610d17565b610b39565b90610d576000928392638059c74760e01b8452600484016106af565b0390fd5b60006362f216e560e01b815280610d74600482016101e8565b0390fd5b600063162908e360e11b815280610d91600482016101e8565b0390fd5b610d9e90610a4a565b565b610da86113f8565b610db0610dda565b565b610dc6610dc1610dcb92610690565b610588565b610123565b90565b610dd790610db2565b90565b610dec610de76000610dce565b6117b9565b565b610df6610da0565b565b610e006113f8565b610e08610e0a565b565b610e1261187b565b7fab35696f06e428ebc5ceba8cd17f8fed287baf43440206d1943af1ee53e6d267610e3b610113565b80610e45816101e8565b0390a1565b610e52610df8565b565b600090565b60018060a01b031690565b610e70610e75916105d7565b610e59565b90565b610e829054610e64565b90565b610e8d610e54565b50610e986000610e78565b90565b610eac90610ea76113f8565b610eae565b565b610eb981600461074a565b610eef7f972aba470577c14606bbf4bbdec1fed4925f242fcef40b4a8d242983365d029191610ee6610113565b9182918261018d565b0390a1565b610efd90610e9b565b565b610f1090610f0b6113f8565b610f79565b565b610f1b8161032f565b03610f2257565b600080fd5b90505190610f3482610f12565b565b90602082820312610f5057610f4d91600001610f27565b90565b61011e565b916020610f77929493610f706040820196600083019061045a565b0190610180565b565b80610f8d610f876000610693565b9161017d565b1461114f57610fdb6020610fa9610fa46005610a97565b610aa4565b6370a0823190610fd0610fbb30610ab0565b92610fc4610113565b95869485938493610b05565b835260048301610467565b03915afa90811561114a5760009161111c575b5080611002610ffc8461017d565b9161017d565b106110fc576110196110146005610a97565b610aa4565b602063a9059cbb9133906110416000879561104c611035610113565b97889687958694610b05565b845260048401610f55565b03925af180156110f757611069916000916110c9575b501561032f565b6110a957506110a47f4eacc637a5fb1dbbc94595a9432e0a8d75ae5d51d189021963a6cc8575465ddf9161109b610113565b9182918261018d565b0390a1565b906110c56000928392630722f6b360e11b8452600484016106af565b0390fd5b6110ea915060203d81116110f0575b6110e28183610adc565b810190610f36565b38611062565b503d6110d8565b610b39565b906111186000928392630722f6b360e11b8452600484016106af565b0390fd5b61113d915060203d8111611143575b6111358183610adc565b810190610b1a565b38610fee565b503d61112b565b610b39565b600063162908e360e11b815280611168600482016101e8565b0390fd5b61117590610eff565b565b611188906111836113f8565b61118a565b565b806111a66111a061119b6000610dce565b61012e565b9161012e565b146111b6576111b4906117b9565b565b6111db6111c36000610dce565b6000918291631e4fbdf760e01b835260048301610467565b0390fd5b6111e890611177565b565b6111fb906111f66113f8565b611230565b565b60409061122761122e949695939661121d6060840198600085019061045a565b602083019061045a565b0190610180565b565b8061124461123e6000610693565b9161017d565b146113d05761125b6112566005610a97565b610aa4565b60206323b872dd91339061128c600061127330610ab0565b9561129788611280610113565b98899788968795610b05565b8552600485016111fd565b03925af180156113cb576112b49160009161139d575b501561032f565b6112f3576112ee7f0f920186940a9c60ff07b508b49ba5dca2c647b29aebfa69964b44e5e873a62c916112e5610113565b9182918261018d565b0390a1565b61133590602061130b6113066005610a97565b610aa4565b6370a082319061132a339261131e610113565b96879485938493610b05565b835260048301610467565b03915afa91821561139857600092611368575b506113646000928392630722f6b360e11b8452600484016106af565b0390fd5b61138a91925060203d8111611391575b6113828183610adc565b810190610b1a565b9082611348565b503d611378565b610b39565b6113be915060203d81116113c4575b6113b68183610adc565b810190610f36565b386112ad565b503d6113ac565b610b39565b600063162908e360e11b8152806113e9600482016101e8565b0390fd5b6113f6906111ea565b565b611400610e85565b61141961141361140e611885565b61012e565b9161012e565b0361142057565b61144361142b611885565b600091829163118cdaa760e01b835260048301610467565b0390fd5b61144f611892565b6114576114a7565b565b60a01b90565b9061146e60ff60a01b91611459565b9181191691161790565b6114819061032f565b90565b90565b9061149c6114976114a392611478565b611484565b825461145f565b9055565b6114b2600080611487565b6114ba611885565b6114f07f5db9ee0a495bf2e6ff9c91a7834c1ba4fdd244a5e8aa4e537bd38aeae4b073aa916114e7610113565b91829182610467565b0390a1565b6114fd611447565b565b61151a61151461150f6000610dce565b61012e565b9161012e565b1461152157565b600063e6c4247b60e01b81528061153a600482016101e8565b0390fd5b611546610a15565b61154c57565b600063d93c066560e01b815280611565600482016101e8565b0390fd5b90565b61158061157b61158592611569565b610588565b61017d565b90565b611592600261156c565b90565b61159f60016105f4565b6115b86115b26115ad611588565b61017d565b9161017d565b146115d1576115cf6115c8611588565b600161074a565b565b6000633ee5aeb560e01b8152806115ea600482016101e8565b0390fd5b90565b61160561160061160a926115ee565b610588565b61017d565b90565b61161760016115f1565b90565b61162c61162561160d565b600161074a565b565b602061164261163d6005610a97565b610aa4565b63a9059cbb92906116676000869561167261165b610113565b97889687958694610b05565b845260048401610f55565b03925af180156117765761168f91600091611748575b501561032f565b6116965750565b6116e09060206116ae6116a96005610a97565b610aa4565b6370a08231906116d56116c030610ab0565b926116c9610113565b96879485938493610b05565b835260048301610467565b03915afa91821561174357600092611713575b5061170f6000928392630722f6b360e11b8452600484016106af565b0390fd5b61173591925060203d811161173c575b61172d8183610adc565b810190610b1a565b90826116f3565b503d611723565b610b39565b611769915060203d811161176f575b6117618183610adc565b810190610f36565b38611688565b503d611757565b610b39565b9061178c60018060a01b039161070e565b9181191691161790565b90565b906117ae6117a96117b5926105b3565b611796565b825461177b565b9055565b6117c36000610e78565b6117ce826000611799565b906118026117fc7f8be0079c531659141344cd1fd0a4f28419497f9722a3daafe3b4186f6b6457e0936105b3565b916105b3565b9161180b610113565b80611815816101e8565b0390a3565b61182261153e565b61182a61182c565b565b61183860016000611487565b611840611885565b6118767f62e78cea01bee320cd4e420270b5ea74000d11b0c9f74754ebdbfc544b05a2589161186d610113565b91829182610467565b0390a1565b61188361181a565b565b61188d610e54565b503390565b6118a361189d610a15565b1561032f565b6118a957565b6000638dfc202b60e01b8152806118c2600482016101e8565b0390fdfea2646970667358221220a58b8c83160a8460330dd00a70fd0986bd66994083215a0d4939d1603b3a436064736f6c634300081c0033",
  "linkReferences": {},
  "deployedLinkReferences": {}
}